:020000040000fa
:080000000002040000000000f2
:020000040000fa
:04000800e002000012
:020000040000fa
:04000c008c930000d1
:020000040000fa
:040010009e930000bb
:020000040000fa
:0400140094930000c1
:020000040000fa
:04001800a6930000ab
:020000040000fa
:04001c00e0020000fe
:020000040000fa
:04002000e0020000fa
:020000040000fa
:04002400e0020000f6
:020000040000fa
:04002800e0020000f2
:020000040000fa
:04002c007e910000c1
:020000040000fa
:04003000e0020000ea
:020000040000fa
:04003400e0020000e6
:020000040000fa
:04003800e0020000e2
:020000040000fa
:04003c00dc90000054
:020000040000fa
:04004000e0020000da
:020000040000fa
:04004400168e000014
:020000040000fa
:04004800e0020000d2
:020000040000fa
:04004c00e0020000ce
:020000040000fa
:04005000e0020000ca
:020000040000fa
:0400540028880000f8
:020000040000fa
:04005800ca87000053
:020000040000fa
:04005c00e0020000be
:020000040000fa
:04006000e0020000ba
:020000040000fa
:04006400e0020000b6
:020000040000fa
:04006800e0020000b2
:020000040000fa
:04006c00e0020000ae
:020000040000fa
:04007000e0020000aa
:020000040000fa
:04007400e0020000a6
:020000040000fa
:04007800e0020000a2
:020000040000fa
:04007c00e00200009e
:020000040000fa
:04008000e00200009a
:020000040000fa
:04008400e002000096
:020000040000fa
:04008800e002000092
:020000040000fa
:04008c00e00200008e
:020000040000fa
:04009000e00200008a
:020000040000fa
:04009400e002000086
:020000040000fa
:04009800e002000082
:020000040000fa
:04009c00e00200007e
:020000040000fa
:0400a000e00200007a
:020000040000fa
:0400a400e002000076
:020000040000fa
:0400a800e002000072
:020000040000fa
:0400ac00e00200006e
:020000040000fa
:0400b000e00200006a
:020000040000fa
:0400b400e002000066
:020000040000fa
:0400b800e002000062
:020000040000fa
:0400bc003a90000076
:020000040000fa
:0400c000988f000015
:020000040000fa
:0400c400e002000056
:020000040000fa
:0400c800e002000052
:020000040000fa
:0400cc00e00200004e
:020000040000fa
:0400d000e00200004a
:020000040000fa
:0400d400e002000046
:020000040000fa
:0400d800e002000042
:020000040000fa
:0400dc00e00200003e
:020000040000fa
:0400e000e00200003a
:020000040000fa
:0400e400e002000036
:020000040000fa
:0400e800e002000032
:020000040000fa
:0400ec00e00200002e
:020000040000fa
:0400f000e00200002a
:020000040000fa
:0400f400e002000026
:020000040000fa
:0400f800e002000022
:020000040000fa
:0400fc00e00200001e
:020000040000fa
:04010000e002000019
:020000040000fa
:04010400e002000015
:020000040000fa
:04010800e002000011
:020000040000fa
:04010c00e00200000d
:020000040000fa
:04011000e002000009
:020000040000fa
:04011400e002000005
:020000040000fa
:04011800e002000001
:020000040000fa
:04011c00e0020000fd
:020000040000fa
:04012000e0020000f9
:020000040000fa
:04012400e0020000f5
:020000040000fa
:04012800e0020000f1
:020000040000fa
:04012c0054880000f3
:020000040000fa
:04013000e0020000e9
:020000040000fa
:04013400e0020000e5
:020000040000fa
:04020800e002000010
:020000040000fa
:04020c00e00200000c
:020000040000fa
:04021000e002000008
:020000040000fa
:04021400e002000004
:020000040000fa
:04021800e002000000
:020000040000fa
:04021c00e0020000fc
:020000040000fa
:04022000e0020000f8
:020000040000fa
:04022400e0020000f4
:020000040000fa
:04022800e0020000f0
:020000040000fa
:04022c00e0020000ec
:020000040000fa
:04023000e0020000e8
:020000040000fa
:04023400e0020000e4
:020000040000fa
:04023800e0020000e0
:020000040000fa
:04023c00e0020000dc
:020000040000fa
:04024000e0020000d8
:020000040000fa
:04024400e0020000d4
:020000040000fa
:04024800e0020000d0
:020000040000fa
:04024c00e0020000cc
:020000040000fa
:04025000e0020000c8
:020000040000fa
:04025400e0020000c4
:020000040000fa
:04025800e0020000c0
:020000040000fa
:04025c00e0020000bc
:020000040000fa
:04026000e0020000b8
:020000040000fa
:04026400e0020000b4
:020000040000fa
:04026800e0020000b0
:020000040000fa
:04026c00e0020000ac
:020000040000fa
:04027000e0020000a8
:020000040000fa
:04027400e0020000a4
:020000040000fa
:04027800e0020000a0
:020000040000fa
:04027c00e00200009c
:020000040000fa
:04028000e002000098
:020000040000fa
:04028400e002000094
:020000040000fa
:04028800e002000090
:020000040000fa
:04028c00e00200008c
:020000040000fa
:04029000e002000088
:020000040000fa
:04029400e002000084
:020000040000fa
:04029800e002000080
:020000040000fa
:04029c00e00200007c
:020000040000fa
:0402a000e002000078
:020000040000fa
:0402a400e002000074
:020000040000fa
:0402a800e002000070
:020000040000fa
:0402ac00e00200006c
:020000040000fa
:0402b000e002000068
:020000040000fa
:0402b400e002000064
:020000040000fa
:0402b800e002000060
:020000040000fa
:0402bc00e00200005c
:020000040000fa
:0402c000e002000058
:020000040000fa
:0402c400e002000054
:020000040000fa
:0402c800e002000050
:020000040000fa
:0402cc00e00200004c
:020000040000fa
:0402d000e002000048
:020000040000fa
:0402d400e002000044
:020000040000fa
:0402d800e002000040
:020000040000fa
:0402dc00e00200003c
:020000040000fa
:0402e000e002000038
:020000040000fa
:0402e400e002000034
:020000040000fa
:0402e800e002000030
:020000040000fa
:0402ec00e00200002c
:020000040000fa
:0402f000e002000028
:020000040000fa
:0402f400e002000024
:020000040000fa
:0402f800e002000020
:020000040000fa
:0402fc00e00200001c
:020000040000fa
:04030000e002000017
:020000040000fa
:04030400e002000013
:020000040000fa
:04030800e00200000f
:020000040000fa
:04030c00e00200000b
:020000040000fa
:04031000e002000007
:020000040000fa
:04031400e002000003
:020000040000fa
:04031800e0020000ff
:020000040000fa
:04031c00e0020000fb
:020000040000fa
:04032000e0020000f7
:020000040000fa
:04032400e0020000f3
:020000040000fa
:04032800e0020000ef
:020000040000fa
:04032c00e0020000eb
:020000040000fa
:04033000e0020000e7
:020000040000fa
:04033400e0020000e3
:020000040000fa
:100400000fa021000e7f22000e01880000000000d6
:10041000000020000000e000020032000001200087
:100420002002880014000700bb0007000000e00065
:1004300003003a00409b2800010020000200370022
:100440000000200001002000810f70000100320038
:1004500014000700000020000000e000020032004d
:100460000000020000000000087f02000000000001
:100470000040da000000fe004440a9006056200061
:100480000000e0000300320000002000a00188000e
:100490004440a800000006008a1f78008b1f7800e7
:1004a0000000060091018800800478000000eb0045
:1004b0001a003700e284440032a0b4009905ba0063
:1004c000e284440032a0b4009906ba00e2844400f9
:1004d00032a0b4000006eb00476fde00fd07b2005b
:1004e000636ce10003003a00ebff07000000eb0043
:1004f0000a003700606ce10004003a00005deb0088
:100500008b05e900fdff3e00040037006168e10053
:10051000010032000086eb000b00070019c7ba008b
:100520001905ba000e04e00003003a000a00e000da
:10053000e0ff3a0000000600fe07b2009e018800be
:100540008a047800f5ff3700395dba008b05e900b1
:100550000c003200295dba008b05e900080032006a
:100560000c00e00003003a00e284440032a0b40032
:10057000f5ff370019ddba008b05e900faff3a00f4
:100580008904e800e184440032a0b40000000600c1
:10059000427c040000000000101d04000000000068
:1005a0002e0a0400000000005a0a040000000000a7
:1005b0003c150400000000000000040000000000e2
:1005c0000040da000000fe000a00fa0011002000de
:1005d000b1bf9f00c0bf9f006a805700420907005b
:1005e0004fb897000080fa00000006000a00fa00e9
:1005f00051002000b1bf9f00c0bf9f006a8057001c
:100600003b0907005fb897000080fa000000060071
:10061000889fbe0080047800f0cf80000000e000da
:1006200004003a000e0007000084eb000000e00028
:1006300008003500f8cf80000900e0000500320016
:1006400009004400060007000000e00001003d0032
:100650000084eb00080078004f04be000000060094
:10066000800078000100e00003003a000000200054
:10067000f0cf8800000005000080eb0002002000a1
:10068000828f500002003e00f1cf88000000eb0096
:10069000000006000800fa001007980021079800e3
:1006a0003207980000000000911180000010200027
:1006b000008060000000e000fbff3200be00900000
:1006c000010f78000e00370000000000911180003b
:1006d00000102000008060000000e000fbff3200fe
:1006e0002e009000104078000000fb00a011880050
:1006f0002e0090000000e800200798001e0fe9007f
:100700001e0078000000e000efff3a003e0090007d
:100710000080fa000000060000000500889fbe006f
:100720008a9fbe008c1f78009a000700a10033004a
:1007300003866c006450e1002e0032006420e1006a
:10074000330032006150e1002f0032006120e100ef
:100750003100320085855500eb07b000090020000c
:1007600008042000050037000804440089844c0078
:100770000a0031000603430087834b000001530049
:1007800081815b00f8ff33000203be000800a00077
:100790000804440089844c00f6ff3900c639dd00a6
:1007a0008301730001003200130020008904d1008e
:1007b0000884d3000998a300050032000800a700b0
:1007c0000300a0008904d1000884d3008b05e80051
:1007d0008904d1000884d3000001eb000281d2001b
:1007e0003100070001f0a1000cf0a70001f0a0000b
:1007f000790037006420e1007b0032000801be0070
:100800000200be00f7ff37006120e10076003200f1
:100810006000b800f3ff37000000200001f8270057
:10082000f0ff370014002000a9003700f4ff2f006c
:10083000a70037000001be00410007000470a700b8
:1008400003f0a10003f8a30013003a006509b1000a
:1008500010003200090035006928e100020035006f
:1008600001002800000005000000400081804800d1
:100870008502e900fcff3a0000000600f88f420004
:10088000050035008100d1000080d3008502e8001a
:10089000fcff3a00000006008000eb0000000500ad
:1008a0006011b800a500370081002000618055006c
:1008b0000b003d000b00200061fe2f000100e10055
:1008c0001d00340082817100610164008904d1003f
:1008d0000884d3000000e800faff3a00710020000d
:1008e0006100640003007000020060000900320033
:1008f00061044400e0844c000988a5000500320032
:100900008b05e8006808e10002003a008904d10084
:100910000884d300f20f20000258e10005003d00da
:10092000c75ddd00f907b200898075000800780016
:10093000000006000bf827008b007800000005007f
:10094000c70ade00f107b200f50fb200080032005e
:10095000e1cf4200020032000170a0002400050037
:10096000810f7000010032000408050044000500fa
:10097000810f700002003a00140005008502e900b2
:100980000000400081c04800fcff3b000170a00057
:10099000240005000004be00e9ff07000003be00bc
:1009a0000405be000200be00e5ff0700844f75008d
:1009b000000006000200be006450e10005003600a1
:1009c0006420e100020036000968a30001003a003b
:1009d0000800be000160a0004f0678004f05be0071
:1009e0004f04be0000000600f0ff2f00f1ff2700bb
:1009f000f9ff3700889fbe008a9fbe008c1f7800d9
:100a0000e4ff0700ebff330003866c006450e10055
:100a1000240032006420e100270032006150e10030
:100a2000220032006120e100210032008b8542006b
:100a3000eb07b1000134b800003ab80008044200e6
:100a400089844a00013ab8000030b800888040002c
:100a500009014a0004003300000040008180480082
:100a6000020149008b05e900c909dd00830170001e
:100a70000100320013002000c814de004814dd001d
:100a80004709de001200b200c808de0008847000ca
:100a900085ff070001f0a1000cf0a70001f0a00005
:100aa000cdff37006120e100cfff32000801be001a
:100ab0000200be00f7ff37006150e100fcff3a0082
:100ac000c9ff37004c0007000400be00000006000c
:100ad000889fbe008a9fbe00841f7800adff07007c
:100ae0004f00780011003300f0ff2f00838f6c005f
:100af00006003b00040565000a00a7000800370057
:100b000009f0a6001000200008003700820f5400f2
:100b1000838f5c00030039001000200001003e00bc
:100b20000000200009f0a7000000ea004f05be0009
:100b30004f04be000000e00000000600889fbe00d9
:100b40008a9fbe000082700004027100048271005e
:100b5000260032000004be000200be006011b80092
:100b60006b092000950220000182cf000a003900a5
:100b70000541b1000082cf00070039000541b100f6
:100b80000982cf00040039000541b1000882cf007e
:100b9000010039000541b100054252001200320047
:100ba0000a003b0082817100610164008100d10074
:100bb0000080d3008984d3000884d3008b05e8002b
:100bc0000442e800f7ff3a00070037000804440039
:100bd00089844c0000004800818048008b05e900b2
:100be0000442e900f9ff3a002fff07004f05be005d
:100bf0004f04be00000006006022b800060220007c
:100c00000000d0008180d2000482d2008582d20010
:100c10000000a0000202520083825a00030031004b
:100c20000202420083824a000000a1000603e9009c
:100c3000f3ff3a00000006000000e0002f00320041
:100c4000c0017800e38f51002c0036000308a30098
:100c50002a003a0081cf80000100e000020032004b
:100c6000810f5000040031001100980080cf8800ef
:100c70001600370082007800110190000200e000a9
:100c800002003200800f5100faff39001102780093
:100c900084824000850f500018003900808f520078
:100ca00003003a0083084200010078000700370083
:100cb0000200e0000300320083014000830f510076
:100cc0000e003900120098009000980090009000eb
:100cd0000100e0000900320010014000828f500046
:100ce00006003a00e29e21000009eb0010017800a6
:100cf00011084100910090001100980000000600ca
:100d0000889fbe000004780071cf80000100e000e1
:100d100002003200010078000d00370081cf800012
:100d2000009f210004003700910f54002500360079
:100d30000180e800910090000100e000faff3a0015
:100d400010003700920f54001e0036000280e800a9
:100d5000100178000200e000faff3a00110178006b
:100d600081cf8000009f210004003700910f5400c4
:100d7000140036000180e80091009000828f50003e
:100d8000faff3a00d9cf8000888f5400010031006b
:100d90008804780009007800d10007000000e00016
:100da00004003a00888f5400050032008904d10005
:100db000f5ff3700091878009fff0700d2ff3700c2
:100dc0000000eb004f04be0000000600881f780002
:100dd000630440000800a1008000eb00800f540075
:100de00021003600e30f540001003e0048002000bf
:100df00008007800c2ff07008000eb000000e00060
:100e0000190032009000780091017800648151004f
:100e1000880f510003003100110190000208780092
:100e20000700370008814000020878009101900017
:100e30001301980010017800110914008808780047
:100e4000100178000000eb000200e0000400320016
:100e5000920190000300e000010032000280e800ef
:100e600070cf88008180e800010078004f0478008e
:100e7000000006008001780002003700b1597800b8
:100e80000201e9000200e000fcff3a000000060059
:100e90008001780002003700815978000201e900e2
:100ea0000200e000fcff3a0000000600818a2100f9
:100eb000ae030700800078000080eb000100e00036
:100ec00004003500818a2100a00020003d010700b8
:100ed0004f80de0000000600020037000204e00040
:100ee0000b00320081017800000278003041780068
:100ef000b14f5100f9ff3200100020001442780079
:100f0000934f5200030031000080eb000000060008
:100f10000000eb000000060080007800010178006e
:100f20003104e000fdff3a0000005100000006001f
:100f30000c003700b0417800b1cf510006003200fc
:100f4000100020009542780094cf52000b00310031
:100f50000080eb00000006000304e0000600320001
:100f60000201e90001027800800278000200e0003e
:100f7000f0ff3a00000005000000eb000000060052
:100f80008001780002003700845978000201e900ee
:100f90000200e00006003200314278000404e00064
:100fa000f9ff3a00020037008059eb000201e90026
:100fb0000200e000fcff3a0000000600e487470062
:100fc000889fbe008a9fbe008c1f78008e1f78000d
:100fd0000005780001077800020678000e00e000a6
:100fe00001003a006e8757008a0578008b0478006c
:100ff000890578003b4478000800fb00dc0007000e
:101000000000e000f9ff3a00d0c2b300804f540066
:101010000300320000c0e900804f540002003a0093
:101020008904e80001003700004478000c017800d2
:101030008e00780009007800330007009e8f54006e
:1010400001003a000a0f78009e0f550003003a0095
:10105000e00f5000e08f58000f003a00b2c2b3001a
:10106000824f540004003a00e00f5000e08f580017
:1010700015003d0008003700d2c2b300824f540073
:1010800011003a000200200003002800820f5000e7
:10109000838f58000a0036002002200090cf88007d
:1010a000f0ff2f00f1ff2700d2c2b300824f54009f
:1010b00005003a000000200001002800020037006f
:1010c00060001000e08018004f0778004f0678009d
:1010d0004f05be004f04be004f00b10000000600e7
:1010e000800078000000eb000100e0000500340003
:1010f0000100780046fd0700e10f400001003a00c2
:101100000000eb0000000600ee874700889fbe004d
:101110008a9fbe008c9fbe008e1f7800f0b79f0094
:101120000106780082057800000478000805780040
:101130000a047800b84678000d00fb008c00070018
:101140000000e000f9ff3a00d0c2b30080cf5600a3
:101150000300320000c0e90080cf560002003a00d0
:101160000a05e80001003700804678000b00e00027
:1011700005003500e18f55000300320040022000d9
:10118000808f5500060034006044b8000c00e00079
:10119000700032007fb09700000e78006d003700bd
:1011a0000b00e0000e003200f08f55001a003a00ec
:1011b00000c3b3009a4f100017003a001a40900085
:1011c00081c7b300814f50000300320081c5b300d6
:1011d000814f500010003a000a85e8000e003700e9
:1011e000ab00200000c3b3009a4f10000a003a0081
:1011f0001a40900081c7b300814f500004003200b4
:101200008b00200081c5b300814f500002003a00de
:101210000a85e8000b0120000a007800000278002f
:101220000400780001c3b300b0cf1000fbff320010
:10123000040778006044b800b4b79f000d00370081
:101240008190210081405000c1ef9f006159b90099
:101250000800be00370607004fea97000401fb00b4
:10126000cf91de00c8b79f00d9b79f0002044000ad
:10127000838448008e0278003e00fb0085bf9f00fb
:10128000430007000b017800800078008090210067
:10129000520307008fba97000000e000e8ff3a0011
:1012a0003fb29700850f550005003a006044b80032
:1012b0000c00e00027003200ffb297002400370046
:1012c00004825200d092210060c07d000000fb002b
:1012d000000252001700330011003a004fe9970056
:1012e0000200fb00cf80de000000540081805c0023
:1012f000800f5400818f5c00090039006159b900ea
:1013000085bf9f003cfe07008fba97004fb1970042
:10131000dfb19700820f5000838f58000500320024
:101320002002200090cf88000084eb008084eb0036
:1013300005003700d0c2b30080cf560002003a004b
:1013400060041400e0841c000c00e0000100320086
:10135000050e78000800be004f0778004f06be005b
:101360004f05be004f04be00ef00b10000000600b4
:101370006900e100040035006d00e1000300340065
:101380000002b1000100320000000500100005005d
:10139000800078001104b100030035009101b10014
:1013a00001003c000050a00000000600a0cf80001b
:1013b0000000e0000100320000000100209f210039
:1013c00000000600889fbe008a1f78000004be004f
:1013d000c900900069009000808f5000050039001e
:1013e000090078001d0307008080eb000000e0008a
:1013f000160035000845780049009000085878002c
:10140000c00498001900780000b8a30004003a0056
:1014100000a8a30007003200ea4f540005003a007c
:1014200009007800160207008080eb000000e00051
:1014300006003a0000c020001900600002003200df
:1014400049009000e00498008a80fb0001007800c9
:101450004f0578004f04be0000000600881f78008a
:10146000020478000801780082fe070008004000ae
:101470004f047800000006000000fa00881f780082
:1014800000047800ea8157003fb99700880078008f
:10149000e0a220001d0007000000e000020035006f
:1014a0008040eb00017478004f0478000080fa005f
:1014b00000000600889fbe0000047800010078004c
:1014c000820478008801780009017800110020006a
:1014d0006e020700890f5000010032000004eb008b
:1014e000080078004f04be00000006000000fa006b
:1014f000e88157004fb99700818a2100a0a52000fc
:10150000020007000080fa00000006006200fa00f6
:10151000889fbe008a1f780000057800810478004b
:10152000020478008300780080f92f000f0040004b
:10153000fc0407009a979f00a9979f000000eb000a
:10154000b09f9f001885fb008a04fb000a05ea0093
:101550004f55de0050022000808f54000d003200f5
:10156000e10f55000b003a000a017800880078006e
:101570002f9097009f91970003000100a0979f0074
:101580000000e0008e0032003f9897000000e80065
:10159000b09f9f000a04440050022000808f540036
:1015a000040032000900e000e6ff3a003f9897008f
:1015b000840037000000eb00909f9f00809f9f00f9
:1015c000f0979f00e0979f00d0979f00c0979f00e3
:1015d00007003700819e21000100500000004000fc
:1015e000c19d210061007800df9897000100700024
:1015f000d09f9f008804780009047800384578005f
:101600008a00fb00809e21007e0207000000e000af
:10161000f0ff3a00a1c2b300814f55000e003a001e
:10162000cf8897000180e900c08f9f0010007800ec
:10163000c09f9f000000e00005003d000000ea00a0
:10164000c09f9f005f9897000020a000d09f9f0040
:101650000904e8000f003700c09f9f000000eb0066
:1016600005003700f2ff2700820f50000200320011
:101670006a01b900028040000904780088047800fb
:10168000b900fb000103b100e98f5000f5ff3600ff
:10169000c09f9f00e0c2b300984f100002003200cc
:1016a0000080eb0019003700a0c2b300d84f100033
:1016b00007003a00cf8897000180e900c08f9f00a3
:1016c00010007800a09f9f000804e8001000370079
:1016d0000000eb00a09f9f00880078000500370005
:1016e000f3ff2700830f5000020032006a02b900a6
:1016f0000400410001047800880078003101fb00fb
:101700000203b100e90f5100f5ff3600a09f9f00d2
:10171000984478008900fb00409d210039020700b1
:101720000000e000020032000804e8000100370079
:101730008044eb00c97f9f0080c6b30080cf540077
:1017400004003a0098cf14000a003a0066405000a6
:1017500006003700c0c6b30080cf540005003a0031
:1017600098cf140003003a0065404000c07f9f00fe
:101770000804e8001801fb00e3fb2f008f81410003
:1017800081f92f008f804000a0f92f000f0040004a
:10179000100007000000e00009003a00e1fb2f0004
:1017a0008f804000a0f92f000f004000a103070028
:1017b0000000e000020035000804e80061ff370087
:1017c0000080eb004f0578004f04be000080fa0057
:1017d00000000600889fbe008a1f78000004780081
:1017e000e0c6b300804f5100c100320015003c003c
:1017f0006b405000804f5100240032000a003c0032
:1018000070405000804f5100fa00320065404000a7
:10181000804f51006800320050c2b300804f510029
:101820000b013a000701370040c6b300804f51005a
:101830001b00320065404000804f510004013a0017
:101840001700370030c7b300804f5100e900320065
:1018500007003c0064405000804f510056003200a9
:101860000040e800804f5100f9003a00d3003700f3
:1018700050c7b300804f51004f003200634040001a
:10188000804f5100f2003a004b0037001181e9000f
:10189000820878007800900012417800ea00370052
:1018a00028609000c4c6b300844f500007003a007f
:1018b0001102780064005200800878001002be0017
:1018c0004fabde00860378001100370014c7b30069
:1018d000844f500003003200a4c6b300844f500070
:1018e00006003a0011027800680052008008780073
:1018f0003002be002003be00050037001180e90061
:101900008008780010027800cfa2de00612bb900b9
:10191000049cbe000694be002860900081c6b300ff
:10192000814f50000d00320021c6b300814f50009e
:1019300004003a000402fb00cfa2de00612bb900d4
:101940000800370041c7b300814f50000300320048
:10195000e6c04000814f500004003a00cfa2de00f4
:10196000612bb900049cbe000694be003802be0084
:101970002803be0078009000d1c2b300e00f5200ef
:10198000e08f5a00e00f5b00e08f5b00080035003d
:10199000881090000118a30002003200b1c2b30009
:1019a000030037000108a3004c00320001c2b3005d
:1019b000817178004700370028609000c4c6b300ea
:1019c000844f500006003a00110278006400520073
:1019d000800878001002be006033b80011003700a4
:1019e00014c7b300844f500003003200a4c6b300f4
:1019f000844f500006003a0011027800680052003f
:101a0000800878003002be002003be0005003700c9
:101a10001180e90080087800100278008002eb0055
:101a20006033b800049cbe000694be00286090009d
:101a300081c6b300814f50000d00320021c6b300b3
:101a4000814f500004003a000482fb008002eb004a
:101a50006033b8000800370041c7b300814f500021
:101a600003003200e6c04000814f500004003a00fd
:101a70008002eb006033b800049cbe000694be00f8
:101a8000081090000038a300140032003802be0095
:101a90002803be00e00f5200e08f5a00e00f5b0009
:101aa000e08f5b000d00320080c7b300804f510013
:101ab0000300320080c5b300804f510007003a0098
:101ac0007800900001c3b300817178000000e80045
:101ad000827178000000e80070049800780090009f
:101ae0008081410063049800824078003e00370006
:101af00028619000c3c6b3001180e900834f5100f4
:101b0000220032000a003c00e4c15100834f510022
:101b10002500320083c1e800834f510013003200da
:101b2000e8c15100834f51001e003a000a003700ff
:101b300043c7b300834f51001b003200e6c1410090
:101b4000834f510018003200e9c15100834f51000a
:101b500014003a0005003700800878001000780073
:101b6000485c900008487800410037008008780001
:101b700010007800680a9000cfa2de00612bb90047
:101b80000498be000690be00390037008008780037
:101b90001000780068099000cf91de000288be0036
:101ba000330037001180e9008008780010007800c9
:101bb000680c9000080878002d0037001180e900bb
:101bc0008008780010027800cfa2de00612bb900f7
:101bd000049cbe000694be00780090008081410005
:101be0006304980081c7b300080078006201070011
:101bf0001f0037001180e900800878001005780088
:101c00006a049800d80c90000900e00004003d0030
:101c10000a007800c0fc0700800478000700370045
:101c2000090178008000eb000a007800eb00070053
:101c30000000e000010032008a045000190c9800f6
:101c40000b003700780090008271780006003700a2
:101c500078009000808141000204e00001003a0019
:101c600052c2b300824978000000e8007004980076
:101c70000000eb004f0578004f04be000000060096
:101c8000889fbe008a1f7800000478000800e000ea
:101c90000d003a00688f2100700544008004eb00bd
:101ca000580078000000e00004003200f4ff070054
:101cb0000000e00001003d008084eb008a0f54002a
:101cc000f7ff3a00250037000000220018006000ee
:101cd0008004eb0021003200a80490000f003700c0
:101ce00009015100384090000000fb008900780095
:101cf00068fa07000000e00007003c0028009000a0
:101d00004004980060049800500c98001890a000bf
:101d10008084eb001100370080844400480190006b
:101d2000828f5400eeff3900280090004004980094
:101d30009800780002c020000281600001003a0093
:101d40003800900001e8a30002003200600498000f
:101d500001003700500c98008004eb000900780067
:101d60004f0578004f04be0000000600889fbe00ab
:101d70008a9fbe0080047800010478002c003700a0
:101d8000c800900068009000808f50000400390067
:101d900008007800b10007000000e00037003500bf
:101da000004020001800600009003200a10020005f
:101db000090078009f000700800578000b00e00014
:101dc00003003200618514000a85450004003700d5
:101dd0000900780050fc0700000578008005eb0042
:101de00048009000e8009000808050008a8f5000ea
:101df00002003100010578008005eb000a0178003f
:101e0000890078001bfc0700480090000a00400091
:101e1000400498000b00e000040032000800780045
:101e200097ff07000000e00014003a008a84440095
:101e30001904e000d2ff3a00008020001800600082
:101e400006003200080078008dff0700800078004f
:101e50000080eb000100e00009003a0001c0200012
:101e6000988060000000eb00050032004800900000
:101e7000600498000000eb00010037000080eb00d8
:101e80004f05be004f04be0000000600889fbe0044
:101e90008a9fbe008c9fbe008e1f780000067800cf
:101ea0000104780002007800830478000881b900fa
:101eb000020778000200e000420032000800e00063
:101ec0004100320082057800c9009000690090004e
:101ed000808f500004003900090078005f0007007f
:101ee0000000e000290035000040200019006000db
:101ef0000a0032000b017800a10020000c007800dd
:101f000036000700800678000d00e0000600320071
:101f1000610516000a854600040037000b057800ad
:101f20008006eb00010037000b05780049009000a7
:101f3000e9009000808050008a8f5000020031003c
:101f4000010578008006eb000a0178008c0078001b
:101f5000c8fb07008a855500490090000a00400030
:101f6000c00498000d00e000040032000900780071
:101f700043ff07000000e00004003a000b00e0000f
:101f8000020032000a064600cfff37000080200022
:101f900019006000020032000900780038ff0700d5
:101fa00000c02000190060000200320049009000cb
:101fb000e00498008b055700110009008885d800bf
:101fc000010037000000eb004f0778004f06be000d
:101fd0004f05be004f04be0000000600030037009e
:101fe000b0cf1000050032000201e9008001780046
:101ff0000200e000faff3a0000000500030078004c
:1020000000000600020037000304e0000600320072
:102010000001780002007800b041780081cf5100c3
:10202000f9ff3a00010037000001eb0002007800e0
:10203000000006000001eb0000027800b0417800cb
:1020400081cf510001003a00040178000304e00050
:10205000f9ff3a000200780000000600889fbe00e9
:102060008a1f780000047800c80090006801900082
:102070000000eb00828f50003c003900180078000f
:102080002200290002016000e20f51000700320027
:10209000012024000000e00001003d00012020009c
:1020a000008c70000080eb0030003700020026003a
:1020b00002006000820f500009003a0038009000d2
:1020c000808f50000600390008007800ecfe070001
:1020d000800078000080eb000100e00023003a005f
:1020e0001805780000c020000000650018003a00c4
:1020f000a80490006002200008004000808f540077
:1021000013003a000020200030fb07002004980054
:102110000000e00005003a002904980049049800f6
:102120008904e80039049800080037000a60a0001c
:102130000a0c7800400498000120200080804000b4
:1021400031049800400c9800500c9800f9010700e9
:102150002800900050049800380090006004980017
:1021600000002600180c70000000eb004f057800fe
:102170004f04be0000000600fc874700889fbe0099
:102180008a9fbe008c9fbe008e1f780000067800dc
:1021900080c5b30080cf50000a0032007740400075
:1021a00080cf50000a0032006940400080cf5000cc
:1021b0000b003200309a210080bf9f00ae0020004b
:1021c0000a0037002299210082bf9f0006003700d5
:1021d000339a210083bf9f008e0020000300370048
:1021e000349a210084bf9f000e0120003c02be00f3
:1021f0002c03be000605be000404be0040c6b300aa
:1022000080cf5000030032006540400080cf500076
:102210000b003a00e00f5200e08f5a00e00f5b0025
:10222000e08f5b0006003d006000b8006011b80060
:10223000040450008584580006055900878559001c
:10224000e80f57000400320040002000f00f570054
:1022500038003a000100370030002000e00f540041
:10226000e08f5c00e00f5d00e08f5d0004003a004d
:10227000dc0890008d0120000100e0000600320023
:102280008e00e900888060008fba9700e5c0780072
:10229000f1ef9f007d012000800078008100e900bf
:1022a000050033008b05d1000a85d3008984d30053
:1022b0000884d300f9ff3700089ebe000a96be00ce
:1022c000120037008d06e9008e00e900848060006e
:1022d0000fb99700e2c1780082fd2f000f01410085
:1022e00003f17e00800078008100e90005003300e2
:1022f0008783d1000683d3008582d3000482d30074
:10230000f9ff3700049ebe000696be003c02be00e8
:102310002c03be00e00f5200e08f5a00e00f5b007c
:10232000e08f5b008b0034000d00e000e5ff3c0017
:10233000880037002c60900081c6b300814f5000a8
:102340000b00320006003c000004e00008003200f0
:10235000e6c05000814f50004e003a0004003700a4
:10236000c1c6b300814f50004a003a002100370037
:102370000800e00004003a005c0890008d01200095
:102380000000e00006003200110009000e84d800b1
:102390000fb99700e2c07800f1ef9f007d012000a7
:1023a000110009000e84d8000a003700110009004e
:1023b0000e04d8008d06e9000e81b9000204540015
:1023c0008fb8970061417c0081fd2f008f80400015
:1023d00082f07e00000478000800e0000200320075
:1023e0000d00e000f1ff3c00cfc4de00614db900fc
:1023f00025003700e00f5400e08f5c0004003a0035
:102400005c0890008d0120000000e0000700320011
:102410006171b9000800be00aaf907008fb99700e2
:10242000e3417800f3ef9f007d0120006171b90066
:102430000800be00f0f907000b0037006171b90019
:102440000800be00ac0107008d06e90000f1b900ec
:10245000020454000fba9700e4427c0084fd2f0070
:102460000f02420005f27e000004be00e00f5000a3
:10247000e08f5800020032000d00e000efff3c004a
:102480004fcdde008a057800089ebe000a96be0089
:1024900030003700e00f5400e08f5c00e00f5d007b
:1024a000e08f5d0004003a005c0890008d01200080
:1024b0000000e000090032006172b900612bb90030
:1024c0000800be000a01be00400207000fba9700d4
:1024d00064427800f4ef9f007d0120006172b90032
:1024e000612bb9000800be000a01be0030020700df
:1024f0000d0037006172b900612bb9000800be0001
:102500000a01be00350207008d06e90000f2b9009d
:10251000040454008fba970065427c0085fd2f00ab
:102520008f82420084f27e00009ebe000296be00b2
:102530003c04be002c05be00e00f5400e08f5c00a0
:10254000e00f5d00e08f5d00020034000d00e00050
:10255000e8ff3c00e80f570010003a000c10900014
:102560000038a3000d003200f78f560006003e0031
:1025700085fd2f008f824200e5c07e0000c3b300be
:1025800080cf5000050032008d06e90002c3b30081
:1025900081fd2f008f80400082f07e007881160040
:1025a000120e98006c00900083fd2f008f81410077
:1025b0008d8041002ffa07001c089000dc08900075
:1025c000810f500006003d0000805000000e980072
:1025d0000c1090000040a100001698000f0037007a
:1025e0000100e0000d003d008c109000f4806000c0
:1025f000f08f500009003a007c099000fc00900028
:10260000810051000c099000828050000080500031
:102610004240a90001003400000e98004f077800e6
:102620004f06be004f05be004f04be00cf01b100f3
:10263000000006000400fa00889fbe008a9fbe00ca
:102640008c1f78000004780001067800f80d9000d7
:10265000780090008085550008089000808555001e
:102660001808900080855500280890008085550046
:1026700038089000808555004808900080855500f6
:102680000002220090bf9f0000032300a0bf9f0014
:10269000081090000028a30015003a000b00e0008d
:1026a000130034000b0578008a047800e20f55000f
:1026b0000100360029002000c801900009017800bf
:1026c000ee8057005800900003000100500498006d
:1026d0000000e0008c003200680890000900400013
:1026e000600c9800090555004240a900eeff3c002f
:1026f000780190000200e0000c003400c801900056
:102700008c007800580090000300010050049800ed
:102710008080eb000000e0007c003200e8089000c0
:102720007800900000804000600c9800880c9000b9
:102730000900e0001100340009057800e28f540020
:10274000010036002a002000c80190000a0178002c
:10275000ec805700580090000300010050049800de
:102760000000e00068003200680890000a004000a5
:10277000600c98008a845400edff3700180990001f
:102780000200e0000c003400c8019000e800900056
:102790005800900003000100500498008080eb0076
:1027a0000000e00059003200e8089000180890008e
:1027b00000804000600c9800a80c90000900e00028
:1027c0001100340009057800e28f54000100360042
:1027d0002a002000c80190000a017800ec80570010
:1027e0005800900003000100500498000000e00031
:1027f00045003200680890000a004000600c980014
:102800008a845400edff3700380990000200e00090
:102810000e003400e800900018089000808040000e
:10282000c801900058009000030001005004980077
:102830008080eb000000e00034003200e8089000e7
:102840003808900000804000600c9800c80c900090
:102850000900e0001100340009057800e28f5400ff
:10286000010036002a002000c80190000a0178000b
:10287000ec805700580090000300010050049800bd
:102880000000e00020003200680890000a004000cc
:10289000600c98008a845400edff37000810900007
:1028a0008000eb000028a300180032000b00e000bd
:1028b000160034008b04780009057800e28f54007c
:1028c000010036002a002000c80190000a017800ab
:1028d000ee8057005800900003000100500498005b
:1028e0000000e00008003200680890000a00400084
:1028f000600c98008a8454004240a900eeff3c001e
:102900008000eb00010037008080eb0001007800c0
:102910004f0678004f05be004f04be000080fa004d
:10292000000006000108780000000600c0532100e6
:1029300061003700881f7800c89f21001804e0005c
:1029400003003a00f9ff070020c0b300004c7800f4
:102950004f04780000000600889fbe000004780045
:1029600008007800c6fc07008004780000042000fe
:10297000180060000200320028009000aef8070046
:102980000000eb0020049800384090000004e000b4
:10299000050035000000fb000bf707000000e00019
:1029a000010032008084eb00181090000000e0006d
:1029b000080032000df707000000e00001003200bf
:1029c0008084eb00181090009bf807000000eb00db
:1029d0001014980000082000180060001500320054
:1029e0000001eb006000b800838f21000202d000dc
:1029f00063027a00880f520005003a000000400090
:102a000081804800008041000008eb00060037008c
:102a100061004000e08048000201e800e80f50003b
:102a2000e08f5800f0ff3a000800780082f80700b5
:102a30000e003700000c780000c0eb003044980016
:102a40006002200008004000200498004004980024
:102a500050049800400c980060049800500c9800b6
:102a60007004980076004400000c9800090078007b
:102a70004f04be0000000600881f78000004eb0031
:102a80006140b800e2ff2f00f3ff2f00290007008c
:102a900062902100620078000000e0000100320036
:102aa000adff07000804e800e80f5400f4ff3a0007
:102ab0004f04780000000600010020000100e00043
:102ac00008003200010080000100e0000500320033
:102ad0008100e900010088008100d0000200800030
:102ae00000b178000000060000c0da000000060017
:102af00000c0da0000000600839f68000100e000cb
:102b000002003d0060001000e08018000300e000bb
:102b100002003d0060011100e081190036f8070055
:102b20004f00e00002003b0060001000e080180051
:102b300000000600020ab900001bb9000200b8003c
:102b4000810042008100430000000600889fbe0013
:102b50008a9fbe0030044200b0844a0030054b001a
:102b600090854b006000b1000898be000a90be003e
:102b70000440e10005c8e10006d0e10007d8e1000b
:102b800002003100680040001008e8004f05be0058
:102b90004f04be0000000600889fbe008a9fbe0052
:102ba0003004be002005be000418540005985c00e7
:102bb00006185d0007985d00110020000440e10048
:102bc00005c8e10006d0e10007d8e10001003900a6
:102bd0008000eb00108810004f05be004f04be00bf
:102be000000006001200fa00889fbe008a9fbe0007
:102bf0008c9fbe00e0b79f00f1b79f0082bf9f008f
:102c000093bf9f000605be000404be000000eb0059
:102c1000d0b79f00c0b79f00b0b79f00a0b79f007c
:102c200090b79f000006eb005fb19700cfb0970010
:102c3000820141003fb097000200e00004003d0027
:102c4000370007007e805700c0ff070003003700f1
:102c5000330007007e805700cfff0700dfb69700e4
:102c60000d00e0000c0035006fb29700ffb2970036
:102c70000fbb97009fbb97001000200001002000b1
:102c80006011b800000272008182720002037300ba
:102c9000838373001b0007000c06e800010420007a
:102ca000810f5600e0ff3a000d00e00004003d00f7
:102cb0000802be000a03be007e805700a3ff070083
:102cc0005fa897000000e00005003a001fb29700df
:102cd000afb297003fb39700cfb39700090007004a
:102ce0006fb09700ffb097000fb997009fb997009a
:102cf0004f06be004f05be004f04be000080fa0024
:102d0000000006000100070000000600a4b79f00b5
:102d1000b5b79f00c6b79f00d7b79f000000060059
:102d20004f09de0082817100b3b79f004f01de00c2
:102d30008180400082807000a1b79f008fb0970013
:102d40004f09de00000040000200700090b79f00b5
:102d50007fa897004f01de008180400082807000d4
:102d600081b79f000d0007004f3ade0000004000d1
:102d700004007000f0af9f0008000700040242004a
:102d800085824a0006034b0087834b00dfff070064
:102d90000802be000a03be00000006002fb2970022
:102da000bfb297004fb39700dfb397000000060053
:102db000881f780018002000881f780089ff07000e
:102dc0008f87e9004f04780000000600801feb00a9
:102dd00084ff07008f87e90000000600889fbe007f
:102de0008a9fbe00e00f5000e08f5800e00f5900ae
:102df000e08f59000c003d006044b8006055b800f9
:102e00000000540081805c0002015d0083815d0050
:102e1000180020001500070008003d0018000700fa
:102e20000004eb00050037000004eb000f00070072
:102e300002003d001200070018002000dcff070020
:102e40000800e000060032006022b8006033b800dd
:102e50000000520081805a0002015b0083815b0008
:102e60004f05be004f04be0000000600e00f5200f8
:102e7000e08f5a00e00f5b00e08f5b00000006006f
:102e80006044b8006055b8000402540085825c00bc
:102e900006035d0087835d0000000600889fbe007a
:102ea0008a9fbe008c1f7800e00f5000e08f580012
:102eb000e00f5900e08f59000d003d006044b8005c
:102ec0006055b8000000540081805c0002015d0084
:102ed00083815d001c0020000820e10009a8e100ba
:102ee0000ab0e1000bb8e1000d003d00080037001a
:102ef0000006eb00e00f5200e08f5a00e00f5b008d
:102f0000e08f5b0006003d006044b8006055b800eb
:102f10000402540085825c0006035d0087835d0027
:102f2000aaff07000c00e000060032006022b80093
:102f30006033b8000000520081805a0002015b003b
:102f400083815b004f0678004f05be004f04be0032
:042f50000000060077
:020000040000fa
:102f540025750000002500003032000058000000f4
:102f64004f4b00000d0a00000045000052520000c3
:102f74004f5200000d0a000000620000757300004b
:102f840079200000702e00002e2e00000d0a000093
:102f94000072000065610000647900000d0a000001
:102fa400006900006e760000616c00006964000036
:102fb4000d0a0000002b000043490000505300009c
:102fc400544100004d410000430000002b43000029
:102fd40049500000415000004d41000043000000f2
:102fe4002b4300004950000053540000415f00008f
:102ff400002b00004349000050410000505f0000d6
:10300400002b0000435700004c410000500000001a
:103014002b430000575300004150000000460000bd
:10302400414900004c0d00000a0000002b43000041
:10303400574a0000415000005f4300005552000011
:10304400005700004946000049200000434f00009b
:103054004e4e00004543000054450000440d00005e
:103064000a000000574900004649000020440000bf
:1030740049530000434f00004e4e000045430000fa
:10308400540d00000a0000005749000046490000a2
:10309400204700004f54000020490000500d00005c
:1030a4000a0000002c4300004f4e00004e45000073
:1030b40043540000002c0000434c00004f53000018
:1030c40045440000002b0000434900005053000019
:1030d40054410000545500005300000053450000c3
:1030e4004e440000204f00004b00000053450000f8
:1030f4004e44000020460000414900004c000000fe
:103104002b43000049500000444f00004d41000093
:10311400494e0000002b000049500000440000000c
:1031240041540000000d00000a000000415400005a
:1031340045000000415400002b520000535400008d
:1031440000410000542b0000474d000052000000d5
:10315400415400002b55000041520000545f000010
:10316400003d0000002c0000382c0000312c000031
:10317400302c000030000000415400002b520000ad
:10318400465000004f570000455200003d0000002b
:10319400415400002b52000045530000544f0000de
:1031a4005245000000410000542b0000435700002a
:1031b4004d4f0000444500003d0000004154000014
:1031c4002b4300004950000053540000414d0000bf
:1031d400414300005f430000555200003f000000df
:1031e400415400002b4300004950000041500000ae
:1031f4004d410000435f000043550000523f000072
:1032040000410000542b00004349000050530000cb
:10321400544100005f430000555200003f0000008d
:10322400415400002b43000049500000415000006d
:103234005f430000555200003f000000415400006d
:103244002b4300004950000053540000414d00003e
:10325400414300005f0000003d2200000022000006
:1032640000410000542b000043490000504100007d
:10327400504d0000414300005f0000004154000035
:103284002b4300004950000053540000415f0000ec
:1032940000410000542b000043490000504100004d
:1032a400505f000000410000542b00004357000011
:1032b4004c410000504f0000505400003d310000cc
:1032c4002c3100003237000000410000542b000074
:1032d400435700004c4100005000000041540000de
:1032e4002b430000574a0000415000005f000000db
:1032f400222c0000220000002c22000000410000cb
:10330400542b0000435700005141000050000000be
:10331400415400002b430000574a00004150000074
:103324005f430000555200003f000000415400007c
:103334002b43000057410000555400004f43000048
:103344004f4e00004e3d00000031000000300000f0
:1033540000410000542b0000435700004c4900007a
:1033640046000000415400002b4300005753000066
:10337400415000005f430000555200003f00000030
:10338400415400002b4300005753000041500000fb
:103394005f000000222c0000002c0000004100000f
:1033a400542b000057500000533d00000041000022
:1033b400542b000043490000504d000055580000b4
:1033c4003d000000415400002b4300004950000020
:1033d400444900004e4600004f3d0000310000000b
:1033e400415400002b4300004950000053450000a5
:1033f40052560000455200003d3100002c000000f0
:10340400415400002b430000495000005345000084
:1034140052560000455200003d30000000410000bb
:10342400542b00004349000050530000544f000047
:103434003d000000415400002b43000049500000af
:103444005354000041540000555300000041000053
:10345400542b000043490000505300005441000025
:10346400525400003d00000022540000435000006c
:1034740000220000554400005000000022530000c8
:10348400534c000000410000542b0000434900004d
:10349400504300004c4f0000534500003d00000025
:1034a400415400002b4300004950000053450000e4
:1034b4004e4400003d000000415400002b43000036
:1034c40049500000535300004c530000495a000077
:1034d400453d000000410000542b0000434900001a
:1034e400504400004f4d0000414900004e3d000093
:1034f40022000000415400002b500000494e0000ff
:10350400473d000022000000415400002b4300000e
:10351400495500005044000041540000450000009b
:1035240044450000460000004355000052000000de
:1035340045530000502000006d6f000064750000ca
:103544006c650000206900006e69000074200000b2
:103554007375000063630000657300007366000008
:10356400756c00006c790000210d0000004500001e
:1035740053500000204900006e69000074200000d0
:1035840065720000726f0000722e0000205300006c
:103594007461000074750000733a00002025000077
:1035a400640d00000a0000007661000073740000de
:1035b4007761000074650000723600003036000048
:1035c400004e0000455400004745000041520000f1
:1035d40038350000004300006f6e00006e65000087
:1035e4006374000065640000207400006f20000014
:1035f4006e650000747700006f7200006b0d0000b0
:1036040000500000726f0000626c0000656d0000e5
:103614007320000074720000796900006e67000076
:10362400207400006f200000636f00006e6e0000c5
:103634006563000074200000746f0000206e0000b9
:1036440065740000776f0000726b00003a20000080
:10365400256400000d0a000000530000657200009c
:1036640076650000722000006d6f00006465000044
:10367400206500006e610000626c0000656400005b
:103684002e200000436f00006e6e00006563000092
:1036940074200000746f000020250000642e0000d8
:1036a400256400002e250000642e0000256400001f
:1036b4003a250000640d00000a000000507200006a
:1036c4006f6200006c6500006d73000020740000e0
:1036d40072790000696e000067200000746f0000ba
:1036e400206500006e610000626c0000652000002f
:1036f400736500007276000065720000206d0000a2
:103704006f640000653a000020250000640d00008d
:103714000a00000053740000616300006b20000085
:103724006973000020490000444c0000452100005a
:103734000d000000436f00006e6e00006563000022
:10374400746900006f6e00002025000064200000f2
:103754006a75000073740000206200006563000055
:10376400616d000065200000616300007469000061
:1037740076650000210d00000a000000436f000080
:103784006e6e000065630000746900006f6e0000d7
:1037940020250000642000007761000073200000f1
:1037a4006a75000073740000206300006c6f0000f1
:1037b40073650000642100000d0a0000004d000044
:1037c4006f7400006f7200003a200000256300004f
:1037d400200d00000a000000526100007720000064
:1037e4005370000065650000643a00002025000065
:1037f400752000000d0a00000053000070650000f1
:1038040065640000205000006572000063650000dc
:103814006e7400003a200000256400002525000095
:10382400200d00000a0000004469000072650000d9
:1038340063740000696f00006e3a000020660000a7
:103844006f72000077610000726400000d000000d8
:10385400446900007265000063740000696f000031
:103864006e3a000020720000657600006572000068
:10387400736500000d0000005065000072690000cf
:103884006f64000020520000656700006973000047
:1038940074650000723a000020250000580d0000f5
:1038a4000a000000722000007265000063650000d9
:1038b40069760000656400000d0a0000006c0000d9
:1038c40020720000656300006569000076650000f1
:1038d400640d00000a0000004461000074610000ef
:1038e40020720000656300006569000076650000d1
:1038f400643a000020250000732000002825000001
:103904006c7500002062000079740000657300008b
:10391400290d00000a000000636f00006e6e0000b5
:103924006563000074200000726500006365000098
:1039340069760000656400000d0a0000006800005c
:10394400256400000d0a0000006600006972000092
:103954006520000072650000636500006976000060
:10396400656400000d0a000000680000656c00003a
:103974006c6f00000d0a0000004400006174000038
:1039840061200000736500006e740000206f000069
:103994006e200000636f00006e6e0000656300001f
:1039a400746900006f6e000020250000640d0000a3
:1039b4000a0000004461000074610000205300000c
:1039c400656e00007420000045720000726f0000f4
:1039d400720d00000044000065660000617500007f
:1039e4006c740000205300007461000074650000d2
:1039f4000d00000053740000617200007465000043
:103a0400642000004d610000696e0000204c00003d
:0c3a14006f6f0000700d0000000000004b
:020000040000fa
:103a20000400fa00000f7800110798000000eb0076
:103a30000080fa00000006000200fa00004f780043
:103a4000f0c2b3009e40780080cf500008003400e0
:103a500090c3b3009e40780080cf500004003c002b
:103a60009e40780000cdb30000c040001900370030
:103a700000c6b3009e40780080cf5000080034009c
:103a800060c6b3009e40780080cf500004003c0028
:103a90009e40780090cab30000c040000d0037007f
:103aa00000c4b3009e40780080cf5000080034006e
:103ab00060c4b3009e40780080cf500004003c00fa
:103ac0009e40780090ccb30000c040000100370059
:103ad0000040eb000080fa00000006000a00fa0037
:103ae00030079800410798000040eb00004f780035
:103af0000040eb00104798006000b80010079800e5
:103b0000210798003e00900090407800d0c2b3009a
:103b100080cf500025003a0010c0b300004f78005d
:103b20003e0090000000e800300798001e40900022
:103b30000040e800104798001d0037002e0090005c
:103b40006a00b900000178001e0090006000b90012
:103b500000007800000141009e009000a0002000bd
:103b60000008b80001014100820078003e01900089
:103b7000124178000201fb000203b100cf91de0088
:103b8000000041008180490010079800210798003b
:103b90003e0090000000e800300798001e409000b2
:103ba0000040e800104798000100370000000000c6
:103bb0003e00900090407800f0c2b30080cf5000eb
:103bc000050034003e0090009040780090c3b300a0
:103bd00080cf5000d9ff34004e0090000000e0007c
:103be000030032004e0090009e4090000148780093
:103bf0001e4078000004e000050032001e00900026
:103c0000ae00900060001000e08018000200370055
:103c10001e009000ae0090000080fa000000060038
:103c20000a00fa0030079800410798006000b800c9
:103c3000008fbe000040eb004047980013003700a3
:103c40001e01be004418dd00cc10de0081007000b3
:103c50004410dd00008fbe003e0090001040780050
:103c600075ff07000080fb008000eb001e0f400086
:103c70005e9748003e0090000000e8003007980082
:103c80004e4090000040e800404798003e00900001
:103c900090407800f0c2b30080cf5000050034009f
:103ca0003e0090009040780090c3b30080cf500059
:103cb000e3ff34003e0090009040780000c6b3005f
:103cc00080cf5000050034003e0090009040780006
:103cd00060c6b30080cf5000d9ff34003e00900092
:103ce0009040780000c4b30080cf5000050034003d
:103cf0003e0090009040780060c4b30080cf500038
:103d0000cfff34004e0090000000e00003003200be
:103d10004e009000ce409000014878001e00be008a
:103d20000080fa00000006000a00fa001007980060
:103d300021079800320798004307980060c0b3003d
:103d4000004f78000c0037008000eb002e00900040
:103d5000b3ff0700804078003e00900001487800e3
:103d60003e0090000000e800300798002e00900010
:103d700063004000200798001e80fb000000ea005e
:103d80004f00de00004078001e4fe9000004e00014
:103d9000edff3a004e0090000000e000030032000a
:103da0004e00900011c1b300014878000080fa0075
:103db000000006000a00fa0010079800210798008a
:103dc000320798004307980040c0b300004f7800c6
:103dd0000040eb00104798004e0090000000e0000b
:103de000260032004e0090008040eb000148780031
:103df000230037000e00e800800078002e009000bd
:103e000036ff0700804078003e00900001487800af
:103e10003e0090000000e800300798001e4090002f
:103e20000080fb000000e800ae0090000080400031
:103e3000200798004e0090000000e00010003200c3
:103e40004e009000904078001e40900080c04000de
:103e50004e009000014878001e4078000004e00009
:103e6000070032004e009000104078008040e800cb
:103e70004e0090000148780001003700000000006b
:103e80001e80fb000000ea004f00de0000407800ca
:103e90001e4fe9000004e000d6ff3a000080fa005f
:103ea000000006000800fa0010079800210798009b
:103eb000320798002e0090009040780080c2b30036
:103ec00080cf500003003a002e0090000000e80070
:103ed00020079800220220008000eb003e009000a6
:103ee000ebf307008e0078002e009000fbfe070029
:103ef000804078003e009000014878001e40780025
:103f00000080fb000000e800ae0090000080400050
:103f1000200798002e0090009040780020c2b30047
:103f200080cf500003003a002e0090000000e8000f
:103f3000200798000040eb00004f78001b0037007e
:103f40002e0090009040780020c2b30080cf500037
:103f500006003a002e0090000000e8009040780033
:103f6000c0c2b30080cf5000150032001e40780060
:103f7000f34f500007003e001e4078000080fb0019
:103f8000ae009000914078003e019000000041009a
:103f9000114098001e4078000040e800004f780073
:103fa0002e0090000000e800200798002e009000ee
:103fb000104078000004e000e1ff3a000100370003
:103fc000000000002e0090000080e800200798000c
:103fd0008e0078002e009000c0fe07008000780060
:103fe0003e009000310898001e4078000080fb00e1
:103ff0000000e800ae00900000804000200798001c
:104000002e0090009040780020c2b30080cf500076
:1040100003003a002e0090000000e80020079800fe
:104020003e009000780040008001eb000001780025
:10403000ae0090001e0090003bff07002e00900095
:1040400073004000200798008e0078002e0090003a
:10405000a2fe0700804078003e0090006158980062
:104060001e4078000080fb000000e800ae009000d9
:1040700000804000200798008e0078002e009000fd
:1040800096fe0700804078003e009000715898002e
:104090001e4078000080fb000000e800ae009000a9
:1040a00000804000200798008e0078002e009000cd
:1040b0008afe0700804078003e0090000160980072
:1040c0001e4078000080fb000000e800ae00900079
:1040d00000804000200798000080fa0000000600e1
:1040e0000800fa001007980021079800320798008e
:1040f000030037002e0090000000e8002007980021
:104100002e009000104078000004e000050032000e
:104110002e0090009040780020c2b30080cf500065
:10412000f4ff3a002e009000104078000004e000f8
:104130004b0032002e0090000000e800200798009d
:104140000040eb00004f7800090037001e80fb00a4
:10415000ae00900011417800be009000827078009f
:104160001e4fe8002e0090000000e8002007980095
:104170002e009000104078000004e0001100320092
:104180002e0090009040780020c2b30080cf5000f5
:10419000eeff3a002e0090000000e800904078000a
:1041a000c0c2b30080cf5000e8ff3a002e0090005c
:1041b0000080e8009040780020c2b30080cf50001b
:1041c000e2ff3a001e80fb00be0090000041eb00c1
:1041d000827078001e4fe8002e00900063004000bf
:1041e000200798003e009000750040008001eb0021
:1041f00000017800ae0090001e009000cafe07008b
:104200002e00900073004000200798000e00e80088
:10421000800078002e00900030fe0700804078007b
:104220003e009000315898001e4090000080fb0036
:104230000000e800ae0090000080400020079800d9
:104240000e00e800800078002e00900023fe07009a
:10425000800078003e00900061089800010037005f
:10426000000000000080fa00000006000800fa00cc
:104270001007980021079800320798003e00900030
:104280008e01780000017800ae0090001e009000c2
:10429000c8fe07001e4078000080fb000000e80018
:1042a000ae00900000804000200798003e00900083
:1042b000640040008e01780000017800ae0090009c
:1042c0001e00900098fe07000080fa000000060023
:1042d0000800fa00881f780010079800210798004e
:1042e00032079800820020008000eb003e00900022
:1042f000e7f207001e0090000807200000044400b9
:104300008e0078002e009000f4fd070080007800f9
:10431000a02120000088b90000007800800044003f
:104320003e009000110098001e4078000080fb00c5
:104330000000e800ae0090000080400020079800d8
:104340008e0078002e009000e4fd070080007800c9
:104350003e009000210098004f0478000080fa0091
:10436000000006000800fa001007980021079800d6
:1043700032079800e20220008000eb003e0090002f
:10438000c3f207000040eb00004f7800090037003f
:104390001e80fb00ae00900011417800be0090002e
:1043a000827078001e4fe8002e0090000000e800a8
:1043b000200798002e009000104078000004e000d4
:1043c000110032002e0090009040780020c2b3000f
:1043d00080cf5000eeff3a002e0090000000e80071
:1043e00090407800c0c2b30080cf5000e8ff3a0090
:1043f0002e0090000080e8009040780020c2b300ba
:1044000080cf5000e2ff3a001e80fb00be0090000b
:104410000041eb00827078001e4fe8002e009000f3
:1044200063004000200798000040eb00004f780038
:104430000a0037001e80fb00ae009000914078001b
:104440003e01900000004100415098001e4fe800de
:104450002e0090000000e800200798002e00900039
:10446000104078000004e0000b0032002e009000a5
:104470009040780020c2b30080cf5000edff3a009a
:104480002e0090000000e80090407800c0c2b30009
:1044900080cf5000e7ff3a001e80fb00be00900076
:1044a000008040008040eb00415098001e4fe80023
:1044b0002e0090000080e800200798000e00e80021
:1044c000800078002e00900084fd07008040780076
:1044d0003e009000216898001e4090000080fb0084
:1044e0000000e800ae009000008040002007980027
:1044f0000e00e800800078002e00900077fd070095
:10450000800078003e009000411098001e4090000e
:104510000080fb000000e800ae009000008040003a
:10452000200798000e00e800800078002e00900020
:104530006afd0700804078003e00900031689800d6
:104540001e4090000080fb000000e800ae009000dc
:1045500000804000200798000e00e80080007800ee
:104560002e0090005dfd0700804078003e00900026
:10457000416898000080fa00000006000a00fa0076
:10458000889fbe00200798003107980042079800d6
:104590000040eb00104798004e009000104078005b
:1045a0008040780000cdb30000c040001047980064
:1045b0003e00900010407800804078001e4090003f
:1045c0000080fb00120020000010dd000040780099
:1045d00000c07000804078003e00900001487800e4
:1045e0004e0090000080e80040079800030037006c
:1045f0004e0090000000e800400798004e00900038
:10460000104078000004e000050032004e009000e9
:1046100090407800c0c2b30080cf5000f4ff3a0051
:104620004e0090000000e800400798004e00900007
:104630000000e800400798000040eb00004f7800c1
:10464000170037001e4090008084fb001e84fb0092
:104650000e80e800800078004e0090001ffd0700eb
:1046600000417800ae019000a021200000c8b900f0
:104670000000780000804100080040004007b000c2
:10468000024878002e4090000080fb000000e80007
:10469000ce00900000804000400798001e4fe800c8
:1046a0001e407800e34f5000e6ff36004e009000b9
:1046b0000000e800400798001e4090000084fb00c6
:1046c0000e80e800800078004e00900003fd070097
:1046d00000017800ae019000a021200000c0b900c8
:1046e00000007800008041002007b0000208780038
:1046f0002e4090000080fb000000e800ce009000fb
:1047000000804000400798001e4090000084fb009d
:104710000e80e800800078004e009000effc07005b
:1047200000017800ae019000a021200000c0b90077
:1047300000007800008041008007b0000208780087
:104740002e4090000080fb000000e800ce009000aa
:1047500000804000400798001e4090000081fb0050
:104760004e0090009040780000c3b30000c0680085
:104770000080fb000000e9004f00de0000407800f0
:104780002e029000a12120000191b9008200780042
:10479000810042008128b0000080fb0061006000c1
:1047a00000004000110178000210a100020070001a
:1047b000800878004f04be000080fa000000060068
:1047c0000600fa00000f78001107980022079800f1
:1047d0001e0078009e009000510098001e00780096
:1047e000ae009000710098001e0078001000be001e
:1047f0001e01780000099800110998001e00780039
:104800008000eb00210898009e009000100023001b
:10481000808f500005003a009e00780030af2000e5
:10482000008040008040eb00014878000000eb0071
:104830000080fa00000006000600fa00000f780071
:1048400012079800230798001e009000801f780030
:10485000a07a2900801f78001e00780006f3070068
:10486000e48757000080fa00000006000400fa0008
:10487000000f7800214798002e4090000080fb0038
:10488000801f7800d07a2900801f78001e007800f1
:10489000f9f20700e48757000080fa0000000600e4
:1048a0000400fa0010079800c0c5b300004f78005c
:1048b0001c0037001e00900090407800c0c2b3007a
:1048c00080cf50000a0032001e0090009040780017
:1048d00020c2b30080cf5000050032001e009000bf
:1048e00090407800c0c5b30080cf500005003a006a
:1048f0008e007800704280006600400012002000a8
:104900003c3707009e0090001e0090000000e80069
:1049100010079800704280006600400012002000de
:10492000343707001e009000104078000004e000bb
:10493000e0ff3a000080fa00000006000e00fa00d6
:10494000881f780050079800610798006e0090005b
:104950000000e800100798000040eb004047980076
:104960000040eb00004f78006e009000904078000f
:10497000514798001e00900010407800ed4f500005
:1049800005003a001e0090000000e800104078008a
:10499000ea4f500069033200217b29001e0090007d
:1049a0004df1070000f0a7000000ea000000e90058
:1049b0004f00de00404798004e4090000004e000a9
:1049c00013003a00717b29001e00900042f107009d
:1049d00000f0a7000000ea000000e9004f00de0040
:1049e000004f78001e4078000004e00008003a0004
:1049f000f17b29001e00900037f1070000f0a700ae
:104a00000000ea000000e9004f00de00004f7800df
:104a10004e4090000004e0000e003a001e40780076
:104a20000004e0000b003a00b17c29001e00900059
:104a300029f107000000e00006003a00de009000c7
:104a4000e0b0200000804000900078000130a0001d
:104a5000010878004e4090000004e0000e003a008b
:104a60001e4078000004e0000b003a00317d290070
:104a70001e00900018f107000000e00006003a0058
:104a8000de009000e0b02000008040009000780040
:104a90000130a000010878005e009000d000900076
:104aa00030002100808f50005a003a001e00900014
:104ab0009040780010c4b30080cf50000500320051
:104ac0001e0090009040780010c6b30080cf5000c8
:104ad00016003a0030bb80000000e00013003200f6
:104ae0005e409000ed4f5000100036005e40900098
:104af0000080fb006d005000000178001e00900057
:104b0000eb00400030bb80001df1070030bb80008f
:104b1000800078005e4090000080fb006d00500037
:104b2000008040008040eb00014878001e009000ab
:104b30009040780030c5b30080cf500005003200af
:104b40001e0090009040780030c7b30080cf500026
:104b500013003a0040bb80000000e000100032006b
:104b60005e4090000080fb006e0050000001780065
:104b70001e009000ec00400040bb800000f10700e8
:104b800040bb8000800078005e4090000080fb0009
:104b90006e005000008040008040eb00014878002b
:104ba0001e0090009040780030c4b30080cf5000c9
:104bb000050032001e0090009040780030c6b3001f
:104bc00080cf500013003a0050bb80000000e0008e
:104bd000100032005e4090000080fb006f0050002b
:104be000000178001e009000ed00400050bb8000e6
:104bf000e3f0070050bb8000800078005e4090002a
:104c00000080fb006f005000008040008040eb00ff
:104c1000014878005e009000d0009000b0002200b3
:104c2000808f50001e003a001e00900090407800d7
:104c3000b0c2b30080cf500019003a00a20020009b
:104c4000d17d29001e009000b9f007000000e000af
:104c500013003a005e009000a10220008080400016
:104c60001e009000700040008001eb000101780000
:104c7000800078005e0090002bfc070060bb800085
:104c80000000e000060032005e009000a10220005b
:104c90008080400060bb80006200200075f007004b
:104ca0005e009000d0009000c0002200808f500075
:104cb0001e003a001e00900090407800b0c2b30081
:104cc00080cf500019003a0092002000817e290018
:104cd0001e00900096f007000000e00013003a006c
:104ce0005e009000c1032000808040001e00900004
:104cf0006f0040008001eb00010178008000780027
:104d00005e00900008fc070060bb80000000e0002f
:104d1000060032005e009000c10320008080400049
:104d200060bb80006200200052f007005e0090002f
:104d3000d0009000d0002200808f500044003a0044
:104d40001e00900090407800b0c2b30080cf5000a9
:104d50003f003a0082002000217f29001e009000c1
:104d600073f007000000e00039003a001e009000d8
:104d70006c0040009040780090c6b30080cf500097
:104d800012003a005e009000fe0040001e009000fd
:104d9000700040008001eb00010178008000780085
:104da0005e00900003fc070060bb80000000e00094
:104db000270032005e009000fe00400060bb8000d3
:104dc000420020002bf00700210037001e00900059
:104dd0006c0040009040780070c6b30080cf500057
:104de0000b003a005e00900021022000808040000d
:104df0001e009000750040008001eb00010178006a
:104e0000800078005e009000eafb07001000370089
:104e10001e0090006c00400090407800e0c6b30097
:104e200080cf50000a003a005e009000610220002e
:104e3000808040001e009000750040008001eb0063
:104e400001017800800078005e009000d9fb070027
:104e50005e009000d0009000e0002200808f5000a3
:104e600045003a001e00900090407800b0c2b300a8
:104e700080cf500040003a0072002000b17f29002e
:104e80001e0090002af007000000e0003a003a00ff
:104e90001e0090006b0040009040780090c6b30068
:104ea00080cf500013003a005e0090000103200004
:104eb000808040001e0090006f0040008001eb00e9
:104ec00001017800800078005e009000b9fb0700c7
:104ed00060bb80000000e000270032005e00900010
:104ee000fe00400060bb800042002000e1ef0700b0
:104ef000210037001e0090006b00400090407800b9
:104f000070c6b30080cf50000b003a005e009000e6
:104f100041032000808040001e009000740040008b
:104f20008001eb0001017800800078005e009000b5
:104f3000a0fb0700100037001e0090006b0040002f
:104f400090407800e0c6b30080cf50000a003a00dd
:104f50005e00900081032000808040001e009000d1
:104f6000740040008001eb000101780080007800af
:104f70005e0090008ffb07005e009000d000900064
:104f800070002200808f50001f003a001e00900029
:104f900090407800f0c2b30080cf50001a00340077
:104fa0001e0090009040780090c3b30080cf500066
:104fb00015003c0070bb8000100078006101b80053
:104fc00090bb8000a1bb8000800f5100818f5900f1
:104fd0000d00310060bb8000000178009e00900051
:104fe0005e009000a1fc070060bb80006a004000ea
:104ff00060bb880070bb800071bb800091007800ae
:105000008100e800010878001e00900090407800c0
:10501000b0c2b30080cf500025003a005e0090007f
:10502000d000900040002200808f500020003a0005
:1050300062002000318029001e009000bcef0700b4
:105040000000e0001a003a0070bb800010007800f9
:105050006101b80090bb8000a1bb8000800f5100af
:10506000818f59001200310060bb80008000780001
:105070001e00900067004000010178008000780069
:105080005e00900087fb070060bb80002002b0003c
:1050900060bb880070bb80000001780070bb80009e
:1050a000100078000000e8008000eb000089be00de
:1050b0005e009000d000900060002200808f5000c1
:1050c0000f003a0062002000a18029001e0090001d
:1050d00097ef07000000e00009003a005e00900032
:1050e00021042000808040001e0090006c004000e1
:1050f00001017800800078005e00900099fc0700b4
:105100005e009000d000900020002200808f5000b0
:1051100016003a00118129001e0090006eef070072
:105120000000e00003003a0010c0b300004f780018
:105130000e003700a2002000818129001e0090008f
:105140007bef07000000e00008003a0060bb800031
:10515000800078001e0090006a0040000101780085
:10516000800078005e009000ddfb07005e0090008c
:10517000d000900020012300808f500018003a00da
:105180001e00900090407800b0c2b30080cf500065
:1051900013003a001e0090000000e80090407800e4
:1051a000f0c2b30080cf50000d0034001e0090000c
:1051b0000000e8009040780090c3b30080cf50001a
:1051c00007003c0060bb8000000478001e009000d7
:1051d0000000e8008000eb0040fa0700008cbe00f1
:1051e000318229001e0090003bef07000000e00024
:1051f00012003a005e009000d000900020002200d3
:10520000808f500006003a00de009000e0b02000e1
:10521000008040009000780001a0a0000108780004
:10522000de00900000b02000008040009000780078
:105230000100a000010878002d00370041832900fb
:105240001e00900024ef07000000e00012003a006a
:105250005e009000d000900020002200808f50005f
:1052600006003a00de009000e0b020000080400020
:105270009000780001b0a00001087800de009000e6
:1052800000b0200000804000900078000110a000d5
:105290000108780016003700618429001e00900084
:1052a0000def07000000e00011003a005e009000e2
:1052b000d000900020002200808f500006003a00ad
:1052c000de009000e0b020000080400090007800f8
:1052d00001c0a00001087800de00900000b02000ae
:1052e00000804000900078000120a00001087800b4
:1052f0001e0090000000e800820020004185290087
:105300000bef07000000e0001d003a005e00900077
:1053100002072000000141001e00900010407800ac
:105320008000fb00a02120000088b90080007800e8
:1053300000b22900008040000000410030079800c2
:105340001e009000104078008040780000cdb3002f
:1053500080c040003e009000014878003e00900070
:10536000c00892000100a00041089a003e00900091
:10537000c00892000180a00041089a001c0037007c
:105380001e0090000000e80072002000d185290076
:10539000e7ee07000000e00015003a005e00900014
:1053a00002072000000141001e009000104078001c
:1053b0008000fb00a02120000088b9008000780058
:1053c00000b2290000804000000041004007980022
:1053d000a22120008000eb004e009000acee070000
:1053e0004e009000c00892000190a00041089a0071
:1053f0005e009000d000900010002300808f5000cd
:1054000048003a00a2002000518629001e009000aa
:10541000c7ee07000000e0000a003a001e009000fe
:10542000eb0040005e01900030af20000000410022
:1054300001017800800078005e0090004ffc0700ba
:10544000380037004e4090000004e0003500320084
:105450000040eb00104798000040eb001047980018
:10546000250037001e4090008080fb005e01900008
:1054700030af200000004100104078000081fb00a8
:105480001e4090000080fb00130020000018dd008b
:10549000000161001e4090000080fb00130020000e
:1054a0000018dd000000690000f0a7000000ea001d
:1054b0000000e9004f00de0000417800de019000ae
:1054c000a02120000088b900000078000080410081
:1054d0008028b0008280fb00e1806000100178002d
:1054e0000200a10082807000010878001e40900038
:1054f0000040e800104798001e409000e44f500024
:10550000d8ff3600de00900030af20000080400061
:10551000904078005e01900020af20000000410024
:10552000014878005e009000d000900050002300f9
:10553000808f500019003a00720020000187290076
:105540001e0090007aee07000000e00007003a001d
:10555000de009000e0b02000008040009000780065
:105560000180a000010878000c00370092002000a4
:10557000818729001e0090006dee07000000e0000a
:1055800006003a00de009000e0b0200000804000fd
:10559000900078000190a000010878005e00900063
:1055a000d000900020002300808f50000f003a00b0
:1055b000a2002000218829001e0090005cee070058
:1055c0000000e00009003a0060bb80008000780025
:1055d0001e0090006b0040008001eb00010178008c
:1055e000800078005e009000f2f907004200200081
:1055f000d18829001e0090004dee07000000e00059
:105600002e003a00de00900040af20008080400075
:105610001e009000650040000101780080007800c5
:105620005e0090002afb0700de00900040af2000e3
:105630000080400011c0b30001487800de009000f7
:1056400060af2000008040001000780090089200b9
:1056500000089200e00f5000e08f580008003a0068
:10566000de00900060af2000008040001001780054
:105670005e0090001000be0020099a0031099a00d7
:10568000de00900060af2000008040001002780033
:105690000409920094099200de00900080af20007f
:1056a00000804000100078008000eb000200400005
:1056b00083804800000a9a00110a9a004e40900028
:1056c0000004e0000d003200de009000e0b0200099
:1056d00000804000900078000100a00001087800e0
:1056e000de009000e0b020000080400090007800d4
