:020000040000fa
:080000000002040000000000f2
:020000040000fa
:04000800d40200001e
:020000040000fa
:04000c00ae1a000028
:020000040000fa
:04001000c01a000012
:020000040000fa
:04001400b61a000018
:020000040000fa
:04001800c81a000002
:020000040000fa
:04001c00d40200000a
:020000040000fa
:04002000d402000006
:020000040000fa
:04002400d402000002
:020000040000fa
:04002800d4020000fe
:020000040000fa
:04002c003019000087
:020000040000fa
:040030003215000085
:020000040000fa
:04003400d4020000f2
:020000040000fa
:04003800d4020000ee
:020000040000fa
:04003c008e1800001a
:020000040000fa
:04004000d4020000e6
:020000040000fa
:040044000c17000095
:020000040000fa
:04004800d4020000de
:020000040000fa
:04004c00d4020000da
:020000040000fa
:04005000d4020000d6
:020000040000fa
:04005400d6110000c1
:020000040000fa
:040058008011000013
:020000040000fa
:04005c00d4020000ca
:020000040000fa
:04006000d4020000c6
:020000040000fa
:04006400d4020000c2
:020000040000fa
:04006800d4020000be
:020000040000fa
:04006c00d4020000ba
:020000040000fa
:04007000d4020000b6
:020000040000fa
:04007400d4020000b2
:020000040000fa
:04007800d4020000ae
:020000040000fa
:04007c00d4020000aa
:020000040000fa
:04008000d4020000a6
:020000040000fa
:04008400d4020000a2
:020000040000fa
:04008800d40200009e
:020000040000fa
:04008c00d40200009a
:020000040000fa
:04009000d402000096
:020000040000fa
:04009400d402000092
:020000040000fa
:04009800d40200008e
:020000040000fa
:04009c00d40200008a
:020000040000fa
:0400a000d402000086
:020000040000fa
:0400a400d402000082
:020000040000fa
:0400a800d40200007e
:020000040000fa
:0400ac00d40200007a
:020000040000fa
:0400b000d402000076
:020000040000fa
:0400b400d402000072
:020000040000fa
:0400b800d40200006e
:020000040000fa
:0400bc00d40200006a
:020000040000fa
:0400c000d402000066
:020000040000fa
:0400c400d402000062
:020000040000fa
:0400c800d40200005e
:020000040000fa
:0400cc00d40200005a
:020000040000fa
:0400d000d402000056
:020000040000fa
:0400d400d402000052
:020000040000fa
:0400d800d40200004e
:020000040000fa
:0400dc00d40200004a
:020000040000fa
:0400e000d402000046
:020000040000fa
:0400e400d402000042
:020000040000fa
:0400e800d40200003e
:020000040000fa
:0400ec00d40200003a
:020000040000fa
:0400f000d402000036
:020000040000fa
:0400f400d402000032
:020000040000fa
:0400f800d40200002e
:020000040000fa
:0400fc00d40200002a
:020000040000fa
:04010000d402000025
:020000040000fa
:04010400d402000021
:020000040000fa
:04010800d40200001d
:020000040000fa
:04010c00d402000019
:020000040000fa
:04011000d402000015
:020000040000fa
:04011400d402000011
:020000040000fa
:04011800d40200000d
:020000040000fa
:04011c00d402000009
:020000040000fa
:04012000d402000005
:020000040000fa
:04012400d402000001
:020000040000fa
:04012800d4020000fd
:020000040000fa
:04012c001c120000a1
:020000040000fa
:04013000d4020000f5
:020000040000fa
:04013400d4020000f1
:020000040000fa
:04020800d40200001c
:020000040000fa
:04020c00d402000018
:020000040000fa
:04021000d402000014
:020000040000fa
:04021400d402000010
:020000040000fa
:04021800d40200000c
:020000040000fa
:04021c00d402000008
:020000040000fa
:04022000d402000004
:020000040000fa
:04022400d402000000
:020000040000fa
:04022800d4020000fc
:020000040000fa
:04022c00d4020000f8
:020000040000fa
:04023000d4020000f4
:020000040000fa
:04023400d4020000f0
:020000040000fa
:04023800d4020000ec
:020000040000fa
:04023c00d4020000e8
:020000040000fa
:04024000d4020000e4
:020000040000fa
:04024400d4020000e0
:020000040000fa
:04024800d4020000dc
:020000040000fa
:04024c00d4020000d8
:020000040000fa
:04025000d4020000d4
:020000040000fa
:04025400d4020000d0
:020000040000fa
:04025800d4020000cc
:020000040000fa
:04025c00d4020000c8
:020000040000fa
:04026000d4020000c4
:020000040000fa
:04026400d4020000c0
:020000040000fa
:04026800d4020000bc
:020000040000fa
:04026c00d4020000b8
:020000040000fa
:04027000d4020000b4
:020000040000fa
:04027400d4020000b0
:020000040000fa
:04027800d4020000ac
:020000040000fa
:04027c00d4020000a8
:020000040000fa
:04028000d4020000a4
:020000040000fa
:04028400d4020000a0
:020000040000fa
:04028800d40200009c
:020000040000fa
:04028c00d402000098
:020000040000fa
:04029000d402000094
:020000040000fa
:04029400d402000090
:020000040000fa
:04029800d40200008c
:020000040000fa
:04029c00d402000088
:020000040000fa
:0402a000d402000084
:020000040000fa
:0402a400d402000080
:020000040000fa
:0402a800d40200007c
:020000040000fa
:0402ac00d402000078
:020000040000fa
:0402b000d402000074
:020000040000fa
:0402b400d402000070
:020000040000fa
:0402b800d40200006c
:020000040000fa
:0402bc00d402000068
:020000040000fa
:0402c000d402000064
:020000040000fa
:0402c400d402000060
:020000040000fa
:0402c800d40200005c
:020000040000fa
:0402cc00d402000058
:020000040000fa
:0402d000d402000054
:020000040000fa
:0402d400d402000050
:020000040000fa
:0402d800d40200004c
:020000040000fa
:0402dc00d402000048
:020000040000fa
:0402e000d402000044
:020000040000fa
:0402e400d402000040
:020000040000fa
:0402e800d40200003c
:020000040000fa
:0402ec00d402000038
:020000040000fa
:0402f000d402000034
:020000040000fa
:0402f400d402000030
:020000040000fa
:0402f800d40200002c
:020000040000fa
:0402fc00d402000028
:020000040000fa
:04030000d402000023
:020000040000fa
:04030400d40200001f
:020000040000fa
:04030800d40200001b
:020000040000fa
:04030c00d402000017
:020000040000fa
:04031000d402000013
:020000040000fa
:04031400d40200000f
:020000040000fa
:04031800d40200000b
:020000040000fa
:04031c00d402000007
:020000040000fa
:04032000d402000003
:020000040000fa
:04032400d4020000ff
:020000040000fa
:04032800d4020000fb
:020000040000fa
:04032c00d4020000f7
:020000040000fa
:04033000d4020000f3
:020000040000fa
:04033400d4020000ef
:020000040000fa
:100400002fb320000e7f22000e01880000000000a4
:10041000000020000000e000020032000001200087
:100420002002880014000700b50007000000e0006b
:1004300003003a00e03f21000100200002003700e5
:100440000000200001002000810f70000100320038
:1004500014000700000020000000e000020032004d
:100460000000020000000000ae10020000000000ca
:100470000040da000000fe004440a90040022000d5
:100480000000e0000300320000002000a00188000e
:100490004440a800000006008a1f78008b1f7800e7
:1004a0000000060091018800800478000000eb0045
:1004b0001a003700e284440032a0b4009905ba0063
:1004c000e284440032a0b4009906ba00e2844400f9
:1004d00032a0b4000006eb00476fde00fd07b2005b
:1004e000636ce10003003a00ebff07000000eb0043
:1004f0000a003700606ce10004003a00005deb0088
:100500008b05e900fdff3e00040037006168e10053
:10051000010032000086eb000b00070019c7ba008b
:100520001905ba000e04e00003003a000a00e000da
:10053000e0ff3a0000000600fe07b2009e018800be
:100540008a047800f5ff3700395dba008b05e900b1
:100550000c003200295dba008b05e900080032006a
:100560000c00e00003003a00e284440032a0b40032
:10057000f5ff370019ddba008b05e900faff3a00f4
:100580008904e800e184440032a0b40000000600c1
:1005900082030400000000000e09040000000000b7
:1005a00000000400000000000040da000000fe002f
:1005b0000a00fa0011002000b1bf9f00c0bf9f00d9
:1005c0006a805700040407004fb897000080fa00c3
:1005d000000006000a00fa0051002000b1bf9f0091
:1005e000c0bf9f006a805700fd0307005fb89700f7
:1005f0000080fa0000000600889fbe00800478009a
:10060000805980000000e00004003a000e0007005e
:100610000084eb000000e0000800350088598000ed
:100620000900e00005003200090044000600070050
:100630000000e00001003d000084eb0008007800ad
:100640004f04be0000000600800078000100e000ba
:1006500003003a00000020008059880000000500d7
:100660000080eb0002002000828f500002003e005c
:10067000815988000000eb00000006000800fa0025
:10068000100798002107980032079800000000002a
:100690009111800000102000008060000000e00048
:1006a000fbff3200be009000010f78000e00370003
:1006b0000000000091118000001020000080600008
:1006c0000000e000fbff32002e0090001040780098
:1006d0000000fb00a01188002e0090000000e80040
:1006e000200798001e0fe9001e0078000000e000bf
:1006f000efff3a003e0090000080fa000000060084
:1007000000000500889fbe0000047800010078000a
:100710008204780088017800090178001100200027
:10072000ef000700890f5000010032000004eb00c9
:10073000080078004f04be00000006000000fa0028
:10074000e88157004fb99700a1a42000203820006d
:10075000020007000080fa00000006006200fa00b4
:10076000889fbe008a1f7800000578008104780009
:10077000020478008300780080f92f000f00400009
:10078000510207009a979f00a9979f000000eb0075
:10079000b09f9f001885fb008a04fb000a05ea0051
:1007a0004f55de0050022000808f54000d003200b3
:1007b000e10f55000b003a000a017800880078002c
:1007c0002f9097009f91970003000100a0979f0032
:1007d0000000e0008e0032003f9897000000e80023
:1007e000b09f9f000a04440050022000808f5400f4
:1007f000040032000900e000e6ff3a003f9897004d
:10080000840037000000eb00909f9f00809f9f00b6
:10081000f0979f00e0979f00d0979f00c0979f00a0
:1008200007003700e1b12000010050000000400047
:1008300021b1200061007800df989700010070006e
:10084000d09f9f008804780009047800384578001c
:100850008a00fb00e0b12000060107000000e00074
:10086000f0ff3a00a1c2b300814f55000e003a00dc
:10087000cf8897000180e900c08f9f0010007800aa
:10088000c09f9f000000e00005003d000000ea005e
:10089000c09f9f005f9897000020a000d09f9f00fe
:1008a0000904e8000f003700c09f9f000000eb0024
:1008b00005003700f2ff2700820f500002003200cf
:1008c0006a01b900028040000904780088047800b9
:1008d000b900fb000103b100e98f5000f5ff3600bd
:1008e000c09f9f00e0c2b300984f1000020032008a
:1008f0000080eb0019003700a0c2b300d84f1000f1
:1009000007003a00cf8897000180e900c08f9f0060
:1009100010007800a09f9f000804e8001000370036
:100920000000eb00a09f9f008800780005003700c2
:10093000f3ff2700830f5000020032006a02b90063
:100940000400410001047800880078003101fb00b8
:100950000203b100e90f5100f5ff3600a09f9f0090
:10096000984478008900fb00a0b02000c100070077
:100970000000e000020032000804e8000100370037
:100980008044eb00c97f9f0080c6b30080cf540035
:1009900004003a0098cf14000a003a006640500064
:1009a00006003700c0c6b30080cf540005003a00ef
:1009b00098cf140003003a0065404000c07f9f00bc
:1009c0000804e8001801fb00e3fb2f008f814100c1
:1009d00081f92f008f804000a0f92f000f00400008
:1009e000100007000000e00009003a00e1fb2f00c2
:1009f0008f804000a0f92f000f004000f600070094
:100a00000000e000020035000804e80061ff370044
:100a10000080eb004f0578004f04be000080fa0014
:100a200000000600889fbe008a1f7800000478003e
:100a300030c5b300804f51000800320030c7b3000a
:100a4000804f51000500320051c2b3007800900081
:100a5000814f510017003a00140037001180e9005f
:100a600080087800100578006a049800d80c90007f
:100a70000900e00004003d000a007800890007003a
:100a80008004780007003700090178008000eb003f
:100a90000a007800660007000000e0000100320054
:100aa0008a045000190c9800090037008271780000
:100ab00005003700808141000204e00001003a0097
:100ac00001417800824978000000e8007004980035
:100ad0000000eb004f0578004f04be000000060048
:100ae000889fbe008a9fbe008c9fbe008e1f78002c
:100af0000006780001047800020078008304780082
:100b00000881b900020778000200e00042003200cc
:100b10000800e0004100320082057800c900900022
:100b200069009000808f50000400390009007800af
:100b3000620007000000e0002900350000402000ae
:100b4000190060000a0032000b017800a1002000ab
:100b50000c00780036000700800678000d00e000e9
:100b600006003200610516000a85460004003700c1
:100b70000b0578008006eb00010037000b057800bc
:100b800049009000e9009000808050008a8f50005a
:100b900002003100010578008006eb000a017800b0
:100ba0008c0078002c0007008a85550049009000d1
:100bb0000a004000c00498000d00e000040032006c
:100bc00009007800a50107000000e00004003a00d9
:100bd0000b00e000020032000a064600cfff37009b
:100be0000080200019006000020032000900780037
:100bf0009a01070000c020001900600002003200c6
:100c000049009000e00498008b055700110009008e
:100c10008885d800010037000000eb004f077800fe
:100c20004f06be004f05be004f04be000000060088
:100c300003003700b0cf1000050032000201e900c8
:100c4000800178000200e000faff3a000000050091
:100c500003007800000006008001780002003700e1
:100c6000b15978000201e9000200e000fcff3a00ff
:100c700000000600020037000304e0000600320016
:100c80000001780002007800b041780081cf510067
:100c9000f9ff3a00010037000001eb000200780084
:100ca0000000060080007800010178003104e000b7
:100cb000fdff3a000000510000000600889fbe00c2
:100cc0008a1f780000047800c80090006801900036
:100cd0000000eb00828f50003c00390018007800c3
:100ce0002200290002016000e20f510007003200db
:100cf000012024000000e00001003d000120200050
:100d0000008c70000080eb003000370002002600ed
:100d100002006000820f500009003a003800900085
:100d2000808f500006003900080078004b01070052
:100d3000800078000080eb000100e00023003a0012
:100d40001805780000c020000000650018003a0077
:100d5000a80490006002200008004000808f54002a
:100d600013003a0000202000e7010700200498004b
:100d70000000e00005003a002904980049049800aa
:100d80008904e80039049800080037000a60a000d0
:100d90000a0c780040049800012020008080400068
:100da00031049800400c9800500c9800ca000700cd
:100db00028009000500498003800900060049800cb
:100dc00000002600180c70000000eb004f057800b2
:100dd0004f04be00000006000400fa00889fbe0019
:100de0008a9fbe008c1f78000004780001067800fe
:100df000f80d90007800900080855500080890005c
:100e000080855500180890008085550028089000be
:100e1000808555003808900080855500480890006e
:100e2000808555000002220090bf9f000003230030
:100e3000a0bf9f00081090000028a30015003a00f2
:100e40000b00e000130034000b0578008a047800e2
:100e5000e20f55000100360029002000c801900073
:100e600009017800ee80570058009000030001004f
:100e7000500498000000e0008c00320068089000e8
:100e800009004000600c9800090555004240a90087
:100e9000eeff3c00780190000200e0000c003400fe
:100ea000c80190008c0078005800900003000100f9
:100eb000500498008080eb000000e0007c003200cd
:100ec000e80890007800900000804000600c9800d6
:100ed000880c90000900e00011003400090578003a
:100ee000e28f5400010036002a002000c801900063
:100ef0000a017800ec8057005800900003000100c0
:100f0000500498000000e00068003200680890007b
:100f10000a004000600c98008a845400edff3700fe
:100f2000180990000200e0000c003400c801900095
:100f3000e800900058009000030001005004980061
:100f40008080eb000000e00059003200e8089000cb
:100f50001808900000804000600c9800a80c9000d9
:100f60000900e0001100340009057800e28f540008
:100f7000010036002a002000c80190000a01780014
:100f8000ec805700580090000300010050049800c6
:100f90000000e00045003200680890000a004000b0
:100fa000600c98008a845400edff370038099000e7
:100fb0000200e0000e003400e800900018089000e5
:100fc00080804000c801900058009000030001009c
:100fd000500498008080eb000000e00034003200f4
:100fe000e80890003808900000804000600c9800ed
:100ff000c80c90000900e0001100340009057800d9
:10100000e28f5400010036002a002000c801900041
:101010000a017800ec80570058009000030001009e
:10102000500498000000e0002000320068089000a2
:101030000a004000600c98008a845400edff3700dd
:10104000081090008000eb000028a3001800320078
:101050000b00e000160034008b04780009057800ce
:10106000e28f5400010036002a002000c8019000e1
:101070000a017800ee80570058009000030001003c
:10108000500498000000e00008003200680890005a
:101090000a004000600c98008a8454004240a90075
:1010a000eeff3c008000eb00010037008080eb0089
:1010b000010078004f0678004f05be004f04be00c7
:1010c0000080fa0000000600010878000000060019
:1010d000e09020009b003700881f7800c8b22000f5
:1010e0001804e00003003a00f9ff070020c0b30035
:1010f000004c78004f04780000000600889fbe0076
:10110000000478000800780054000700800478008c
:101110000004200018006000020032002800900047
:10112000940007000000eb00200498003840900075
:101130000004e000050035000000fb001cfd070076
:101140000000e000010032008084eb0018109000e5
:101150000000e000080032001efd07000000e00073
:10116000010032008084eb0018109000810007001d
:101170000000eb0010149800000820001800600028
:10118000150032000001eb006000b800a3a92000a8
:101190000202d00063027a00880f520005003a0074
:1011a0000000400081804800008041000008eb0002
:1011b0000600370061004000e08048000201e800be
:1011c000e80f5000e08f5800f0ff3a000800780068
:1011d000680007000e003700000c780000c0eb002c
:1011e000304498006002200008004000200498006d
:1011f0004004980050049800400c98006004980047
:10120000500c98007004980076004400000c980080
:10121000090078004f04be0000000600881f780017
:101220000004eb006140b800e2ff2f00f3ff2f0045
:10123000ed00070082aa2000620078000000e000b4
:1012400001003200adff07000804e800e80f540079
:10125000f4ff3a004f04780000000600889fbe00ab
:10126000000478000800e0000e003a008004eb0063
:101270008800d000a0a92000610078000000e000f4
:1012800004003200f5ff07000000e00001003d000f
:101290008084eb000804e800e80f5400f4ff3a00f3
:1012a0002500370000002200180060008004eb00d9
:1012b00021003200a80490000f00370009015100fe
:1012c000384090000000fb0089007800ebfc07002c
:1012d0000000e00007003c00280090004004980057
:1012e00060049800500c98001890a0008084eb00d7
:1012f000110037008084440048019000828f540020
:10130000eeff390028009000400498009800780013
:1013100002c020000281600001003a003800900005
:1013200001e8a300020032006004980001003700c9
:10133000500c98008004eb00090078004f04be00b8
:1013400000000600010020000100e000080032005b
:10135000010080000100e000050032008100e9008a
:10136000010088008100d0000200800000b17800f8
:10137000000006000000e0002f003200c0017800ed
:10138000e38f51002c0036000308a3002a003a0026
:10139000315980000100e00002003200810f50004e
:1013a0000400310011009800305988001600370001
:1013b00082007800110190000200e000020032007b
:1013c000800f5100faff390011027800848240003a
:1013d000850f500018003900808f520003003a003a
:1013e0008308420001007800070037000200e00097
:1013f0000300320083014000830f51000e003900ca
:101400001200980090009800900090000100e00009
:101410000900320010014000828f500006003a009f
:1014200042b220000009eb001001780011084100d1
:10143000910090001100980000000600889fbe00f7
:1014400000047800215980000100e0000200320011
:10145000010078000d0037003159800060b2200093
:1014600004003700910f5400250036000180e80089
:10147000910090000100e000faff3a0010003700f0
:10148000920f54001e0036000280e8001001780020
:101490000200e000faff3a001101780031598000a3
:1014a00060b2200004003700910f54001400360091
:1014b0000180e80091009000828f5000faff3a000e
:1014c00079598000888f5400010031008804780029
:1014d00009007800360007000000e00004003a0030
:1014e000888f5400050032008904d100f5ff3700d1
:1014f000091878009fff0700d2ff37000000eb00bb
:101500004f04be0000000600881f780063044000fe
:101510000800a1008000eb00800f5400210036007d
:10152000e30f540001003e0048002000080078004e
:10153000c2ff07008000eb000000e000190032004d
:10154000900078009101780064815100880f51006b
:1015500003003100110190000208780007003700f5
:101560000881400002087800910190001301980062
:101570001001780011091400880878001001780023
:101580000000eb000200e000040032009201900035
:101590000300e000010032000280e80020598800ca
:1015a0008180e800010078004f0478000000060008
:1015b000800078000000eb000100e000050034002e
:1015c000010078000cfc0700e10f400001003a0028
:1015d0000000eb000000060000c0da00000006007a
:1015e00000c0da0000000600020ab900001bb900c2
:1015f0000200b800810042008100430000000600a4
:020000040000fa
:101600000d0a0000005300007461000072740000b5
:1016100065640000005700006f7700002c20000078
:101620004920000072650000616400002074000021
:1016300068610000742000006173000020610000f8
:081640002025000068000000f5
:020000040000fa
:101648000200fa001028ef001228ef001428ef001b
:101658001628ef001828ef001a28ef001c28ef00c2
:101668001e28ef002028ef002228ef002428ef0092
:101678002628ef002828ef002e28ef000000eb00b6
:10168800000f7800070037001e0078008000400037
:1016980060992000008040008000eb00010878007d
:1016a8001e0fe800200420009e007800808f500064
:1016b800f5ff36000000eb00000f78000700370048
:1016c8001e007800800040006095200000804000e7
:1016d8008000eb00010878001e0fe8001e0078006b
:1016e800ff0f5000f6ff36003028ef003228ef00d9
:1016f8003a28ef003c28ef003e28ef000080fa006f
:10170800000006000000fa0010408000e20f5000c0
:1017180023003200e20f500005003e000000e00008
:101728000a003200e10f50000f003200810037003c
:10173800e40f500062003200e40f50002700390027
:10174800e50f5000330032007a00370042050700e9
:1017580010002000104088003628ef00300d2000cf
:10176800300c880073003700b04180000000e800aa
:10177800b0418800b0418000ef0f500005003600ee
:1017880020002000104088003628ef008621ef0056
:1017980068003700100020001040880065003700fe
:1017a800b04180000000e800b0418800b0418000ee
:1017b800e70f500006003600300020001040880077
:1017c8003628ef00300d2000300c88005900370013
:1017d800200020001040880056003700b0418000eb
:1017e8000000e800b0418800b04180000000e0003f
:1017f8000500320050002000104088003628ef0015
:101808008621ef004b003700300020001040880090
:1018180048003700b04180000000e800b04188006f
:101828005000200010408800c04180008000400027
:10183800a0aa200000804000100078000000e0000e
:101848000c003a00b04180000000e0003400320093
:10185800c04180000000e800c0418800400020002e
:10186800104088003628ef00300d2000300c88002a
:1018780030003700c041800080004000a0aa20004e
:101888000080400010007800e10f500026003a0068
:10189800b0418000e20f500025003600c0418000b2
:1018a8000000e800c0418800400020001040880087
:1018b8003628ef00300d2000300c88001d0037005e
:1018c800b04180000000e800b0418800b0418000cd
:1018d8000000e0000f003200c1418000000220003b
:1018e800808f500006003a000228ef003428ef00ed
:1018f8003828ef008621ef00e40407000d003700c8
:1019080050002000104088003628ef008621ef00a4
:10191800080037004000200010408800050037000c
:10192800000000000300370000000000010037003d
:10193800000000000080fa00000006000400fa0021
:10194800881f7800100798000000eb00000f78004f
:101958002028ef002428ef002228ef002628ef0097
:10196800410037001e007800e70f50000e003c00d1
:101978001e007800000040009e009000008040009b
:1019880010047800710020001e8050003c00070001
:1019980000c0b9008000780000418000008040004d
:1019a800004188002f0037001e007800ef0f50001c
:1019b8000e003c001e007800000040009e009000d1
:1019c8000080400010047800f10020001e805000c4
:1019d8002b00070000c0b90080007800104180008b
:1019e80000804000104188001e0037001e0078006b
:1019f800f70f50000e003c001e0078000000400069
:101a08009e009000008040001004780071012000c2
:101a18001e8050001a00070000c0b900800078003e
:101a28002041800000804000204188000d003700e0
:101a38001e007800000040009e00900000804000da
:101a480010047800f10120001e8050000c000700ef
:101a580000c0b9008000780030418000008040005c
:101a6800304188001e0fe8001e007800ff0f50006c
:101a7800bcff34004f0478000080fa000000060024
:101a88000400fa001007980010002000000f7800ea
:101a9800060037001e00780000004000000f7800a4
:101aa8001e0090000000e900100798001e0090003a
:101ab8000000e000f7ff3a001e0078000080fa00fe
:101ac800000006000400fa00100798000000eb0070
:101ad800000f7800010037001e0fe8001e0090007c
:101ae8001e004000104078000004e000faff3a00b1
:101af8000080fa00000006000400fa0010079800b1
:101b08000000eb00000f7800010037001e0fe8000e
:101b18001e0090001e004000104078000004e00005
:101b2800faff3a001e0090009e0078009b02070012
:101b380000b0280021002000980207000080fa0069
:101b4800000006000000fa00d2c2a800d2e2a800f5
:101b5800c002a900c022a900c042a900c062a90011
:101b6800c082a900c0a2a900c0c2a900c0e2a90001
:101b7800c422a900d302a800d322a800d342a800f7
:101b8800d362a800d382a8000080fa0000000600f3
:101b98000200fa00804080000000e80080408800d1
:101ba800204080000000e80020408800904180002c
:101bb8000000e80090418800604180000000e000db
:101bc80017003200504180000000e80050418800b2
:101bd8005141800090882000808f5000100036000e
:101be8000000eb00000f7800070037001e007800a7
:101bf8008000400060992000008040008000eb00d9
:101c0800010878001e0fe800200420009e007800dc
:101c1800808f5000f5ff36002c28ef003c28ef009d
:101c280091418000e00020000001780011000900c7
:101c38008280d8008000fd000000e00004003a0027
:101c4800a04180000000e00001003200adfe070066
:101c58002140800090012000000178001100090057
:101c68008280d8008000fd000000e0002c003a00cf
:101c7800a116800000042000008060000000e00041
:101c880006003a00404080000000e00003003a00ef
:101c980010002000404088000b003700a11680008b
:101ca80000042000008060000000e0000600320010
:101cb800404080000000e000030032000828ef00e8
:101cc8001000200050408800a11680000008200065
:101cd800008060000000e00006003a0060408000dc
:101ce8000000e00003003a00100020006040880077
:101cf8000b003700a116800000082000008060005b
:101d08000000e00006003200604080000000e000b3
:101d1800030032000c28ef001000200070408800fb
:101d28002140800000712200808f500002003a009c
:101d3800c442a800060037002140800000e22400c9
:101d4800808f500002003a00c442a9000428ef0026
:101d58000080fa00000006000000fa00d041800070
:101d680000f0a7000000ea000000e9004f00de00d4
:101d7800d04188000080fa00000006000000fa0048
:101d8800d041800000f0a7000000ea000000e90050
:101d98004f00de00d0418800404180000000e00094
:101da80010003a00e04180000000e00004003a0022
:101db8001028ef002a28ef0010002000604188005a
:101dc800e0418000814080000001400060992000cf
:101dd8000000410001087800e04180000000e800b0
:101de800e0418800e141800020042000808f5000fd
:101df80006003600100020009040880010002000e7
:101e0800404188003c28ef002c28ef000080fa00b1
:101e1800000006000000fa0000408000e20f5000b9
:101e280031003200e20f500005003e000000e000e3
:101e38000a003200e10f50000f003200c3003700e3
:101e4800e40f5000a4003200e40f500042003900b3
:101e5800e50f50005c003200bc0037003028ef006e
:101e6800b04c8000d04088001e28ef0010002000f1
:101e780000408800b5003700804180000000e8007d
:101e880080418800804180008000400060992000e7
:101e98000080400010007800e0408800e1408000a9
:101ea800d040800000805000000eb100e30f4000d9
:101eb80009003500e1408000d040800000805000db
:101ec800000eb100e30f500003003c00200020008a
:101ed800004088009d0037000028ef001000200017
:101ee800b040880099003700804180000000e80079
:101ef8008041880080418000800040006099200077
:101f08000080400010007800d0408800d140800058
:101f1800e0408000008050000007b100e30f40005f
:101f280009003500d1408000e0408000008050006a
:101f38000007b100e30f500003003c003000200010
:101f480000408800810037000028ef0010002000c2
:101f5800b04088007d003700804180000000e80024
:101f68008041880080418000800040006099200006
:101f78000080400010007800e0408800e1408000c8
:101f8800d0408000008050006e005000e30f4000f9
:101f980009003500e1408000d040800000805000fa
:101fa8006e005000e30f500003003c00500020007a
:101fb80000408800650037000028ef00100020006e
:101fc800b040880061003700804180000000e800d0
:101fd8008041880080418000800040006099200096
:101fe8000080400010007800d0408800d140800078
:101ff800e0408000008050006e005000e30f400079
:1020080010003500d1408000e04080000080500082
:102018006e005000e30f50000a003c00f0408000c2
:102028008000400060952000008040008000eb00a8
:1020380001087800f04080000000e800f0408800c7
:102048001a003700d1408000e04080000080500036
:10205800a002b100e30f400010003500d14080001d
:10206800e040800000805000a002b100e30f500063
:102078000a003c00f040800080004000609520008d
:10208800008040001100200001087800f040800026
:102098000000e800f0408800040037001e28ef0028
:1020a8000028ef0010002000b0408800f1408000b8
:1020b80000022000808f500004003a000028ef0042
:1020c80010002000a04088002000370040002000b9
:1020d800004088001d003700804180000000e800b3
:1020e8008041880080418000800040006099200085
:1020f8000080400010007800e0408800e140800047
:10210800d0408000008050006e005000e30f400077
:102118000a003500e1408000d04080000080500077
:102128006e005000e30f500004003c0050002000f7
:102138000040880000000000040037000028ef007d
:1021480010002000b0408800000000000080fa0065
:10215800000006000000fa000f05070079fe0700de
:1021680037fd07000028ef0030b0280055fe0700b3
:10217800d041800000407800614060000080fb0092
:10218800610060004600dd00211680000160a100aa
:102198000100700020168800904080000000e000d8
:1021a800280032000028ef000100370019ff07005f
:1021b800a04080000000e00003003a00b04080002a
:1021c8000000e000f9ff3200a04080000000e000bd
:1021d8001500320060952000d8fd0700c482a900d0
:1021e8000141800000022000808f500007003a0063
:1021f80021418000800a2000808f500002003a00b0
:10220800c4a2a80001003700c4a2a9002041800090
:10221800801f7800b0b02800801f780045f90700bb
:10222800e487570001003700c482a8001228ef0095
:102238001428ef001628ef002828ef003c28ef00ac
:10224800fffc0700504080000000e000050032005d
:102258000a28ef0010002000a04188003228ef0073
:102268000228ef00704080000000e000010032000a
:102278000e28ef004f010700bdff37000000fa00ed
:10228800a0002000001188002222ef002002200078
:10229800401188009560a80021e2a8002342a80008
:1022a8006085200090428800608520008042880078
:1022b800608d200070428800608d20006042880098
:1022c800a04280000010a000a0428800a042800028
:1022d8000090a000a0428800a04280000080a100d9
:1022e800a0428800a04280000000a100a04288000f
:1022f8000080fa0000000600809fbe000000fa007f
:10230800a142800000202000008060000000e00062
:10231800020032009580a9001f0037008580a900bf
:102328001800370090428000104078000080fb00c1
:1023380020118800904280000000e8009042880048
:1023480091428000608d2000808f500002003a008a
:102358006085200090428800a04280000080a10093
:10236800a04288009142800080428000808f500007
:1023780004003a00a04280000090a000a04288001b
:102388000500370011118000002020000080600047
:102398000000e000e3ff32000080fa004f00be00ba
:1023a80000400600809fbe000000fa0018003700b9
:1023b8006042800031118000814078000148780037
:1023c800604280000000e8006042880061428000ae
:1023d80060952000808f500002003a00608d200038
:1023e80060428800a04280000010a100a04288003e
:1023f8006142800070428000808f500004003a00e3
:10240800a04280000000a000a0428800040037001d
:1024180010118000610060000000e000e4ff3a0055
:102428008560a9000080fa004f00be000040060049
:10243800801f78000000fa00101180006200600020
:102448000000e000010032002222a9008c20a9002f
:102458000080fa004f007800004006000200fa00f1
:102468000040eb00004f780070428000104f780069
:10247800704280000000e8007042880071428000cd
:1024880060952000808f500002003a00608d200087
:10249800704288007142800060428000808f500046
:1024a80003003a00a04280000010a000a04288006b
:1024b800a04280000000a100a04288001e407800d1
:1024c8000080fa00000006000600fa00881f780065
:1024d80010079800210798000000eb00000f780013
:1024e80009003700a0428000620060000000e000a0
:1024f8000a003a001e0090001e044000d7ff0700a3
:10250800004c78001e0fe8002e0090009e00780016
:10251800808f5000f3ff39000100370000000000f1
:102528001e0078004f0478000080fa0000000600c2
:102538000200fa00004f78009580a90080428000d0
:102548001e487800804280000000e8008042880031
:1025580081428000608d2000808f500002003a0088
:102568006085200080428800a04280000090a10081
:10257800a04288009142800080428000808f5000f5
:1025880003003a00a04280000080a000a04288001a
:102598009580a8000080fa00000006000600fa00f6
:1025a80010079800210798000000eb00000f780042
:1025b8000a003700a142800000102000008060005f
:1025c8000000e0000a003a001e0090001e004000d3
:1025d800104078001e0fe800d5ff07002e0090007d
:1025e8009e007800808f5000f2ff3900010037000c
:1025f800000000001e0078000080fa0000000600bd
:102608000200fa000000eb00000f7800a1428000f1
:1026180000102000008060000000e000010032008f
:102628001e30a000a1428000002020000080600031
:102638000000e000010032001e40a000a04280001f
:10264800610060000000e000010032001e00a000f0
:10265800a0428000620060000000e000020032003a
:102668001e20a000010037001e10a0001e007800e8
:102678000080fa00000006000200fa00000f78004f
:10268800704280009e00400060952000808f5000be
:1026980008003600704280009e00400060952000cf
:1026a8000000ea0000804000618d20006140780051
:1026b80003003700704280001e0040001040780080
:1026c8000080fa00000006000000fa00a042800026
:1026d800610060000000e0000f003a0071428000d5
:1026e80060428000808f50000500360070428000f4
:1026f80080007800604280000080500007003700aa
:1027080070428000800078006042800000805000a5
:102718000008b000010037000000eb000080fa005c
:10272800000006000000fa00a1428000001020000e
:10273800008060000000e0000f003a009142800035
:1027480080428000808f5000050036009042800053
:102758008000780080428000008050000700370029
:102768009042800080007800804280000080500005
:102778000008b000010037000000eb000080fa00fc
:10278800000006000000fa00a04280000000d1000e
:10279800614060000080fb0000f0a7000000ea0034
:1027a8000000ea004f00de00004078000080fa00d8
:1027b800000006000000fa00a04280004800de0089
:1027c800614060000080fb0000f0a7000000ea0004
:1027d8000000ea004f00de00004078000080fa00a8
:1027e800000006000000fa00101180000080fa00c6
:0427f80000000600d7
:020000040000fa
:1027fc004008000002000000000000004208000039
:10280c0002000000000000004c0800000a0100005b
:10281c0000000000280b0000020000000000000077
:10282c002a0b000002000000000000004408000019
:10283c000200000000000000ea0a00002000000076
:10284c00000000004608000002000000020000002a
:10285c00ffff00004808000002000000000000001c
:10286c00aa0a000040000000020000000000000066
:10287c00000100000000000000000000000000004b
:10288c000001000001000000000100000100010037
:10289c000001000001000000000000000000010029
:1028ac00000000000000000000000000010001001a
:1028bc000001000000000100000100000100010007
:1028cc000000000056090000cc00000000000000d1
:1028dc000008000040000000000000004a08000052
:1028ec000200000002000000010000000a0b0000c2
:1028fc001a00000002000000686a6c00747a4c0038
:10290c00000001000002000004000800001000009c
:10291c00000020002b2d230030000000220a0000b4
:10292c0088000000020000000100000000480a00be
:10293c00490a48000a480a00480a48000a380a00ae
:10294c00000000000000000000000000000000007b
:10295c000000000000000000000000000002080061
:10296c00010170000a710a00700a70000a700a00f6
:10297c00700a60000a000000000000000000000067
:10298c00000000000000000000000000000000003b
:10299c000000020008020200980a99000a980a0036
:1029ac00980a98000a980a00880a000000000000a3
:1029bc00000000000000000000000000000000000b
:1029cc000000000000000000220a4a000a720a00ff
:1029dc0000000000000000000000000000000000eb
:1029ec002c0b000002000000000000002e0b000069
:1029fc00020000000200000004000000240b000094
:102a0c000400000000000000300b00000200000079
:082a1c000000000000000000b2
:020000040000fa
:102a24000000fa00d0132000000c8800d01320000e
:102a3400100c880060002000200c8800200c80000e
:102a440000407800674060000080fb00404288003e
:102a54008440a9009440a8000080fa000000060009
:102a6400801f78000000fa002004800064006000e9
:102a74000000e000010032008440a9000080fa0058
:102a84004f007800004006000000fa004042800039
:102a940000407800674060000080fb006700600031
:102aa400220c800081ff2f00810061000100700072
:102ab400200c88000080fa00000006000000fa00e4
:102ac400210c800080ff2f0000806000200c880013
:102ad4000080fa00000006000200fa00000f7800ef
:102ae4009e007800110c88000080fa0000000600a7
:102af4000400fa00000f7800110798009e00780087
:102b0400110c88009e009000010c88000080fa00df
:102b1400000006000400fa00000f78001107980076
:102b24009e007800110c88009e009000010c880023
:102b34000080fa00000006000400fa00000f78008c
:102b4400110798009e007800110c88009e009000e8
:102b5400010c88000080fa00000006000200fa0060
:102b6400000f78009e007800010c88000080fa00b5
:102b7400000006000200fa00000f78009e007800b2
:102b8400110c88000080fa00000006000000fa0022
:102b9400200480004200de00614060000080fb00f1
:102ba40000f0a7000000ea000000ea004f00de0089
:102bb400004078000080fa00000006000400fa00db
:102bc400100798001e0090000000e0000a003a0080
:102bd400200c80004400de00614060000080fb00a7
:102be40000f0a7000000ea000000ea004f00de0049
:102bf400004f780001003700000000001e407800fc
:102c04000080fa00000006000000fa008621ef00b0
:102c14008821ef00e0002000500c8800500c800058
:102c240000407800674060000080fb00204288007c
:102c34000080fa00000006000000fa002104800071
:102c440000042000008060000000e0000100320069
:102c540084c0a9000080fa00000006000000fa0009
:102c64002042800000407800674060000080fb0044
:102c740067006000520c800081ff2f00810061001a
:102c840001007000500c88000080fa00000006006b
:102c94000000fa00510c800080ff2f0000806000cb
:102ca400500c88000080fa00000006000200fa00c0
:102cb400000f78009e007800410c88000080fa0024
:102cc400000006000400fa00000f780011079800c5
:102cd4009e007800410c88009e009000310c880012
:102ce4000080fa00000006000400fa00000f7800db
:102cf400110798009e007800410c88009e00900007
:102d0400310c88000080fa00000006000400fa007c
:102d1400000f7800110798009e007800410c88008d
:102d24009e009000310c88000080fa00000006002c
:102d34000200fa00000f78009e007800310c880031
:102d44000080fa00000006000200fa00000f78007c
:102d54009e007800410c88000080fa000000060004
:102d64000000fa00200480004600de00614060009c
:102d74000080fb0000f0a7000000ea000000ea0069
:102d84004f00de00004078000080fa0000000600da
:102d94000400fa00100798001e0090000000e000f4
:102da4000a003a00500c80004400de0061406000dc
:102db4000080fb0000f0a7000000ea000000ea0029
:102dc4004f00de00004f78000100370000000000d3
:102dd4001e4078000080fa00000006000000fa009f
:102de40000002200300888000028200060088800c5
:102df400000028008008880084e0a90094e0a8006e
:102e040080b220008040eb00014878000080fa0086
:102e1400000006003600f800809fbe00829fbe00be
:102e2400849fbe00869fbe000000fa0059fb070085
:102e340090b22000104078008040e80090b220005a
:102e44000148780080b2200011c0b3000148780026
:102e540084e0a9000080fa004f03be004f02be00c8
:102e64004f01be004f00be003600f90000400600ce
:102e74000200fa00000f78009e00780061088800c4
:102e840080b220008040eb00014878000080fa0006
:102e9400000006000000fa00600880000080fa00cc
:102ea400000006000200fa00000f78009e0078007f
:102eb4003108880080b220008040eb00014878008f
:102ec4000080fa00000006000000fa0030088000cc
:102ed4000080fa00000006000000fa000080fa00fa
:102ee400000006000000fa0080b220008040eb00e1
:102ef4000148780094e0a80011e1a8000080fa00dd
:102f0400000006000000fa0011e1a90094e0a90005
:102f14000080fa00000006000200fa0080b22000df
:102f2400104f78001e4078000004e00003003200d7
:102f340080b220008040eb00014878001e407800f9
:102f44000080fa00000006000000fa0090b22000a1
:102f5400104078000080fb000080fa0000000600aa
:102f64000000fa0090b220008040eb000148780095
:102f74000080fa00000006000000fa000a21ef00b9
:102f8400501a20007008880000002800900888006b
:102f9400a0b220008040eb00014878000080fa00d5
:102fa400000006000000fa00210480000010200048
:102fb400008060000000e00009003200b0b2200090
:102fc400104078008040e800b0b22000014878004a
:102fd400a0b2200011c0b300014878008500a90008
:102fe4000080fa00000006000200fa00000f7800da
:102ff4009e00780071088800a0b220008040eb0099
:10300400014878000080fa00000006000000fa0081
:10301400700880000080fa00000006000200fa0038
:10302400000f78009e00780051088800a0b22000ac
:103034008040eb00014878000080fa0000000600a0
:103044000000fa00500880000080fa00000006002a
:103054000000fa00a0b220008040eb000148780094
:1030640013e1a8000080fa00000006000000fa0046
:1030740013e1a9000080fa00000006000200fa0033
:10308400a0b22000104f78001e4078000004e00039
:1030940003003200a0b220008040eb000148780019
:1030a4001e4078000080fa00000006000000fa00cc
:1030b400b0b22000104078000080fb000080fa00cd
:1030c400000006000000fa00b0b220008040eb00cf
:1030d400014878000080fa00000006000000fa00b1
:1030e40010082000300a8800300a80000040780070
:1030f400674060000080fb000042880084a0a900b3
:1031040094a0a8000080fa00000006000000fa0065
:103114000080fa00000006003600f800809fbe0020
:10312400829fbe00849fbe00869fbe000000fa00fe
:103134002104800000022000008060000000e00004
:103144000100320084a0a90004fb07000080fa00fb
:103154004f03be004f02be004f01be004f00be0031
:103164003600f900004006000000fa00004280002a
:1031740000407800674060000080fb00670060004a
:10318400320a800081ff2f0081006100010070007d
:10319400300a88000080fa00000006000000fa00ef
:1031a400310a800080ff2f0000806000300a880010
:1031b4000080fa00000006000000fa00200a8000e7
:1031c4000080fa00000006000000fa00300a8000c7
:1031d4004400de00614060000080fb0000f0a700b6
:1031e4000000ea000000ea004f00de000040780022
:1031f4000080fa00000006000000fa00300a800097
:103204006800600000f0a7000000ea000000e90088
:103214004f00de00004078000080fa000000060045
:103224000000fa0010082000100a8800100a80002c
:1032340000407800674060000080fb001042880076
:103244008420a9009420a8000080fa000000060051
:103254000000fa000080fa00000006003600f800c2
:10326400809fbe00829fbe00849fbe00869fbe00da
:103274000000fa0020048000620060000000e0000a
:10328400010032008420a900bdfa07000080fa0082
:103294004f03be004f02be004f01be004f00be00f0
:1032a4003600f900004006000000fa0010428000d9
:1032b40000407800674060000080fb006700600009
:1032c400120a800081ff2f0081006100010070005c
:1032d400100a88000080fa00000006000000fa00ce
:1032e400110a800080ff2f0000806000100a88000f
:1032f4000080fa00000006000000fa00000a8000c6
:103304000080fa00000006000000fa00100a8000a5
:103314004400de00614060000080fb0000f0a70074
:103324000000ea000000ea004f00de0000407800e0
:103334000080fa00000006000000fa00100a800075
:103344006800600000f0a7000000ea000000e90047
:103354004f00de00004078000080fa000000060004
:103364000000fa00a0002000801188003222ef0043
:10337400001a2000c011880031e2a8003342a800de
:103384000080fa00000006000000fa0000000000bf
:1033940090118000610060000000e000fcff32003a
:1033a40090118000620060000000e0000100320023
:1033b4003222a900b0118000004078000080fa0099
:1033c400000006000200fa00004f78000000000030
:1033d4009111800000202000008060000000e000c7
:1033e400fbff3a001e80fb00a01188000080fa0059
:1033f400000006000000fa00901180000080fa002e
:10340400000006000000fa0021068000f0f82f00fa
:10341400008060000040a000200688005105800064
:1034240080ff2f00008060000000a000500588008d
:1034340041058000f0ff28000080600000c0a0006b
:103444004005880021058000f0f82f00008060000e
:103454000040a0002005880031058000f0f82f000e
:10346400008060000040a000300588002105800035
:10347400f08f2f00008060000080a00020058800ed
:1034840031058000f0ff28000080600000c0a0002b
:10349400300588000080fa00000006000000fa00f1
:1034a400c422ef00ca22ef00d022ef00d622ef00a0
:1034b400dc22ef008002200010178800e822ef00d1
:1034c400f06f2c00001688000080eb003016880096
:1034d400e0012f0060168800c0ff2f0090168800be
:1034e400f03f2000c0168800701d2300f0168800ed
:1034f400f03c2f00201788006820ef006a20ef00be
:10350400c026ef00c626ef00cc26ef00d226ef003f
:10351400d826ef00de26ef00e426ef00000c2000a2
:10352400601988000080fa0000000600000f78008f
:103534009e00780031428800ffff37000000fa0047
:10354400a0ae20008007780020b020000001880091
:103554000080fa00000006003600f8008020a90070
:103564000000eb00f1ff07003600f800f3ff07004e
:103574008040a90010002000ecff07003600f8008e
:103584008060a90020002000e8ff07003600f80052
:103594008080a90030002000e4ff07000000fa004a
:1035a400beff070097ff07000a0007006cff070033
:1035b400cafe070032fb07006ffe070018fd070074
:1035c40091fd070005fe070015ff07000080fa00c3
:1035d400000006000000fa000001eb006004200077
:1035e4007105200023742000804978008149780007
:1035f4008249780000002300203a88004827ef0021
:0c3604004027ef000080fa0000000600e4
:020000040000fa
:020000040002f8
:04aff800bff900009d
:020000040000fa
:020000040002f8
:04affc007f3f000093
:00000001FF
