:020000040000fa
:080000000002040000000000f2
:020000040000fa
:04000800cc02000026
:020000040000fa
:04000c001e190000b9
:020000040000fa
:0400100030190000a3
:020000040000fa
:0400140026190000a9
:020000040000fa
:040018003819000093
:020000040000fa
:04001c00cc02000012
:020000040000fa
:04002000cc0200000e
:020000040000fa
:04002400cc0200000a
:020000040000fa
:04002800cc02000006
:020000040000fa
:04002c005a1700005f
:020000040000fa
:04003000f2130000c7
:020000040000fa
:04003400cc020000fa
:020000040000fa
:04003800cc020000f6
:020000040000fa
:04003c00cc020000f2
:020000040000fa
:04004000cc020000ee
:020000040000fa
:04004400d0150000d3
:020000040000fa
:04004800cc020000e6
:020000040000fa
:04004c00cc020000e2
:020000040000fa
:04005000cc020000de
:020000040000fa
:040054001810000080
:020000040000fa
:04005800c20f0000d3
:020000040000fa
:04005c00cc020000d2
:020000040000fa
:04006000cc020000ce
:020000040000fa
:04006400cc020000ca
:020000040000fa
:04006800cc020000c6
:020000040000fa
:04006c00cc020000c2
:020000040000fa
:04007000cc020000be
:020000040000fa
:04007400cc020000ba
:020000040000fa
:04007800cc020000b6
:020000040000fa
:04007c00cc020000b2
:020000040000fa
:04008000cc020000ae
:020000040000fa
:04008400cc020000aa
:020000040000fa
:04008800cc020000a6
:020000040000fa
:04008c00cc020000a2
:020000040000fa
:04009000cc0200009e
:020000040000fa
:04009400cc0200009a
:020000040000fa
:04009800cc02000096
:020000040000fa
:04009c00cc02000092
:020000040000fa
:0400a0005c0d0000f3
:020000040000fa
:0400a400060d000045
:020000040000fa
:0400a800cc02000086
:020000040000fa
:0400ac00cc02000082
:020000040000fa
:0400b000cc0200007e
:020000040000fa
:0400b400cc0200007a
:020000040000fa
:0400b800cc02000076
:020000040000fa
:0400bc00cc02000072
:020000040000fa
:0400c000cc0200006e
:020000040000fa
:0400c400cc0200006a
:020000040000fa
:0400c800cc02000066
:020000040000fa
:0400cc00cc02000062
:020000040000fa
:0400d000cc0200005e
:020000040000fa
:0400d400cc0200005a
:020000040000fa
:0400d800cc02000056
:020000040000fa
:0400dc00cc02000052
:020000040000fa
:0400e000cc0200004e
:020000040000fa
:0400e400cc0200004a
:020000040000fa
:0400e800cc02000046
:020000040000fa
:0400ec00cc02000042
:020000040000fa
:0400f000cc0200003e
:020000040000fa
:0400f400cc0200003a
:020000040000fa
:0400f800cc02000036
:020000040000fa
:0400fc00cc02000032
:020000040000fa
:04010000cc0200002d
:020000040000fa
:04010400cc02000029
:020000040000fa
:04010800cc02000025
:020000040000fa
:04010c00cc02000021
:020000040000fa
:04011000cc0200001d
:020000040000fa
:04011400cc02000019
:020000040000fa
:04011800cc02000015
:020000040000fa
:04011c00cc02000011
:020000040000fa
:04012000cc0200000d
:020000040000fa
:04012400cc02000009
:020000040000fa
:04012800cc02000005
:020000040000fa
:04012c005e10000061
:020000040000fa
:04013000a20d00001c
:020000040000fa
:04013400cc020000f9
:020000040000fa
:04020800cc02000024
:020000040000fa
:04020c00cc02000020
:020000040000fa
:04021000cc0200001c
:020000040000fa
:04021400cc02000018
:020000040000fa
:04021800cc02000014
:020000040000fa
:04021c00cc02000010
:020000040000fa
:04022000cc0200000c
:020000040000fa
:04022400cc02000008
:020000040000fa
:04022800cc02000004
:020000040000fa
:04022c00cc02000000
:020000040000fa
:04023000cc020000fc
:020000040000fa
:04023400cc020000f8
:020000040000fa
:04023800cc020000f4
:020000040000fa
:04023c00cc020000f0
:020000040000fa
:04024000cc020000ec
:020000040000fa
:04024400cc020000e8
:020000040000fa
:04024800cc020000e4
:020000040000fa
:04024c00cc020000e0
:020000040000fa
:04025000cc020000dc
:020000040000fa
:04025400cc020000d8
:020000040000fa
:04025800cc020000d4
:020000040000fa
:04025c00cc020000d0
:020000040000fa
:04026000cc020000cc
:020000040000fa
:04026400cc020000c8
:020000040000fa
:04026800cc020000c4
:020000040000fa
:04026c00cc020000c0
:020000040000fa
:04027000cc020000bc
:020000040000fa
:04027400cc020000b8
:020000040000fa
:04027800cc020000b4
:020000040000fa
:04027c00cc020000b0
:020000040000fa
:04028000cc020000ac
:020000040000fa
:04028400cc020000a8
:020000040000fa
:04028800cc020000a4
:020000040000fa
:04028c00cc020000a0
:020000040000fa
:04029000cc0200009c
:020000040000fa
:04029400cc02000098
:020000040000fa
:04029800cc02000094
:020000040000fa
:04029c00cc02000090
:020000040000fa
:0402a000cc0200008c
:020000040000fa
:0402a400cc02000088
:020000040000fa
:0402a800cc02000084
:020000040000fa
:0402ac00cc02000080
:020000040000fa
:0402b000cc0200007c
:020000040000fa
:0402b400cc02000078
:020000040000fa
:0402b800cc02000074
:020000040000fa
:0402bc00cc02000070
:020000040000fa
:0402c000cc0200006c
:020000040000fa
:0402c400cc02000068
:020000040000fa
:0402c800cc02000064
:020000040000fa
:0402cc00cc02000060
:020000040000fa
:0402d000cc0200005c
:020000040000fa
:0402d400cc02000058
:020000040000fa
:0402d800cc02000054
:020000040000fa
:0402dc00cc02000050
:020000040000fa
:0402e000cc0200004c
:020000040000fa
:0402e400cc02000048
:020000040000fa
:0402e800cc02000044
:020000040000fa
:0402ec00cc02000040
:020000040000fa
:0402f000cc0200003c
:020000040000fa
:0402f400cc02000038
:020000040000fa
:0402f800cc02000034
:020000040000fa
:0402fc00cc02000030
:020000040000fa
:04030000cc0200002b
:020000040000fa
:04030400cc02000027
:020000040000fa
:04030800cc02000023
:020000040000fa
:04030c00cc0200001f
:020000040000fa
:04031000cc0200001b
:020000040000fa
:04031400cc02000017
:020000040000fa
:04031800cc02000013
:020000040000fa
:04031c00cc0200000f
:020000040000fa
:04032000cc0200000b
:020000040000fa
:04032400cc02000007
:020000040000fa
:04032800cc02000003
:020000040000fa
:04032c00cc020000ff
:020000040000fa
:04033000cc020000fb
:020000040000fa
:04033400cc020000f7
:020000040000fa
:10040000afa720000e7f22000e0188000000000030
:10041000000020000000e000020032000001200087
:1004200020028800140007005d0007000000e000c3
:1004300003003a00c07d21000100200002003700c7
:100440000000200001002000810f70000100320038
:1004500014000700000020000000e000020032004d
:100460000000020000000000501302000000000025
:100470000040da000000fe004440a900e000200037
:100480000000e0000300320000002000a00188000e
:100490004440a800000006008a1f78008b1f7800e7
:1004a0000000060091018800800478000000eb0045
:1004b0001a003700e284440032a0b4009905ba0063
:1004c000e284440032a0b4009906ba00e2844400f9
:1004d00032a0b4000006eb00476fde00fd07b2005b
:1004e000636ce10003003a00ebff07000000eb0043
:1004f0000a003700606ce10004003a00005deb0088
:100500008b05e900fdff3e00040037006168e10053
:10051000010032000086eb000b00070019c7ba008b
:100520001905ba000e04e00003003a000a00e000da
:10053000e0ff3a0000000600fe07b2009e018800be
:100540008a047800f5ff3700395dba008b05e900b1
:100550000c003200295dba008b05e900080032006a
:100560000c00e00003003a00e284440032a0b40032
:10057000f5ff370019ddba008b05e900faff3a00f4
:100580008904e800e184440032a0b40000000600c1
:10059000d2020400000000000040da000000fe006b
:1005a00000000500881f7800020478000801780028
:1005b000cc010700080040004f047800000006004e
:1005c0000000fa00881f780000047800ea815700d4
:1005d0003fb9970088007800202d20000700070011
:1005e0000000e000020035008040eb00017478005c
:1005f0004f0478000080fa00000006006200fa0054
:10060000889fbe008a1f780000057800810478006a
:10061000020478008300780080f92f000f0040006a
:10062000ae0307009a979f00a9979f000000eb0078
:10063000b09f9f001885fb008a04fb000a05ea00b2
:100640004f55de0050022000808f54000d00320014
:10065000e10f55000b003a000a017800880078008d
:100660002f9097009f91970003000100a0979f0093
:100670000000e0008e0032003f9897000000e80084
:10068000b09f9f000a04440050022000808f540055
:10069000040032000900e000e6ff3a003f989700ae
:1006a000840037000000eb00909f9f00809f9f0018
:1006b000f0979f00e0979f00d0979f00c0979f0002
:1006c0000700370001a72000010050000000400093
:1006d00041a6200061007800df98970001007000bb
:1006e000d09f9f008804780009047800384578007e
:1006f0008a00fb0000a72000810107000000e00045
:10070000f0ff3a00a1c2b300814f55000e003a003d
:10071000cf8897000180e900c08f9f00100078000b
:10072000c09f9f000000e00005003d000000ea00bf
:10073000c09f9f005f9897000020a000d09f9f005f
:100740000904e8000f003700c09f9f000000eb0085
:1007500005003700f2ff2700820f50000200320030
:100760006a01b9000280400009047800880478001a
:10077000b900fb000103b100e98f5000f5ff36001e
:10078000c09f9f00e0c2b300984f100002003200eb
:100790000080eb0019003700a0c2b300d84f100052
:1007a00007003a00cf8897000180e900c08f9f00c2
:1007b00010007800a09f9f000804e8001000370098
:1007c0000000eb00a09f9f00880078000500370024
:1007d000f3ff2700830f5000020032006a02b900c5
:1007e0000400410001047800880078003101fb001a
:1007f0000203b100e90f5100f5ff3600a09f9f00f2
:10080000984478008900fb00c0a520003c01070047
:100810000000e000020032000804e8000100370098
:100820008044eb00c97f9f0080c6b30080cf540096
:1008300004003a0098cf14000a003a0066405000c5
:1008400006003700c0c6b30080cf540005003a0050
:1008500098cf140003003a0065404000c07f9f001d
:100860000804e8001801fb00e3fb2f008f81410022
:1008700081f92f008f804000a0f92f000f00400069
:10088000100007000000e00009003a00e1fb2f0023
:100890008f804000a0f92f000f0040005302070096
:1008a0000000e000020035000804e80061ff3700a6
:1008b0000080eb004f0578004f04be000080fa0076
:1008c00000000600881f7800e4c6b300844f510082
:1008d000b600320010003c006b425200844f5100c1
:1008e0001800320005003c0054c2b300844f510090
:1008f000ee00320084c5b3000f00370044c6b300d9
:10090000844f51001400320065424200844f510070
:10091000e9003a001000370004c7b300844f5100cb
:10092000d50032005300350065424200844f51002b
:100930005000320063424200844f5100de003a0012
:100940004c0037001181e90082087800f000900027
:1009500012417800d600370020629000c5c6b3006f
:10096000854f520007003a009102780064825200dd
:10097000840878001402be004fabde0086037800c6
:100980001100370015c7b300854f52000300320035
:10099000a5c6b300854f520006003a0091027800c8
:1009a00068825200840878005403be004402be00ee
:1009b000050037001182e9008408780014027800ed
:1009c000cfa2de00612bb9000498be000690be00e5
:1009d000a060900088c6b30088cf50000d003200a0
:1009e00028c6b30088cf500004003a000402fb0080
:1009f000cfa2de00612bb9000800370048c7b30062
:100a000088cf5000030032006644440088cf500075
:100a100004003a00cfa2de00612bb9000498be00aa
:100a20000690be003002be002003be00f000900021
:100a3000e00f5200e08f5a00e00f5b00e08f5b0098
:100a400002003d00d4c2b30008003700001290003d
:100a50000418a30002003200b4c2b3000300370040
:100a60000408a3004c00320004c2b30084f17800f3
:100a70004700370020629000c5c6b300854f520082
:100a800006003a00910278006482520084087800df
:100a90001402be006033b8001100370015c7b30060
:100aa000854f520003003200a5c6b300854f5200a7
:100ab00006003a00910278006882520084087800ab
:100ac0005403be004402be00050037001182e90055
:100ad00084087800140278008002eb006033b800cc
:100ae0000498be000690be00a060900088c6b300c7
:100af00088cf50000d00320028c6b30088cf5000c8
:100b000004003a000482fb008002eb006033b8006e
:100b10000800370048c7b30088cf500003003200f8
:100b20006644440088cf500004003a008002eb0085
:100b30006033b8000498be000690be00801090009c
:100b40000138a300140032003002be002003be00b2
:100b5000e00f5200e08f5a00e00f5b00e08f5b0077
:100b60000d00320081c7b300814f510003003200f5
:100b700081c5b300814f510007003a00f00090009a
:100b800004c3b30084f178008100e80082f17800aa
:100b90008100e80071009800f00090008181410020
:100ba00063009800824078003e003700a06190000a
:100bb000c4c6b3001181e90084cf51002200320085
:100bc0000a003c006442520084cf510025003200ec
:100bd00004c2e80084cf5100130032006842520082
:100be00084cf51001e003a000a00370044c7b3000a
:100bf00084cf51001b0032006642420084cf510076
:100c0000180032006942520084cf510014003a00ab
:100c10000500370082087800920078004058900064
:100c2000804878002c003700820878009200780015
:100c3000600a9000cfa2de00612bb9008498be004c
:100c40008690be0024003700820878009200780069
:100c500060099000cf91de008288be001e00370040
:100c60001181e90082087800920078006008900005
:100c700080087800180037001181e90082087800a8
:100c800012027800cfa2de00612bb9000498be00ea
:100c90000690be00f0009000818141006300980042
:100ca00081c7b300220007000b003700f00090005e
:100cb00082f1780006003700f00090008181410049
:100cc0000204e00001003a0052c2b30082497800f9
:100cd0008100e800710098000000eb004f047800ec
:100ce000000006008001780002003700b15978004a
:100cf0000201e9000200e000fcff3a0000000600eb
:100d0000020037000304e000060032000001780012
:100d100002007800b041780081cf5100f9ff3a001d
:100d2000010037000001eb0002007800000006001f
:100d3000fc874700889fbe008a9fbe008c9fbe0034
:100d40008e1f78000006780080c5b30080cf500069
:100d50000a0032007740400080cf50000a00320085
:100d60006940400080cf50000b00320010a12000ed
:100d700080bf9f00ae0020000a00370002a02000c4
:100d800082bf9f000600370013a1200083bf9f0091
:100d90008e0020000300370014a1200084bf9f00b4
:100da0000e0120003c02be002c03be000605be0062
:100db0000404be0040c6b30080cf500003003200e0
:100dc0006540400080cf50000b003a00e00f520019
:100dd000e08f5a00e00f5b00e08f5b0006003d00f3
:100de0006000b8006011b800040450008584580009
:100df0000605590087855900e80f570004003200a6
:100e000040002000f00f570038003a000100370082
:100e100030002000e00f5400e08f5c00e00f5d0028
:100e2000e08f5d0004003a00dc0890008d01200096
:100e30000100e000060032008e00e90088806000ba
:100e40008fba9700e5c07800f1ef9f007d01200088
:100e5000800078008100e900050033008b05d10097
:100e60000a85d3008984d3000884d300f9ff3700b2
:100e7000089ebe000a96be00120037008d06e900eb
:100e80008e00e900848060000fb99700e2c178000d
:100e900082fd2f000f01410003f17e0080007800e9
:100ea0008100e900050033008783d1000683d30069
:100eb0008582d3000482d300f9ff3700049ebe0070
:100ec0000696be003c02be002c03be00e00f52009e
:100ed000e08f5a00e00f5b00e08f5b008b00340076
:100ee0000d00e000e5ff3c00880037002c6090001a
:100ef00081c6b300814f50000b00320006003c0059
:100f00000004e00008003200e6c05000814f5000ad
:100f10004e003a0004003700c1c6b300814f5000b4
:100f20004a003a00210037000800e00004003a00bf
:100f30005c0890008d0120000000e00006003200f7
:100f4000110009000e84d8000fb99700e2c07800a4
:100f5000f1ef9f007d012000110009000e84d800f0
:100f60000a003700110009000e04d8008d06e900c0
:100f70000e81b900020454008fb8970061417c00d3
:100f800081fd2f008f80400082f07e0000047800f9
:100f90000800e000020032000d00e000f1ff3c001c
:100fa000cfc4de00614db90025003700e00f5400ca
:100fb000e08f5c0004003a005c0890008d01200086
:100fc0000000e000070032006171b9000800be00b7
:100fd000630107008fb99700e3417800f3ef9f00aa
:100fe0007d0120006171b9000800be004c010700be
:100ff0000b0037006171b9000800be00390107001d
:101000008d06e90000f1b900020454000fba970000
:10101000e4427c0084fd2f000f02420005f27e00b6
:101020000004be00e00f5000e08f580002003200c4
:101030000d00e000efff3c004fcdde008a05780098
:10104000089ebe000a96be0030003700e00f540034
:10105000e08f5c00e00f5d00e08f5d0004003a006f
:101060005c0890008d0120000000e00009003200c3
:101070006172b900612bb9000800be000a01be0010
:10108000da0107000fba970064427800f4ef9f007e
:101090007d0120006172b900612bb9000800be001b
:1010a0000a01be00ca0107000d0037006172b900d5
:1010b000612bb9000800be000a01be00cf01070085
:1010c0008d06e90000f2b900040454008fba9700bd
:1010d00065427c0085fd2f008f82420084f27e00f5
:1010e000009ebe000296be003c04be002c05be0061
:1010f000e00f5400e08f5c00e00f5d00e08f5d00ca
:10110000020034000d00e000e8ff3c00e80f57004b
:1011100010003a000c1090000038a3000d003200bf
:10112000f78f560006003e0085fd2f008f8242009b
:10113000e5c07e0000c3b30080cf50000500320040
:101140008d06e90002c3b30081fd2f008f804000af
:1011500082f07e0078811600120e98006c009000dc
:1011600083fd2f008f8141008d804100ddfe07004f
:101170001c089000dc089000810f500006003d0024
:1011800000805000000e98000c1090000040a1005c
:10119000001698000f0037000100e0000d003d0030
:1011a0008c109000f4806000f08f500009003a002d
:1011b0007c099000fc009000810051000c09900017
:1011c00082805000008050004240a900010034009d
:1011d000000e98004f0778004f06be004f05be0076
:1011e0004f04be00cf01b100000006000400fa0069
:1011f000889fbe008a9fbe008c1f78000004780084
:1012000001067800f80d9000780090008085550068
:1012100008089000808555001808900080855500ca
:10122000280890008085550038089000808555007a
:1012300048089000808555000002220090bf9f0062
:1012400000032300a0bf9f00081090000028a30007
:1012500015003a000b00e000130034000b05780085
:101260008a047800e20f55000100360029002000b2
:10127000c801900009017800ee80570058009000e6
:1012800003000100500498000000e0008c003200d0
:101290006808900009004000600c9800090555009e
:1012a0004240a900eeff3c00780190000200e000ff
:1012b0000c003400c80190008c00780058009000a9
:1012c00003000100500498008080eb000000e00063
:1012d0007c003200e8089000780090000080400018
:1012e000600c9800880c90000900e00011003400a8
:1012f00009057800e28f5400010036002a00200022
:10130000c80190000a017800ec8057005800900056
:1013100003000100500498000000e0006800320063
:10132000680890000a004000600c98008a8454000d
:10133000edff3700180990000200e0000c003400b7
:10134000c8019000e80090005800900003000100e0
:10135000500498008080eb000000e000590032004b
:10136000e80890001808900000804000600c980089
:10137000a80c90000900e000110034000905780075
:10138000e28f5400010036002a002000c8019000be
:101390000a017800ec80570058009000030001001b
:1013a000500498000000e0004500320068089000fa
:1013b0000a004000600c98008a845400edff37005a
:1013c000380990000200e0000e003400e8009000b0
:1013d0001808900080804000c801900058009000dc
:1013e00003000100500498008080eb000000e00042
:1013f00034003200e8089000380890000080400077
:10140000600c9800c80c90000900e0001100340046
:1014100009057800e28f5400010036002a00200000
:10142000c80190000a017800ec8057005800900035
:1014300003000100500498000000e000200032008a
:10144000680890000a004000600c98008a845400ec
:10145000edff3700081090008000eb000028a3008b
:10146000180032000b00e000160034008b047800f6
:1014700009057800e28f5400010036002a002000a0
:10148000c80190000a017800ee80570058009000d3
:1014900003000100500498000000e0000800320042
:1014a000680890000a004000600c98008a8454008c
:1014b0004240a900eeff3c008000eb000100370035
:1014c0008080eb00010078004f0678004f05be00d9
:1014d0004f04be000080fa000000060001087800fa
:1014e00000000600839f68000100e00002003d004c
:1014f00060001000e08018000300e00002003d00e2
:1015000060011100e0811900050007004f00e000b4
:1015100002003b0060001000e080180000000600a0
:101520006022b800060220000000d0008180d200b6
:101530000482d2008582d2000000a0000202520084
:1015400083825a00030031000202420083824a0073
:101550000000a1000603e900f3ff3a0000000600c6
:10156000efff07000400be0000000600889fbe00d9
:101570008a9fbe0030044200b0844a0030054b0010
:1015800090854b006000b1000898be000a90be0034
:101590000440e10005c8e10006d0e10007d8e10001
:1015a00002003100680040001008e8004f05be004e
:1015b0004f04be0000000600889fbe008a9fbe0048
:1015c0003004be002005be000418540005985c00dd
:1015d00006185d0007985d00110020000440e1003e
:1015e00005c8e10006d0e10007d8e100010039009c
:1015f0008000eb00108810004f05be004f04be00b5
:10160000000006001200fa00889fbe008a9fbe00fc
:101610008c9fbe00e0b79f00f1b79f0082bf9f0084
:1016200093bf9f000605be000404be000000eb004f
:10163000d0b79f00c0b79f00b0b79f00a0b79f0072
:1016400090b79f000006eb005fb19700cfb0970006
:10165000820141003fb097000200e00004003d001d
:10166000370007007e805700c0ff070003003700e7
:10167000330007007e805700cfff0700dfb69700da
:101680000d00e0000c0035006fb29700ffb297002c
:101690000fbb97009fbb97001000200001002000a7
:1016a0006011b800000272008182720002037300b0
:1016b000838373001b0007000c06e8000104200070
:1016c000810f5600e0ff3a000d00e00004003d00ed
:1016d0000802be000a03be007e805700a3ff070079
:1016e0005fa897000000e00005003a001fb29700d5
:1016f000afb297003fb39700cfb397000900070040
:101700006fb09700ffb097000fb997009fb997008f
:101710004f06be004f05be004f04be000080fa0019
:10172000000006000100070000000600a4b79f00ab
:10173000b5b79f00c6b79f00d7b79f00000006004f
:101740004f09de0082817100b3b79f004f01de00b8
:101750008180400082807000a1b79f008fb0970009
:101760004f09de00000040000200700090b79f00ab
:101770007fa897004f01de008180400082807000ca
:1017800081b79f000d0007004f3ade0000004000c7
:1017900004007000f0af9f00080007000402420040
:1017a00085824a0006034b0087834b00dfff07005a
:1017b0000802be000a03be00000006002fb2970018
:1017c000bfb297004fb39700dfb397000000060049
:1017d000881f780018002000881f780089ff070004
:1017e0008f87e9004f04780000000600801feb009f
:1017f00084ff07008f87e90000000600889fbe0075
:101800008a9fbe00e00f5000e08f5800e00f5900a3
:10181000e08f59000c003d006044b8006055b800ee
:101820000000540081805c0002015d0083815d0046
:10183000180020001500070008003d0018000700f0
:101840000004eb00050037000004eb000f00070068
:1018500002003d001200070018002000dcff070016
:101860000800e000060032006022b8006033b800d3
:101870000000520081805a0002015b0083815b00fe
:101880004f05be004f04be0000000600e00f5200ee
:10189000e08f5a00e00f5b00e08f5b000000060065
:1018a0006044b8006055b8000402540085825c00b2
:1018b00006035d0087835d0000000600889fbe0070
:1018c0008a9fbe008c1f7800e00f5000e08f580008
:1018d000e00f5900e08f59000d003d006044b80052
:1018e0006055b8000000540081805c0002015d007a
:1018f00083815d001c0020000820e10009a8e100b0
:101900000ab0e1000bb8e1000d003d00080037000f
:101910000006eb00e00f5200e08f5a00e00f5b0082
:10192000e08f5b0006003d006044b8006055b800e1
:101930000402540085825c0006035d0087835d001d
:10194000aaff07000c00e000060032006022b80089
:101950006033b8000000520081805a0002015b0031
:1019600083815b004f0678004f05be004f04be0028
:04197000000006006d
:020000040000fa
:101974000d0a00000053000074610000727400003e
:0c19840065640000002500006400000005
:020000040000fa
:101990000000fa00a0002000801188003222ef0031
:1019a000001a2000c011880097c0a80031e2a800ea
:1019b0003342a800c0a4200040528800c0a42000e8
:1019c0003052880040a520002052880040a5200009
:1019d00010528800505280000010a0005052880021
:1019e000505280000090a000505288005052800059
:1019f0000080a10050528800505280000000a100d9
:101a0000505288000080fa0000000600809fbe004f
:101a10000000fa0051528000002020000080600089
:101a20000000e0000200320097e0a9001f0037002c
:101a300087e0a9001800370040528000104078006d
:101a40000080fb00a0118800405280000000e800e8
:101a5000405288004152800040a52000808f5000f5
:101a600002003a00c0a4200040528800505280007a
:101a70000080a10050528800415280003052800006
:101a8000808f500004003a00505280000090a00067
:101a9000505288000500370091118000002020007e
:101aa000008060000000e000e3ff32000080fa00e8
:101ab0004f00be0000400600809fbe000000fa00fc
:101ac0001800370010528000b1118000814078006a
:101ad00001487800105280000000e8001052880091
:101ae00011528000c0a52000808f500002003a00f3
:101af00040a5200010528800505280000010a10024
:101b0000505288001152800020528000808f500077
:101b100004003a00505280000000a000505288009b
:101b20000400370090118000610060000000e000b8
:101b3000e4ff3a0087c0a9000080fa004f00be0011
:101b400000400600801f78000000fa00901180001d
:101b5000620060000000e000010032003222a900b3
:101b60008c40a9000080fa004f0078000040060079
:101b70000200fa000040eb00004f78002052800085
:101b8000104f7800205280000000e80020528800aa
:101b900021528000c0a52000808f500002003a0032
:101ba00040a5200020528800215280001052800061
:101bb000808f500003003a00505280000010a000b7
:101bc00050528800505280000000a10050528800fe
:101bd0001e4078000080fa00000006000600fa00af
:101be000881f780010079800210798000000eb007c
:101bf000000f78000900370050528000620060003a
:101c00000000e0000a003a001e0090001e044000a0
:101c1000d7ff0700004c78001e0fe8002e00900050
:101c20009e007800808f5000f3ff390001003700dc
:101c3000000000001e0078004f0478000080fa00c9
:101c4000000006000200fa00004f780097e0a900ab
:101c5000305280001e487800305280000000e800ba
:101c6000305288003152800040a52000808f500003
:101c700002003a00c0a42000305288005052800078
:101c80000090a100505288004152800030528000e4
:101c9000808f500003003a00505280000080a00066
:101ca0005052880097e0a8000080fa00000006006b
:101cb0000600fa0010079800210798000000eb00ca
:101cc000000f78000a0037005152800000102000f9
:101cd000008060000000e0000a003a001e00900052
:101ce0001e004000104078001e0fe800d5ff0700de
:101cf0002e0090009e007800808f5000f2ff390087
:101d000001003700000000001e0078000080fa008b
:101d1000000006000200fa000000eb00000f78004f
:101d20005152800000102000008060000000e000a0
:101d3000010032001e30a00051528000002020001f
:101d4000008060000000e000010032001e40a000a2
:101d500050528000610060000000e000010032008d
:101d60001e00a00050528000620060000000e000f1
:101d7000020032001e20a000010037001e10a0004b
:101d80001e0078000080fa00000006000200fa0041
:101d9000000f7800205280009e004000c0a5200067
:101da000808f500008003600205280009e004000c6
:101db000c0a520000000ea000080400041a52000ee
:101dc0006140780003003700205280001e00400070
:101dd000104078000080fa00000006000000fa00c1
:101de00050528000610060000000e0000f003a00e7
:101df0002152800010528000808f50000500360074
:101e00002052800080007800105280000080500036
:101e100007003700205280008000780010528000b8
:101e20000080500068004000010037000000eb0017
:101e30000080fa00000006000000fa005152800005
:101e400000102000008060000000e0000f003a0059
:101e50004152800030528000808f500005003600d3
:101e60004052800080007800305280000080500096
:101e70000700370040528000800078003052800018
:101e80000080500068004000010037000000eb00b7
:101e90000080fa00000006000000fa0050528000a6
:101ea0000000d100614060000080fb0000f0a7004e
:101eb0000000ea000000ea004f00de000040780069
:101ec0000080fa00000006000000fa005052800076
:101ed0004800de00614060000080fb0000f0a700c9
:101ee0000000ea000000ea004f00de000040780039
:101ef0000080fa00000006000000fa009011800047
:101f00000080fa00000006000000fa00a000200097
:101f1000001188002222ef002002200040118800da
:101f20009560a80021e2a8002342a800a083200019
:101f3000b0418800a0832000a0418800a08b200031
:101f400090418800a08b200080418800c041800023
:101f50000010a000c0418800c04180000090a00097
:101f6000c0418800c04180000080a100c0418800bd
:101f7000c04180000000a100c04188000080fa003c
:101f800000000600809fbe000000fa00c1418000f2
:101f900000202000008060000000e000020032000d
:101fa0009580a9001f0037008580a9001800370020
:101fb000b0418000104078000080fb0020118800b4
:101fc000b04180000000e800b0418800b1418000cd
:101fd000a08b2000808f500002003a00a0832000d8
:101fe000b0418800c04180000080a100c04188004d
:101ff000b1418000a0418000808f500004003a0071
:10200000c04180000090a000c0418800050037005a
:102010001111800000202000008060000000e0001e
:10202000e3ff32000080fa004f00be0000400600cf
:10203000809fbe000000fa00180037008041800039
:102040003111800081407800014878008041800093
:102050000000e8008041880081418000a0932000ba
:10206000808f500002003a00a08b20008041880041
:10207000c04180000010a100c04188008141800063
:1020800090418000808f500004003a00c0418000e1
:102090000000a000c041880004003700101180003b
:1020a000610060000000e000e4ff3a008560a900e4
:1020b0000080fa004f00be0000400600801f78003c
:1020c0000000fa0010118000620060000000e000d3
:1020d000010032002222a9008c20a9000080fa0011
:1020e0004f007800004006000200fa000040eb00bc
:1020f000004f780090418000104f780090418000a0
:102100000000e8009041880091418000a0932000e9
:10211000808f500002003a00a08b20009041880080
:102120009141800080418000808f500003003a0080
:10213000c04180000010a000c0418800c041800064
:102140000000a100c04188001e4078000080fa0015
:10215000000006000600fa00881f780010079800ab
:10216000210798000000eb00000f780009003700fd
:10217000c0418000620060000000e0000a003a00f8
:102180001e0090001e044000d7ff0700004c78009e
:102190001e0fe8002e0090009e007800808f5000f7
:1021a000f3ff390001003700000000001e00780036
:1021b0004f0478000080fa00000006000200fa00d8
:1021c000004f78009580a900a04180001e4878004b
:1021d000a04180000000e800a0418800a1418000eb
:1021e000a08b2000808f500002003a00a0832000c6
:1021f000a0418800c04180000090a100c04188003b
:10220000b1418000a0418000808f500003003a005f
:10221000c04180000080a000c04188009580a800d7
:102220000080fa00000006000600fa00100798007f
:10223000210798000000eb00000f78000a0037002b
:10224000c141800000102000008060000000e0001c
:102250000a003a001e0090001e0040001040780066
:102260001e0fe800d5ff07002e0090009e007800aa
:10227000808f5000f2ff390001003700000000009d
:102280001e0078000080fa00000006000200fa003c
:102290000000eb00000f7800c1418000001020001a
:1022a000008060000000e000010032001e30a0004d
:1022b000c141800000202000008060000000e0009c
:1022c000010032001e40a000c0418000610060009b
:1022d0000000e000010032001e00a000c0418000ac
:1022e000620060000000e000020032001e20a0003a
:1022f000010037001e10a0001e0078000080fa00c8
:10230000000006000200fa00000f780090418000f3
:102310009e004000a0932000808f500008003600ef
:10232000904180009e004000a09320000000ea0041
:1023300000804000a18b200061407800030037003e
:10234000904180001e004000104078000080fa009c
:10235000000006000000fa00c0418000610060003b
:102360000000e0000f003a009141800080418000b1
:10237000808f50000500360090418000800078007a
:1023800080418000008050000700370090418000ad
:102390008000780080418000008050000008b0007c
:1023a000010037000000eb000080fa00000006008a
:1023b0000000fa00c1418000001020000080600091
:1023c0000000e0000f003a00b1418000a041800011
:1023d000808f500005003600b041800080007800fa
:1023e000a04180000080500007003700b04180000d
:1023f00080007800a0418000008050000008b000fc
:10240000010037000000eb000080fa000000060029
:102410000000fa00c04180000000d100614060006f
:102420000080fb0000f0a7000000ea000000ea00c6
:102430004f00de00004078000080fa000000060037
:102440000000fa00c04180004800de0061406000ea
:102450000080fb0000f0a7000000ea000000ea0096
:102460004f00de00004078000080fa000000060007
:102470000000fa00101180000080fa000000060041
:102480000400fa00100798000000eb00000f78002d
:10249000010037001e0fe8001e0090001e004000e3
:1024a000104078000004e000faff3a001e0090009f
:1024b0009e007800fefd0700a0cb28002100200030
:1024c000fbfd07000080fa00000006000400fa008f
:1024d000100798000000eb00000f780001003700a3
:1024e0001e0fe8001e0090001e0040001040780003
:1024f0000004e000faff3a001e0090009e00780001
:1025000049ff0700a0cb28002100200046ff07005c
:102510000080fa00000006000000fa00d2c2a80005
:10252000d2e2a800c002a900c022a900c042a900ae
:10253000c062a900c0e2a900c422a900d302a80079
:10254000d322a800d342a800d362a800d382a80057
:102550000080fa00000006000000fa0070408000d1
:102560000000e80070408800104080000000e80093
:102570001040880011408000900120000001780088
:10258000110009008280d8008000fd000000e000fa
:102590002c003a00a116800000042000008060009a
:1025a0000000e00006003a00304080000000e0003b
:1025b00003003a0010002000304088000b00370074
:1025c000a116800000042000008060000000e000f0
:1025d00006003200304080000000e00003003200be
:1025e0000628ef001000200040408800a11680005f
:1025f00000082000008060000000e00006003a00b3
:10260000504080000000e00003003a00100020006d
:10261000504088000b003700a11680000008200001
:10262000008060000000e0000600320050408000a2
:102630000000e000030032000a28ef001000200034
:10264000604088001140800000712200808f50009f
:1026500002003a00c442a800060037001140800082
:1026600000e22400808f500002003a00c442a9001a
:102670000228ef000080fa00000006000000fa00c7
:10268000104180000080ea00104188002041800055
:102690000000e800204188000080fa0000000600e9
:1026a0000000fa00f60207009bff07000028ef0079
:1026b000d0cb280072ff07000100370000000000a7
:1026c0001041800000407800614060000080fb0005
:1026d000610060004700dd00211680000170a1004c
:1026e0000100700020168800404080000000e000db
:1026f000190032000828ef00204080000000e800a8
:102700002040880021408000a000200000017800c7
:10271000110009008280d8008000fd000000e80060
:102720004600dd00000c8800201680004300de001b
:102730006140600000c0ea00614060000080fb0072
:10274000610060004300dd00211680000130a1001f
:102750000100700020168800604080000000e0004a
:102760000a0032000c28ef0020418000801f780012
:1027700050cc2800801f7800a09f200090f7070011
:10278000e4875700a09f20003dff07002cff0700b3
:10279000a04080000000e000c8ff32001428ef00d5
:1027a000c7ff37000000fa00d0132000000c88009b
:1027b000d0132000100c880060002000200c88003e
:1027c000200c800000407800674060000080fb0023
:1027d000304188008440a9009440a8000080fa009d
:1027e00000000600801f78000000fa00200480002e
:1027f000640060000000e000010032008440a90095
:102800000080fa004f007800004006000000fa0047
:102810003041800000407800674060000080fb008d
:1028200067006000220c800081ff2f0081006100a2
:1028300001007000200c88000080fa0000000600f3
:102840000000fa00210c800080ff2f000080600053
:10285000200c88000080fa00000006000200fa0048
:10286000000f78009e007800110c88000080fa00ac
:10287000000006000400fa00000f7800110798001d
:102880009e007800110c88009e009000010c8800ca
:102890000080fa00000006000400fa00000f780033
:1028a000110798009e007800110c88009e0090008f
:1028b000010c88000080fa00000006000400fa0005
:1028c000000f7800110798009e007800110c880016
:1028d0009e009000010c88000080fa0000000600b5
:1028e0000200fa00000f78009e007800010c8800ba
:1028f0000080fa00000006000200fa00000f7800d5
:102900009e007800110c88000080fa00000006008c
:102910000000fa00200480004200de0061406000f8
:102920000080fb0000f0a7000000ea000000ea00c1
:102930004f00de00004078000080fa000000060032
:102940000400fa00100798001e0090000000e0004c
:102950000a003a00200c80004400de006140600064
:102960000080fb0000f0a7000000ea000000ea0081
:102970004f00de00004f780001003700000000002b
:102980001e4078000080fa00000006000000fa00f7
:10299000f00c2000300c8800f00c2000400c880067
:1029a000e0002000500c8800500c800000407800af
:1029b000674060000080fb00504188000080fa0002
:1029c000000006000000fa0021048000000420003e
:1029d000008060000000e0000100320084c0a90017
:1029e0000080fa00000006000000fa00504180005c
:1029f00000407800674060000080fb0067006000d6
:102a0000520c800081ff2f008100610001007000e6
:102a1000500c88000080fa00000006000000fa0058
:102a2000510c800080ff2f0000806000500c880057
:102a30000080fa00000006000200fa00000f780093
:102a40009e007800410c88000080fa00000006001b
:102a50000400fa00000f7800110798009e0078002b
:102a6000410c88009e009000310c88000080fa0024
:102a7000000006000400fa00000f7800110798001b
:102a80009e007800410c88009e009000310c880068
:102a90000080fa00000006000400fa00000f780031
:102aa000110798009e007800410c88009e0090005d
:102ab000310c88000080fa00000006000200fa00d5
:102ac000000f78009e007800310c88000080fa002a
:102ad000000006000200fa00000f78009e00780057
:102ae000410c88000080fa00000006000000fa0097
:102af000200480004600de00614060000080fb0092
:102b000000f0a7000000ea000000ea004f00de002d
:102b1000004078000080fa00000006000400fa007f
:102b2000100798001e0090000000e0000a003a0024
:102b3000500c80004400de00614060000080fb001b
:102b400000f0a7000000ea000000ea004f00de00ed
:102b5000004f780001003700000000001e407800a0
:102b60000080fa00000006000000fa0000002200c9
:102b70003008880000282000600888000000280035
:102b80008008880084e0a90094e0a80060a72000e5
:102b90008040eb00014878000080fa000000060049
:102ba0003600f800809fbe00829fbe00849fbe005a
:102bb000869fbe000000fa0067fe070070a7200095
:102bc000104078008040e80070a72000014878009d
:102bd00060a7200011c0b3000148780084e0a9007c
:102be0000080fa004f03be004f02be004f01be003e
:102bf0004f00be003600f900004006000200fa0057
:102c0000000f78009e0078006108880060a720000f
:102c10008040eb00014878000080fa0000000600c8
:102c20000000fa00600880000080fa000000060042
:102c30000200fa00000f78009e007800310888003a
:102c400060a720008040eb00014878000080fa0077
:102c5000000006000000fa00300880000080fa0042
:102c6000000006000000fa000080fa0000000600e4
:102c70000000fa0060a720008040eb0001487800c7
:102c800094e0a80011e1a8000080fa00000006000e
:102c90000000fa0011e1a90094e0a9000080fa0008
:102ca000000006000200fa0060a72000104f780024
:102cb0001e4078000004e0000300320060a72000fe
:102cc0008040eb00014878001e4078000080fa0048
:102cd000000006000000fa0070a7200010407800f5
:102ce0000080fb000080fa00000006000000fa00ef
:102cf00070a720008040eb00014878000080fa00b7
:102d0000000006000000fa000a21ef00501a20001f
:102d100070088800000028009008880080a7200024
:102d20008040eb00014878000080fa0000000600b7
:102d30000000fa00210480000010200000806000e4
:102d40000000e0000900320090a720001040780049
:102d50008040e80090a720000148780080a720006c
:102d600011c0b300014878008500a9000080fa0076
:102d7000000006000200fa00000f78009e007800b4
:102d80007108880080a720008040eb00014878008f
:102d90000080fa00000006000000fa0070088000c1
:102da0000080fa00000006000200fa00000f780020
:102db0009e0078005108880080a720008040eb002a
:102dc000014878000080fa00000006000000fa00c8
:102dd000500880000080fa00000006000000fa00a1
:102de00080a720008040eb000148780013e1a80094
:102df0000080fa00000006000000fa0013e1a900bc
:102e00000080fa00000006000200fa0080a72000ff
:102e1000104f78001e4078000004e00003003200ec
:102e200080a720008040eb00014878001e40780019
:102e30000080fa00000006000000fa0090a72000c1
:102e4000104078000080fb000080fa0000000600bf
:102e50000000fa0090a720008040eb0001487800b5
:102e60000080fa00000006000000fa0010082000b0
:102e7000100a880021058000000720000100700072
:102e8000200588008420a9009420a800100a800052
:102e900000407800674060000080fb0060418800cf
:102ea0000080fa00000006000000fa000080fa002e
:102eb000000006003600f800809fbe00829fbe0022
:102ec000849fbe00869fbe000000fa0020048000a0
:102ed000620060000000e000010032008420a900d0
:102ee000e6fd07000080fa004f03be004f02be005f
:102ef0004f01be004f00be003600f9000040060042
:102f00000000fa00604180000040780067406000e7
:102f10000080fb0067006000120a800081ff2f0024
:102f20008100610001007000100a88000080fa0032
:102f3000000006000000fa00110a800080ff2f0048
:102f400000806000100a88000080fa00000006007f
:102f50000000fa00000a80000080fa00000006006d
:102f60000000fa00100a80004400de0061406000aa
:102f70000080fb0000f0a7000000ea000000ea006b
:102f80004f00de00004078000080fa0000000600dc
:102f90000000fa00100a80006800600000f0a7003e
:102fa0000000ea000000e9004f00de000040780069
:082fb0000080fa000000060099
:020000040000fa
:102fb800260800000200000000000000220a0000ad
:102fc80020000000000000002808000002000000a7
:102fd80002000000ffff0000760a00000200000067
:102fe800000000002a0800000200000000000000a5
:102ff800780a00000200000000000000420a0000f9
:103008001a000000000000002c0800000200000068
:1030180000000000300800000a0100000000000065
:103028003a090000c6000000000000000008000087
:1030380026000000000000002e080000020000002a
:1030480002000000010000005c0a00001a000000f5
:1030580002000000686a6c00747a4c0000000100ed
:10306800000200000400080000100000000020001a
:103078002b2d230030000000000a00002200000071
:103088000200000030313200333435003637380062
:103098003941420043444500460030003132330094
:1030a800343536003738390061626300646566007c
:0830b800000000000000000010
:020000040000fa
:1030c0000000fa0021068000f08f2f0000806000d1
:1030d0000080a0002006880091058000f0ff2800f5
:1030e0000080600000c0a00090058800910580006d
:1030f000f08f2f00008060000080a0009005880005
:1031000021068000f0f82f00008060000040a00041
:10311000200688005105800080ff2f00008060009d
:103120000000a0005005880041058000f0ff280045
:103130000080600000c0a0004005880021058000dc
:10314000f0f82f00008060000040a00020058800fb
:1031500021058000f08f2f00008060000080a0001b
:103160002005880031058000f0ff28000080600005
:1031700000c0a000300588000080fa0000000600b2
:103180000000fa00c422ef00ca22ef00d022ef00b4
:10319000d622ef00dc22ef0080022000101788000a
:1031a000e822ef00f06f2c00001688000080eb0092
:1031b00030168800e0012f0060168800c0ff2f0045
:1031c00090168800f03f2000c0168800701d230074
:1031d000f0168800f03c2f00201788006820ef00d0
:1031e0006a20ef00c026ef00c626ef00cc26ef00d5
:1031f000d226ef00d826ef00de26ef00e426ef000f
:10320000000c2000601988000080fa000000060011
:10321000000f78009e00780041418800ffff3700d2
:103220000000fa0020a2200080077800a0a3200060
:10323000000188000080fa00000006003600f80057
:103240008020a9000000eb00f1ff07003600f80025
:10325000f3ff07008040a90010002000ecff0700ea
:103260003600f8008060a90020002000e8ff070079
:103270003600f8008080a90030002000e4ff07003d
:103280000000fa00beff07008dff070009000700dd
:10329000bff907001cfb07009afe070041fd07006d
:1032a000bafd070030fe0700effe07000080fa00bd
:1032b000000006000000fa000001eb00600420009e
:1032c000710520002374200080497800814978002e
:1032d0008249780000002300203a88004827ef0048
:0c32e0004027ef000080fa00000006000c
:020000040000fa
:020000040002f8
:04aff800bff900009d
:020000040000fa
:020000040002f8
:04affc007f3f000093
:00000001FF
