:020000040000fa
:080000000002040000000000f2
:020000040000fa
:04000800cc02000026
:020000040000fa
:04000c00b00b000035
:020000040000fa
:04001000c20b00001f
:020000040000fa
:04001400b80b000025
:020000040000fa
:04001800ca0b00000f
:020000040000fa
:04001c00cc02000012
:020000040000fa
:04002000cc0200000e
:020000040000fa
:04002400cc0200000a
:020000040000fa
:04002800cc02000006
:020000040000fa
:04002c00440a000082
:020000040000fa
:04003000ea060000dc
:020000040000fa
:04003400cc020000fa
:020000040000fa
:04003800cc020000f6
:020000040000fa
:04003c00cc020000f2
:020000040000fa
:04004000cc020000ee
:020000040000fa
:04004400c8080000e8
:020000040000fa
:04004800cc020000e6
:020000040000fa
:04004c00cc020000e2
:020000040000fa
:04005000cc020000de
:020000040000fa
:04005400cc020000da
:020000040000fa
:04005800cc020000d6
:020000040000fa
:04005c00cc020000d2
:020000040000fa
:04006000cc020000ce
:020000040000fa
:04006400cc020000ca
:020000040000fa
:04006800cc020000c6
:020000040000fa
:04006c00cc020000c2
:020000040000fa
:04007000cc020000be
:020000040000fa
:04007400cc020000ba
:020000040000fa
:04007800cc020000b6
:020000040000fa
:04007c00cc020000b2
:020000040000fa
:04008000cc020000ae
:020000040000fa
:04008400cc020000aa
:020000040000fa
:04008800cc020000a6
:020000040000fa
:04008c00cc020000a2
:020000040000fa
:04009000cc0200009e
:020000040000fa
:04009400cc0200009a
:020000040000fa
:04009800cc02000096
:020000040000fa
:04009c00cc02000092
:020000040000fa
:0400a0006e030000eb
:020000040000fa
:0400a400180300003d
:020000040000fa
:0400a800cc02000086
:020000040000fa
:0400ac00cc02000082
:020000040000fa
:0400b000cc0200007e
:020000040000fa
:0400b400cc0200007a
:020000040000fa
:0400b800cc02000076
:020000040000fa
:0400bc00cc02000072
:020000040000fa
:0400c000cc0200006e
:020000040000fa
:0400c400cc0200006a
:020000040000fa
:0400c800cc02000066
:020000040000fa
:0400cc00cc02000062
:020000040000fa
:0400d000cc0200005e
:020000040000fa
:0400d400cc0200005a
:020000040000fa
:0400d800cc02000056
:020000040000fa
:0400dc00cc02000052
:020000040000fa
:0400e000cc0200004e
:020000040000fa
:0400e400cc0200004a
:020000040000fa
:0400e800cc02000046
:020000040000fa
:0400ec00cc02000042
:020000040000fa
:0400f000cc0200003e
:020000040000fa
:0400f400cc0200003a
:020000040000fa
:0400f800cc02000036
:020000040000fa
:0400fc00cc02000032
:020000040000fa
:04010000cc0200002d
:020000040000fa
:04010400cc02000029
:020000040000fa
:04010800cc02000025
:020000040000fa
:04010c00cc02000021
:020000040000fa
:04011000cc0200001d
:020000040000fa
:04011400cc02000019
:020000040000fa
:04011800cc02000015
:020000040000fa
:04011c00cc02000011
:020000040000fa
:04012000cc0200000d
:020000040000fa
:04012400cc02000009
:020000040000fa
:04012800cc02000005
:020000040000fa
:04012c00cc02000001
:020000040000fa
:04013000b403000014
:020000040000fa
:04013400cc020000f9
:020000040000fa
:04020800cc02000024
:020000040000fa
:04020c00cc02000020
:020000040000fa
:04021000cc0200001c
:020000040000fa
:04021400cc02000018
:020000040000fa
:04021800cc02000014
:020000040000fa
:04021c00cc02000010
:020000040000fa
:04022000cc0200000c
:020000040000fa
:04022400cc02000008
:020000040000fa
:04022800cc02000004
:020000040000fa
:04022c00cc02000000
:020000040000fa
:04023000cc020000fc
:020000040000fa
:04023400cc020000f8
:020000040000fa
:04023800cc020000f4
:020000040000fa
:04023c00cc020000f0
:020000040000fa
:04024000cc020000ec
:020000040000fa
:04024400cc020000e8
:020000040000fa
:04024800cc020000e4
:020000040000fa
:04024c00cc020000e0
:020000040000fa
:04025000cc020000dc
:020000040000fa
:04025400cc020000d8
:020000040000fa
:04025800cc020000d4
:020000040000fa
:04025c00cc020000d0
:020000040000fa
:04026000cc020000cc
:020000040000fa
:04026400cc020000c8
:020000040000fa
:04026800cc020000c4
:020000040000fa
:04026c00cc020000c0
:020000040000fa
:04027000cc020000bc
:020000040000fa
:04027400cc020000b8
:020000040000fa
:04027800cc020000b4
:020000040000fa
:04027c00cc020000b0
:020000040000fa
:04028000cc020000ac
:020000040000fa
:04028400cc020000a8
:020000040000fa
:04028800cc020000a4
:020000040000fa
:04028c00cc020000a0
:020000040000fa
:04029000cc0200009c
:020000040000fa
:04029400cc02000098
:020000040000fa
:04029800cc02000094
:020000040000fa
:04029c00cc02000090
:020000040000fa
:0402a000cc0200008c
:020000040000fa
:0402a400cc02000088
:020000040000fa
:0402a800cc02000084
:020000040000fa
:0402ac00cc02000080
:020000040000fa
:0402b000cc0200007c
:020000040000fa
:0402b400cc02000078
:020000040000fa
:0402b800cc02000074
:020000040000fa
:0402bc00cc02000070
:020000040000fa
:0402c000cc0200006c
:020000040000fa
:0402c400cc02000068
:020000040000fa
:0402c800cc02000064
:020000040000fa
:0402cc00cc02000060
:020000040000fa
:0402d000cc0200005c
:020000040000fa
:0402d400cc02000058
:020000040000fa
:0402d800cc02000054
:020000040000fa
:0402dc00cc02000050
:020000040000fa
:0402e000cc0200004c
:020000040000fa
:0402e400cc02000048
:020000040000fa
:0402e800cc02000044
:020000040000fa
:0402ec00cc02000040
:020000040000fa
:0402f000cc0200003c
:020000040000fa
:0402f400cc02000038
:020000040000fa
:0402f800cc02000034
:020000040000fa
:0402fc00cc02000030
:020000040000fa
:04030000cc0200002b
:020000040000fa
:04030400cc02000027
:020000040000fa
:04030800cc02000023
:020000040000fa
:04030c00cc0200001f
:020000040000fa
:04031000cc0200001b
:020000040000fa
:04031400cc02000017
:020000040000fa
:04031800cc02000013
:020000040000fa
:04031c00cc0200000f
:020000040000fa
:04032000cc0200000b
:020000040000fa
:04032400cc02000007
:020000040000fa
:04032800cc02000003
:020000040000fa
:04032c00cc020000ff
:020000040000fa
:04033000cc020000fb
:020000040000fa
:04033400cc020000f7
:020000040000fa
:100400008f8620000e7f22000e0188000000000071
:10041000000020000000e000020032000001200087
:1004200020028800140007005d0007000000e000c3
:1004300003003a0080b520000100200002003700d0
:100440000000200001002000810f70000100320038
:1004500014000700000020000000e000020032004d
:1004600000000200000000002c0602000000000056
:100470000040da000000fe004440a9008000200097
:100480000000e0000300320000002000a00188000e
:100490004440a800000006008a1f78008b1f7800e7
:1004a0000000060091018800800478000000eb0045
:1004b0001a003700e284440032a0b4009905ba0063
:1004c000e284440032a0b4009906ba00e2844400f9
:1004d00032a0b4000006eb00476fde00fd07b2005b
:1004e000636ce10003003a00ebff07000000eb0043
:1004f0000a003700606ce10004003a00005deb0088
:100500008b05e900fdff3e00040037006168e10053
:10051000010032000086eb000b00070019c7ba008b
:100520001905ba000e04e00003003a000a00e000da
:10053000e0ff3a0000000600fe07b2009e018800be
:100540008a047800f5ff3700395dba008b05e900b1
:100550000c003200295dba008b05e900080032006a
:100560000c00e00003003a00e284440032a0b40032
:10057000f5ff370019ddba008b05e900faff3a00f4
:100580008904e800e184440032a0b40000000600c1
:100590006c0a0400000000000040da000000fe00c9
:0405a0000000050052
:020000040000fa
:1005a400415400002f7200002f6e00000000000074
:020000040000fa
:1005b4000000fa00a0002000801188003222ef0021
:1005c40020022000c011880097c0a80031e2a800d2
:1005d4003342a800408520008042880040852000e6
:1005e40070428800c085200060428800c0852000d9
:1005f40050428800904280000010a0009042880081
:10060400904280000090a0009042880090428000b8
:100614000080a10090428800904280000000a10068
:10062400904288000080fa0000000600809fbe000f
:100634000000fa0091428000002020000080600049
:100644000000e0000200320097e0a9001f0037001c
:1006540087e0a9001800370080428000104078002d
:100664000080fb00a0118800804280000000e800a8
:100674008042880081428000c0852000808f500025
:1006840002003a00408520008042880090428000a9
:100694000080a10090428800814280007042800066
:1006a400808f500004003a00904280000090a00027
:1006b400904288000500370091118000002020003e
:1006c400008060000000e000e3ff32000080fa00d8
:1006d4004f00be0000400600809fbe000000fa00ec
:1006e4001800370050428000b1118000814078002a
:1006f40001487800504280000000e8005042880021
:100704005142800040862000808f500002003a0051
:10071400c085200050428800904280000010a10053
:10072400904288005142800060428000808f5000d7
:1007340004003a00904280000000a000904288002b
:100744000400370090118000610060000000e000a8
:10075400e4ff3a0087c0a9000080fa004f00be0001
:1007640000400600801f78000000fa00901180000d
:10077400620060000000e000010032003222a900a3
:100784008c40a9000080fa004f0078000040060069
:100794000200fa000040eb00004f78006042800045
:1007a400104f7800604280000000e800604288003a
:1007b4006142800040862000808f500002003a0091
:1007c400c085200060428800614280005042800061
:1007d400808f500003003a00904280000010a00077
:1007e40090428800904280000000a100904288005e
:1007f4001e4078000080fa00000006000600fa009f
:10080400881f780010079800210798000000eb006b
:10081400000f7800090037009042800062006000f9
:100824000000e0000a003a001e0090001e04400090
:10083400d7ff0700004c78001e0fe8002e00900040
:100844009e007800808f5000f3ff390001003700cc
:10085400000000001e0078004f0478000080fa00b9
:10086400000006000200fa00004f780097e0a9009b
:10087400704280001e487800704280000000e8004a
:100884007042880071428000c0852000808f500033
:1008940002003a00408520007042880090428000a7
:1008a4000090a10090428800814280007042800044
:1008b400808f500003003a00904280000080a00026
:1008c4009042880097e0a8000080fa00000006002b
:1008d4000600fa0010079800210798000000eb00ba
:1008e400000f78000a0037009142800000102000b9
:1008f400008060000000e0000a003a001e00900042
:100904001e004000104078001e0fe800d5ff0700cd
:100914002e0090009e007800808f5000f2ff390076
:1009240001003700000000001e0078000080fa007b
:10093400000006000200fa000000eb00000f78003f
:100944009142800000102000008060000000e00060
:10095400010032001e30a0009142800000202000df
:10096400008060000000e000010032001e40a00092
:1009740090428000610060000000e000010032004d
:100984001e00a00090428000620060000000e000b1
:10099400020032001e20a000010037001e10a0003b
:1009a4001e0078000080fa00000006000200fa0031
:1009b400000f7800604280009e00400040862000c6
:1009c400808f500008003600604280009e00400086
:1009d400408620000000ea0000804000c18520001d
:1009e4006140780003003700604280001e00400030
:1009f400104078000080fa00000006000000fa00b1
:100a040090428000610060000000e0000f003a00a6
:100a14006142800050428000808f50000500360003
:100a240060428000800078005042800000805000c6
:100a34000700370060428000800078005042800048
:100a44000080500068004000010037000000eb0007
:100a54000080fa00000006000000fa0091428000c5
:100a640000102000008060000000e0000f003a0049
:100a74008142800070428000808f50000500360063
:100a84008042800080007800704280000080500026
:100a940007003700804280008000780070428000a8
:100aa4000080500068004000010037000000eb00a7
:100ab4000080fa00000006000000fa009042800066
:100ac4000000d100614060000080fb0000f0a7003e
:100ad4000000ea000000ea004f00de000040780059
:100ae4000080fa00000006000000fa009042800036
:100af4004800de00614060000080fb0000f0a700b9
:100b04000000ea000000ea004f00de000040780028
:100b14000080fa00000006000000fa009011800036
:100b24000080fa00000006000000fa006040800027
:100b34000000e80060408800004080000000e800f9
:100b440000408800014080009001200000017800ee
:100b5400110009008280d8008000fd000000e00040
:100b64002c003a00a11680000004200000806000e0
:100b74000000e00006003a00204080000000e00091
:100b840003003a0010002000204088000b003700ca
:100b9400a116800000042000008060000000e00036
:100ba40006003200204080000000e0000300320014
:100bb4000428ef001000200030408800a1168000b7
:100bc40000082000008060000000e00006003a00f9
:100bd400404080000000e00003003a0010002000c4
:100be400404088000b003700a11680000008200058
:100bf400008060000000e0000600320040408000f9
:100c04000000e000030032000828ef00100020007c
:100c1400504088000140800000712200808f500005
:100c240002003a00c442a8000800370001408000d6
:100c340000e22400808f500004003a00c442a9005e
:100c44000028ef0010002000d04088000080fa0047
:100c5400000006000000fa00d1020700d2c2a8007a
:100c6400d2e2a800c002a900c022a900c042a90083
:100c7400c062a900c422a9000100370000000000de
:100c8400304080000000e000190032000628ef0028
:100c9400104080000000e8001040880011408000ef
:100ca400a000200000017800110009008280d80013
:100cb4008000fd000000e8004600dd00000c880014
:100cc400201680004300de006140600000c0ea009e
:100cd400614060000080fb00610060004300dd00b3
:100ce400211680000130a100010070002016880048
:100cf400504080000000e0000f0032000a28ef009e
:100d04004041800000f0a7000000ea000000e90074
:100d14004f00de004041880040418000e10f500058
:100d240003003a0041000700c422a9000200370072
:100d340031000700c422a8006bff07000004a200d2
:100d44000004e00007003200d04080000000e00012
:100d5400040032001a28ef00202d280000407800fb
:100d6400c0fe070054ff07000004a2000004e000d6
:100d74000200320086fe07001ee8b700a040800093
:100d84000000e000bdff32001428ef00bcff370074
:100d94000000fa00d0132000000c8800d0132000bb
:100da400100c880060002000200c8800200c8000bb
:100db40000407800674060000080fb00004188002c
:100dc4008440a9009440a8000080fa0000000600b6
:100dd400801f78000000fa00200480006400600096
:100de4000000e000010032008440a9000080fa0005
:100df4004f007800004006000000fa000041800027
:100e040000407800674060000080fb0067006000dd
:100e1400220c800081ff2f0081006100010070001e
:100e2400200c88000080fa00000006000000fa0090
:100e3400210c800080ff2f0000806000200c8800bf
:100e44000080fa00000006000200fa00000f78009b
:100e54009e007800110c88000080fa000000060053
:100e64000400fa00000f7800110798009e00780033
:100e7400110c88009e009000010c88000080fa008c
:100e8400000006000400fa00000f78001107980023
:100e94009e007800110c88009e009000010c8800d0
:100ea4000080fa00000006000400fa00000f780039
:100eb400110798009e007800110c88009e00900095
:100ec400010c88000080fa00000006000200fa000d
:100ed400000f78009e007800010c88000080fa0062
:100ee400000006000200fa00000f78009e0078005f
:100ef400110c88000080fa00000006000000fa00cf
:100f0400200480004200de00614060000080fb009d
:100f140000f0a7000000ea000000ea004f00de0035
:100f2400004078000080fa00000006000400fa0087
:100f3400100798001e0090000000e0000a003a002c
:100f4400200c80004400de00614060000080fb0053
:100f540000f0a7000000ea000000ea004f00de00f5
:100f6400004f780001003700000000001e407800a8
:100f74000080fa00000006000000fa00f00c2000d7
:100f8400300c8800f00c2000400c8800e0002000a9
:100f9400500c8800500c80000040780067406000ce
:100fa4000080fb00204188000080fa000000060059
:100fb4000000fa002104800000042000008060008a
:100fc4000000e0000100320084c0a9000080fa00a3
:100fd400000006000000fa00204180000040780074
:100fe400674060000080fb0067006000520c8000d6
:100ff40081ff2f008100610001007000500c880007
:101004000080fa00000006000000fa00510c800085
:1010140080ff2f0000806000500c88000080fa00e0
:10102400000006000200fa00000f78009e0078001d
:10103400410c88000080fa00000006000400fa0059
:10104400000f7800110798009e007800410c88007a
:101054009e009000310c88000080fa000000060019
:101064000400fa00000f7800110798009e00780031
:10107400410c88009e009000310c88000080fa002a
:10108400000006000400fa00000f78001107980021
:101094009e007800410c88009e009000310c88006e
:1010a4000080fa00000006000200fa00000f780039
:1010b4009e007800310c88000080fa0000000600d1
:1010c4000200fa00000f78009e007800410c8800ae
:1010d4000080fa00000006000000fa0020048000ee
:1010e4004600de00614060000080fb0000f0a700c5
:1010f4000000ea000000ea004f00de000040780033
:101104000080fa00000006000400fa0010079800ae
:101114001e0090000000e0000a003a00500c80001d
:101124004400de00614060000080fb0000f0a70086
:101134000000ea000000ea004f00de00004f7800e3
:1011440001003700000000001e4078000080fa0013
:10115400000006000000fa000000220030088800a9
:10116400002820006008880000002800800888000b
:1011740084e0a90094e0a800408620008040eb00b1
:10118400014878000080fa00000006003600f800ec
:10119400809fbe00829fbe00849fbe00869fbe00cb
:1011a4000000fa0060fe070050862000104078001e
:1011b4008040e800508620000148780040862000e6
:1011c40011c0b3000148780084e0a9000080fa004f
:1011d4004f03be004f02be004f01be004f00be00d1
:1011e4003600f900004006000200fa00000f780003
:1011f4009e00780061088800408620008040eb0053
:10120400014878000080fa00000006000000fa009f
:10121400600880000080fa00000006000200fa0066
:10122400000f78009e007800310888004086200076
:101234008040eb00014878000080fa0000000600be
:101244000000fa00300880000080fa000000060068
:101254000000fa000080fa00000006000000fa0016
:10126400408620008040eb000148780094e0a8000c
:1012740011e1a8000080fa00000006000000fa0056
:1012840011e1a90094e0a9000080fa000000060022
:101294000200fa0040862000104f78001e407800bb
:1012a4000004e00003003200408620008040eb0090
:1012b400014878001e4078000080fa000000060013
:1012c4000000fa0050862000104078000080fb00e7
:1012d4000080fa00000006000000fa00508620009a
:1012e4008040eb00014878000080fa00000006000e
:1012f4000000fa000a21ef00501a2000700888004c
:101304000000280090088800608620008040eb00e0
:10131400014878000080fa00000006000000fa008e
:101324002104800000102000008060000000e00024
:101334000900320070862000104078008040e800e8
:1013440070862000014878006086200011c0b30038
:10135400014878008500a9000080fa00000006001a
:101364000200fa00000f78009e00780071088800df
:10137400608620008040eb00014878000080fa007d
:10138400000006000000fa00700880000080fa00e7
:10139400000006000200fa00000f78009e007800aa
:1013a40051088800608620008040eb0001487800e6
:1013b4000080fa00000006000000fa0050088000d7
:1013c4000080fa00000006000000fa006086200099
:1013d4008040eb000148780013e1a8000080fa0087
:1013e400000006000000fa0013e1a9000080fa00e2
:1013f400000006000200fa0060862000104f78000a
:101404001e4078000004e0000300320060862000e3
:101414008040eb00014878001e4078000080fa000c
:10142400000006000000fa007086200010407800da
:101434000080fb000080fa00000006000000fa00b3
:10144400708620008040eb00014878000080fa009c
:10145400000006000000fa0070082000100a88004e
:10146400100a800000407800674060000080fb00a4
:10147400304188008420a9009420a8000080fa004c
:10148400000006003600f800809fbe00829fbe0068
:10149400849fbe00869fbe000000fa0020048000e6
:1014a400620060000000e000010032008420a90016
:1014b400c0a62000000001000080fa004f03be0017
:1014c4004f02be004f01be004f00be003600f900bf
:1014d400004006000000fa000080fa000000060048
:1014e4000000fa003041800000407800674060004e
:1014f4000080fb0067006000120a800081ff2f005b
:101504008100610001007000100a88000080fa0068
:10151400000006000000fa00110a800080ff2f007e
:1015240000806000100a88000080fa0000000600b5
:101534000000fa00000a80000080fa0000000600a3
:101544000000fa00100a80004400de0061406000e0
:101554000080fb0000f0a7000000ea000000ea00a1
:101564004f00de00004078000080fa000000060012
:101574000000fa00100a80006800600000f0a70074
:101584000000ea000000e9004f00de00004078009f
:101594000080fa00000006000000fa00c422ef00f8
:1015a400ca22ef00d022ef00d622ef00dc22ef00a7
:1015b4008002200010178800e822ef00f06f2c0052
:1015c400001688000080eb0030168800e0012f0030
:1015d40060168800c0ff2f0090168800f03f20009e
:1015e400c0168800f01d2300f0168800f03c2f0080
:1015f400201788006820ef006a20ef00c026ef0063
:10160400c626ef00cc26ef00d226ef00d826ef0046
:10161400de26ef00e426ef00000c200060198800ad
:101624000080fa00000006000000fa002106800095
:10163400f08f2f00008060000080a000200688004a
:1016440091058000f0ff28000080600000c0a00029
:101654009005880091058000f08f2f0000806000c5
:101664000080a0009005880021058000f0f82f007c
:10167400008060000040a000200588002105800053
:10168400f08f2f00008060000080a00020058800fb
:1016940031058000f0ff28000080600000c0a00039
:0c16a400300588000080fa0000000600fd
:020000040000fa
:1016b0002008000002000000000000002a080000ce
:1016c00020000000000000002208000002000000ce
:1016d00002000000ffff000064080000020000009c
:1016e00000000000240800000200000000000000cc
:1016f0006608000002000000000000004a08000028
:101700001a0000000000000026080000020000008f
:1017100000000000000800002000000000000000a1
:101720002808000002000000020000000100000084
:0417300000000000b5
:020000040000fa
:10173400000f78009e00780011418800ffff3700f9
:101744000000fa00a0822000800778002084200096
:10175400000188000080fa00000006003600f8004e
:101764008020a9000000eb00f1ff07003600f8001c
:10177400f3ff07008040a90010002000ecff0700e1
:101784003600f8008060a90020002000e8ff070070
:101794003600f8008080a90030002000e4ff070034
:1017a4000000fa007cff0700090007009eff070005
:1017b4007ffb0700cefe070075fd0700eefd070066
:1017c40064fe070023ff07000080fa000000060003
:1017d4000000fa000001eb00600420007105200005
:1017e4002374200080497800814978008249780078
:1017f40000002300203a88004827ef004027ef002c
:081804000080fa00000006005c
:020000040000fa
:020000040002f8
:04aff800bff900009d
:020000040000fa
:020000040002f8
:04affc007f3f000093
:00000001FF
