:020000040000fa
:080000000002040000000000f2
:020000040000fa
:04000800c80200002a
:020000040000fa
:04000c00880a00005e
:020000040000fa
:040010009a0a000048
:020000040000fa
:04001400900a00004e
:020000040000fa
:04001800a20a000038
:020000040000fa
:04001c00c802000016
:020000040000fa
:04002000c802000012
:020000040000fa
:04002400c80200000e
:020000040000fa
:04002800c80200000a
:020000040000fa
:04002c0004090000c3
:020000040000fa
:04003000aa0500001d
:020000040000fa
:04003400c8020000fe
:020000040000fa
:04003800c8020000fa
:020000040000fa
:04003c00c8020000f6
:020000040000fa
:04004000c8020000f2
:020000040000fa
:040044008807000029
:020000040000fa
:04004800c8020000ea
:020000040000fa
:04004c00c8020000e6
:020000040000fa
:04005000c8020000e2
:020000040000fa
:04005400c8020000de
:020000040000fa
:04005800c8020000da
:020000040000fa
:04005c00c8020000d6
:020000040000fa
:04006000c8020000d2
:020000040000fa
:04006400c8020000ce
:020000040000fa
:04006800c8020000ca
:020000040000fa
:04006c00c8020000c6
:020000040000fa
:04007000c8020000c2
:020000040000fa
:04007400c8020000be
:020000040000fa
:04007800c8020000ba
:020000040000fa
:04007c00c8020000b6
:020000040000fa
:04008000c8020000b2
:020000040000fa
:04008400c8020000ae
:020000040000fa
:04008800c8020000aa
:020000040000fa
:04008c00c8020000a6
:020000040000fa
:04009000c8020000a2
:020000040000fa
:04009400c80200009e
:020000040000fa
:04009800c80200009a
:020000040000fa
:04009c00c802000096
:020000040000fa
:0400a00062030000f7
:020000040000fa
:0400a4000c03000049
:020000040000fa
:0400a800c80200008a
:020000040000fa
:0400ac00c802000086
:020000040000fa
:0400b000c802000082
:020000040000fa
:0400b400c80200007e
:020000040000fa
:0400b800c80200007a
:020000040000fa
:0400bc00c802000076
:020000040000fa
:0400c000c802000072
:020000040000fa
:0400c400c80200006e
:020000040000fa
:0400c800c80200006a
:020000040000fa
:0400cc00c802000066
:020000040000fa
:0400d000c802000062
:020000040000fa
:0400d400c80200005e
:020000040000fa
:0400d800c80200005a
:020000040000fa
:0400dc00c802000056
:020000040000fa
:0400e000c802000052
:020000040000fa
:0400e400c80200004e
:020000040000fa
:0400e800c80200004a
:020000040000fa
:0400ec00c802000046
:020000040000fa
:0400f000c802000042
:020000040000fa
:0400f400c80200003e
:020000040000fa
:0400f800c80200003a
:020000040000fa
:0400fc00c802000036
:020000040000fa
:04010000c802000031
:020000040000fa
:04010400c80200002d
:020000040000fa
:04010800c802000029
:020000040000fa
:04010c00c802000025
:020000040000fa
:04011000c802000021
:020000040000fa
:04011400c80200001d
:020000040000fa
:04011800c802000019
:020000040000fa
:04011c00c802000015
:020000040000fa
:04012000c802000011
:020000040000fa
:04012400c80200000d
:020000040000fa
:04012800c802000009
:020000040000fa
:04012c00c802000005
:020000040000fa
:04013000a803000020
:020000040000fa
:04013400c8020000fd
:020000040000fa
:04020800c802000028
:020000040000fa
:04020c00c802000024
:020000040000fa
:04021000c802000020
:020000040000fa
:04021400c80200001c
:020000040000fa
:04021800c802000018
:020000040000fa
:04021c00c802000014
:020000040000fa
:04022000c802000010
:020000040000fa
:04022400c80200000c
:020000040000fa
:04022800c802000008
:020000040000fa
:04022c00c802000004
:020000040000fa
:04023000c802000000
:020000040000fa
:04023400c8020000fc
:020000040000fa
:04023800c8020000f8
:020000040000fa
:04023c00c8020000f4
:020000040000fa
:04024000c8020000f0
:020000040000fa
:04024400c8020000ec
:020000040000fa
:04024800c8020000e8
:020000040000fa
:04024c00c8020000e4
:020000040000fa
:04025000c8020000e0
:020000040000fa
:04025400c8020000dc
:020000040000fa
:04025800c8020000d8
:020000040000fa
:04025c00c8020000d4
:020000040000fa
:04026000c8020000d0
:020000040000fa
:04026400c8020000cc
:020000040000fa
:04026800c8020000c8
:020000040000fa
:04026c00c8020000c4
:020000040000fa
:04027000c8020000c0
:020000040000fa
:04027400c8020000bc
:020000040000fa
:04027800c8020000b8
:020000040000fa
:04027c00c8020000b4
:020000040000fa
:04028000c8020000b0
:020000040000fa
:04028400c8020000ac
:020000040000fa
:04028800c8020000a8
:020000040000fa
:04028c00c8020000a4
:020000040000fa
:04029000c8020000a0
:020000040000fa
:04029400c80200009c
:020000040000fa
:04029800c802000098
:020000040000fa
:04029c00c802000094
:020000040000fa
:0402a000c802000090
:020000040000fa
:0402a400c80200008c
:020000040000fa
:0402a800c802000088
:020000040000fa
:0402ac00c802000084
:020000040000fa
:0402b000c802000080
:020000040000fa
:0402b400c80200007c
:020000040000fa
:0402b800c802000078
:020000040000fa
:0402bc00c802000074
:020000040000fa
:0402c000c802000070
:020000040000fa
:0402c400c80200006c
:020000040000fa
:0402c800c802000068
:020000040000fa
:0402cc00c802000064
:020000040000fa
:0402d000c802000060
:020000040000fa
:0402d400c80200005c
:020000040000fa
:0402d800c802000058
:020000040000fa
:0402dc00c802000054
:020000040000fa
:0402e000c802000050
:020000040000fa
:0402e400c80200004c
:020000040000fa
:0402e800c802000048
:020000040000fa
:0402ec00c802000044
:020000040000fa
:0402f000c802000040
:020000040000fa
:0402f400c80200003c
:020000040000fa
:0402f800c802000038
:020000040000fa
:0402fc00c802000034
:020000040000fa
:04030000c80200002f
:020000040000fa
:04030400c80200002b
:020000040000fa
:04030800c802000027
:020000040000fa
:04030c00c802000023
:020000040000fa
:04031000c80200001f
:020000040000fa
:04031400c80200001b
:020000040000fa
:04031800c802000017
:020000040000fa
:04031c00c802000013
:020000040000fa
:04032000c80200000f
:020000040000fa
:04032400c80200000b
:020000040000fa
:04032800c802000007
:020000040000fa
:04032c00c802000003
:020000040000fa
:04033000c8020000ff
:020000040000fa
:04033400c8020000fb
:020000040000fa
:10040000cf8420000e7f22000e0188000000000033
:10041000000020000000e000020032000001200087
:1004200020028800140007005b0007000000e000c5
:1004300003003a0080a320000100200002003700e2
:100440000000200001002000810f70000100320038
:1004500014000700000020000000e000020032004d
:1004600000000200000000002e0a02000000000050
:100470000040da000000fe004440a9000000200017
:100480000000e0000300320000002000a00188000e
:100490004440a800000006008a1f78008b1f7800e7
:1004a0000000060091018800800478000000eb0045
:1004b0001a003700e284440032a0b4009905ba0063
:1004c000e284440032a0b4009906ba00e2844400f9
:1004d00032a0b4000006eb00476fde00fd07b2005b
:1004e000636ce10003003a00ebff07000000eb0043
:1004f0000a003700606ce10004003a00005deb0088
:100500008b05e900fdff3e00040037006168e10053
:10051000010032000086eb000b00070019c7ba008b
:100520001905ba000e04e00003003a000a00e000da
:10053000e0ff3a0000000600fe07b2009e018800be
:100540008a047800f5ff3700395dba008b05e900b1
:100550000c003200295dba008b05e900080032006a
:100560000c00e00003003a00e284440032a0b40032
:10057000f5ff370019ddba008b05e900faff3a00f4
:100580008904e800e184440032a0b40000000600c1
:0c0590000040da000000fe000000050042
:020000040000fa
:10059c000000fa00a0002000801188003222ef0039
:1005ac0020022000c011880097c0a80031e2a800ea
:1005bc003342a80080832000a04188008083200063
:1005cc009041880000842000804188000084200035
:1005dc0070418800b04180000010a000b04188003c
:1005ec00b04180000090a000b0418800b041800074
:1005fc000080a100b0418800b04180000000a10043
:10060c00b04188000080fa0000000600809fbe0008
:10061c000000fa00b1418000002020000080600042
:10062c000000e0000200320097e0a9001f00370034
:10063c0087e0a90018003700a04180001040780026
:10064c000080fb00a0118800a04180000000e800a1
:10065c00a0418800a141800000842000808f5000c0
:10066c0002003a0080832000a0418800b041800045
:10067c000080a100b0418800a14180009041800021
:10068c00808f500004003a00b04180000090a00020
:10069c00b041880005003700911180000020200037
:1006ac00008060000000e000e3ff32000080fa00f0
:1006bc004f00be0000400600809fbe000000fa0004
:1006cc001800370070418000b11180008140780023
:1006dc0001487800704180000000e80070418800fb
:1006ec007141800080842000808f500002003a000d
:1006fc000084200070418800b04180000010a100ef
:10070c00b04188007141800080418000808f500092
:10071c0004003a00b04180000000a000b041880005
:10072c000400370090118000610060000000e000c0
:10073c00e4ff3a0087c0a9000080fa004f00be0019
:10074c0000400600801f78000000fa009011800025
:10075c00620060000000e000010032003222a900bb
:10076c008c40a9000080fa004f0078000040060081
:10077c000200fa000040eb00004f7800804180003e
:10078c00104f7800804180000000e8008041880014
:10079c008141800080842000808f500002003a004c
:1007ac0000842000804188008141800070418000dd
:1007bc00808f500003003a00b04180000010a00070
:1007cc00b0418800b04180000000a100b041880019
:1007dc001e4078000080fa00000006000600fa00b7
:1007ec00881f780010079800210798000000eb0084
:1007fc00000f780009003700b041800062006000f3
:10080c000000e0000a003a001e0090001e044000a8
:10081c00d7ff0700004c78001e0fe8002e00900058
:10082c009e007800808f5000f3ff390001003700e4
:10083c00000000001e0078004f0478000080fa00d1
:10084c00000006000200fa00004f780097e0a900b3
:10085c00904180001e487800904180000000e80024
:10086c00904188009141800000842000808f5000ce
:10087c0002003a008083200090418800b041800043
:10088c000090a100b0418800a141800090418000ff
:10089c00808f500003003a00b04180000080a0001f
:1008ac00b041880097e0a8000080fa000000060024
:1008bc000600fa0010079800210798000000eb00d2
:1008cc00000f78000a003700b141800000102000b2
:1008dc00008060000000e0000a003a001e0090005a
:1008ec001e004000104078001e0fe800d5ff0700e6
:1008fc002e0090009e007800808f5000f2ff39008f
:10090c0001003700000000001e0078000080fa0093
:10091c00000006000200fa000000eb00000f780057
:10092c00b141800000102000008060000000e00059
:10093c00010032001e30a000b141800000202000d8
:10094c00008060000000e000010032001e40a000aa
:10095c00b0418000610060000000e0000100320046
:10096c001e00a000b0418000620060000000e000aa
:10097c00020032001e20a000010037001e10a00053
:10098c001e0078000080fa00000006000200fa0049
:10099c00000f7800804180009e0040008084200081
:1009ac00808f500008003600804180009e0040007f
:1009bc00808420000000ea000080400001842000b8
:1009cc006140780003003700804180001e00400029
:1009dc00104078000080fa00000006000000fa00c9
:1009ec00b0418000610060000000e0000f003a00a0
:1009fc008141800070418000808f500005003600de
:100a0c0080418000800078007041800000805000a0
:100a1c000700370080418000800078007041800022
:100a2c000080500068004000010037000000eb001f
:100a3c000080fa00000006000000fa00b1418000be
:100a4c0000102000008060000000e0000f003a0061
:100a5c00a141800090418000808f5000050036003d
:100a6c00a041800080007800904180000080500000
:100a7c0007003700a0418000800078009041800082
:100a8c000080500068004000010037000000eb00bf
:100a9c000080fa00000006000000fa00b04180005f
:100aac000000d100614060000080fb0000f0a70056
:100abc000000ea000000ea004f00de000040780071
:100acc000080fa00000006000000fa00b04180002f
:100adc004800de00614060000080fb0000f0a700d1
:100aec000000ea000000ea004f00de000040780041
:100afc000080fa00000006000000fa00901180004f
:100b0c000080fa00000006000000fa00d01320005c
:100b1c00000c8800d0132000100c8800600020000e
:100b2c00200c8800200c800000407800674060009a
:100b3c000080fb00304088008440a9009440a8004d
:100b4c000080fa0000000600801f78000000fa0008
:100b5c0020048000640060000000e000010032000e
:100b6c008440a9000080fa004f0078000040060085
:100b7c000000fa00304080000040780067406000c0
:100b8c000080fb0067006000220c800081ff2f00ba
:100b9c008100610001007000200c88000080fa00c8
:100bac00000006000000fa00210c800080ff2f00de
:100bbc0000806000200c88000080fa000000060015
:100bcc000200fa00000f78009e007800110c8800db
:100bdc000080fa00000006000400fa00000f780004
:100bec00110798009e007800110c88009e00900060
:100bfc00010c88000080fa00000006000400fa00d6
:100c0c00000f7800110798009e007800110c8800e6
:100c1c009e009000010c88000080fa000000060085
:100c2c000400fa00000f7800110798009e0078006d
:100c3c00110c88009e009000010c88000080fa00c6
:100c4c00000006000200fa00000f78009e007800f9
:100c5c00010c88000080fa00000006000200fa0077
:100c6c00000f78009e007800110c88000080fa00bc
:100c7c00000006000000fa00200480004200de00a4
:100c8c00614060000080fb0000f0a7000000ea005b
:100c9c000000ea004f00de00004078000080fa00ff
:100cac00000006000400fa00100798001e009000d7
:100cbc000000e0000a003a00200c80004400de0036
:100ccc00614060000080fb0000f0a7000000ea001b
:100cdc000000ea004f00de00004f780001003700f2
:100cec00000000001e4078000080fa0000000600a2
:100cfc000000fa00f00c2000300c8800f00c2000f2
:100d0c00400c8800e0002000500c8800500c800043
:100d1c0000407800674060000080fb005040880075
:100d2c000080fa00000006000000fa002104800098
:100d3c0000042000008060000000e0000100320090
:100d4c0084c0a9000080fa00000006000000fa0030
:100d5c005040800000407800674060000080fb003d
:100d6c0067006000520c800081ff2f008100610041
:100d7c0001007000500c88000080fa000000060092
:100d8c000000fa00510c800080ff2f0000806000f2
:100d9c00500c88000080fa00000006000200fa00e7
:100dac00000f78009e007800410c88000080fa004b
:100dbc00000006000400fa00000f780011079800ec
:100dcc009e007800410c88009e009000310c880039
:100ddc000080fa00000006000400fa00000f780002
:100dec00110798009e007800410c88009e0090002e
:100dfc00310c88000080fa00000006000400fa00a4
:100e0c00000f7800110798009e007800410c8800b4
:100e1c009e009000310c88000080fa000000060053
:100e2c000200fa00000f78009e007800310c880058
:100e3c000080fa00000006000200fa00000f7800a3
:100e4c009e007800410c88000080fa00000006002b
:100e5c000000fa00200480004600de0061406000c3
:100e6c000080fb0000f0a7000000ea000000ea0090
:100e7c004f00de00004078000080fa000000060001
:100e8c000400fa00100798001e0090000000e0001b
:100e9c000a003a00500c80004400de006140600003
:100eac000080fb0000f0a7000000ea000000ea0050
:100ebc004f00de00004f78000100370000000000fa
:100ecc001e4078000080fa00000006000000fa00c6
:100edc0000002200300888000028200060088800ec
:100eec00000028008008880084e0a90094e0a80095
:100efc00808420008040eb00014878000080fa00dc
:100f0c00000006003600f800809fbe00829fbe00e5
:100f1c00849fbe00869fbe000000fa0034010700cb
:100f2c0090842000104078008040e80090842000dd
:100f3c00014878008084200011c0b300014878007b
:100f4c0084e0a9000080fa004f03be004f02be00ef
:100f5c004f01be004f00be003600f90000400600f5
:100f6c000200fa00000f78009e00780061088800eb
:100f7c00808420008040eb00014878000080fa005b
:100f8c00000006000000fa00600880000080fa00f3
:100f9c00000006000200fa00000f78009e007800a6
:100fac0031088800808420008040eb0001487800e4
:100fbc000080fa00000006000000fa0030088000f3
:100fcc000080fa00000006000000fa000080fa0021
:100fdc00000006000000fa00808420008040eb0036
:100fec000148780094e0a80011e1a8000080fa0004
:100ffc00000006000000fa0011e1a90094e0a9002d
:10100c000080fa00000006000200fa008084200034
:10101c00104f78001e4078000004e00003003200fe
:10102c00808420008040eb00014878001e4078004e
:10103c000080fa00000006000000fa0090842000f6
:10104c00104078000080fb000080fa0000000600d1
:10105c000000fa00908420008040eb0001487800ea
:10106c000080fa00000006000000fa000a21ef00e0
:10107c00501a200070088800000028009008880092
:10108c00a08420008040eb00014878000080fa002a
:10109c00000006000000fa0021048000001020006f
:1010ac00008060000000e00009003200b0842000e5
:1010bc00104078008040e800b0842000014878009f
:1010cc00a084200011c0b300014878008500a9005d
:1010dc000080fa00000006000200fa00000f780001
:1010ec009e00780071088800a08420008040eb00ee
:1010fc00014878000080fa00000006000000fa00a9
:10110c00700880000080fa00000006000200fa005f
:10111c00000f78009e00780051088800a084200001
:10112c008040eb00014878000080fa0000000600c7
:10113c000000fa00500880000080fa000000060051
:10114c000000fa00a08420008040eb0001487800e9
:10115c0013e1a8000080fa00000006000000fa006d
:10116c0013e1a9000080fa00000006000200fa005a
:10117c00a0842000104f78001e4078000004e0008e
:10118c0003003200a08420008040eb00014878006e
:10119c001e4078000080fa00000006000000fa00f3
:1011ac00b0842000104078000080fb000080fa0022
:1011bc00000006000000fa00b08420008040eb0024
:1011cc00014878000080fa00000006000000fa00d8
:1011dc0070082000100a8800100a80000040780077
:1011ec00674060000080fb00604088008420a900fc
:1011fc009420a8000080fa0000000600801f7800f0
:10120c000000fa0020048000620060000000e00092
:10121c00010032008420a9000080fa004f00780001
:10122c00004006000000fa0060408000004078009a
:10123c00674060000080fb0067006000120a8000bd
:10124c0081ff2f008100610001007000100a8800ee
:10125c000080fa00000006000000fa00110a80006d
:10126c0080ff2f0000806000100a88000080fa00c8
:10127c00000006000000fa00000a80000080fa005e
:10128c00000006000000fa00100a80004400de0096
:10129c00614060000080fb0000f0a7000000ea0045
:1012ac000000ea004f00de00004078000080fa00e9
:1012bc00000006000000fa00100a800068006000c0
:1012cc0000f0a7000000ea000000e9004f00de007b
:1012dc00004078000080fa00000006000000fa00d0
:1012ec00c422ef00ca22ef00d022ef00d622ef007a
:1012fc00dc22ef008002200010178800e822ef00ab
:10130c00f06f2c00001688000080eb00301688006f
:10131c00e0012f0060168800c0ff2f009016880097
:10132c00f03f2000c0168800f01d2300f016880046
:10133c00f03c2f00201788006820ef006a20ef0097
:10134c00c026ef00c626ef00cc26ef00d226ef0019
:10135c00d826ef00de26ef00e426ef00000c20007c
:10136c00601988000080fa00000006000000fa00f6
:10137c0021068000f08f2f00008060000080a0000c
:10138c002006880091058000f0ff28000080600096
:10139c0000c0a0009005880091058000f08f2f0000
:1013ac00008060000080a00090058800210580006e
:1013bc00f0f82f00008060000040a000200588009d
:1013cc0021058000f08f2f00008060000080a000bd
:1013dc002005880031058000f0ff280000806000a7
:1013ec0000c0a000300588000080fa000000060054
:1013fc000000fa0010408000214080006100400095
:10140c00e0804800104088002140880000408000a7
:10141c000000e800004088000140800000712200bc
:10142c00808f500002003a00c402a800060037006a
:10143c000140800000e22400808f500002003a003e
:10144c00c402a9000028ef000080fa00000006008a
:10145c000000fa003c000700c002a9009afd07003a
:04146c00feff370048
:020000040000fa
:101470000608000002000000000000000e08000046
:10148000200000000000000008080000020000002a
:1014900002000000ffff00004808000002000000fa
:1014a000000000000a080000020000000000000028
:1014b0004a08000002000000000000002e080000a2
:1014c0001a000000000000000c08000002000000ec
:1014d00000000000000800000600000000000000fe
:0414e0000000000008
:020000040000fa
:1014e400000f78009e00780041408800ffff37001d
:1014f4000000fa00e080200080077800608220006d
:10150400000188000080fa00000006003600f800a0
:101514008020a9000000eb00f1ff07003600f8006e
:10152400f3ff07008040a90010002000ecff070033
:101534003600f8008060a90020002000e8ff0700c2
:101544003600f8008080a90030002000e4ff070086
:101554000000fa0063ff07000900070085ff070089
:101564000dfc0700c2fe070069fd0700e2fd07004d
:1015740058fe070017ff07000080fa00000006006d
:101584000000fa000001eb00600420007105200057
:1015940023742000804978008149780082497800ca
:1015a40000002300203a88004827ef004027ef007e
:0815b4000080fa0000000600af
:020000040000fa
:020000040002f8
:04aff800bff900009d
:020000040000fa
:020000040002f8
:04affc007f3f000093
:00000001FF
