:020000040000fa
:080000000002040000000000f2
:020000040000fa
:04000800c80200002a
:020000040000fa
:04000c0030090000b7
:020000040000fa
:0400100042090000a1
:020000040000fa
:0400140038090000a7
:020000040000fa
:040018004a09000091
:020000040000fa
:04001c00c802000016
:020000040000fa
:04002000c802000012
:020000040000fa
:04002400c80200000e
:020000040000fa
:04002800c80200000a
:020000040000fa
:04002c00c802000006
:020000040000fa
:04003000aa0500001d
:020000040000fa
:04003400c8020000fe
:020000040000fa
:04003800c8020000fa
:020000040000fa
:04003c00c8020000f6
:020000040000fa
:04004000c8020000f2
:020000040000fa
:04004400c8020000ee
:020000040000fa
:04004800c8020000ea
:020000040000fa
:04004c00c8020000e6
:020000040000fa
:04005000c8020000e2
:020000040000fa
:04005400c8020000de
:020000040000fa
:04005800c8020000da
:020000040000fa
:04005c00c8020000d6
:020000040000fa
:04006000c8020000d2
:020000040000fa
:04006400c8020000ce
:020000040000fa
:04006800c8020000ca
:020000040000fa
:04006c00c8020000c6
:020000040000fa
:04007000c8020000c2
:020000040000fa
:04007400c8020000be
:020000040000fa
:04007800c8020000ba
:020000040000fa
:04007c00c8020000b6
:020000040000fa
:04008000c8020000b2
:020000040000fa
:04008400c8020000ae
:020000040000fa
:04008800c8020000aa
:020000040000fa
:04008c00c8020000a6
:020000040000fa
:04009000c8020000a2
:020000040000fa
:04009400c80200009e
:020000040000fa
:04009800c80200009a
:020000040000fa
:04009c00c802000096
:020000040000fa
:0400a00062030000f7
:020000040000fa
:0400a4000c03000049
:020000040000fa
:0400a800c80200008a
:020000040000fa
:0400ac00c802000086
:020000040000fa
:0400b000c802000082
:020000040000fa
:0400b400c80200007e
:020000040000fa
:0400b800c80200007a
:020000040000fa
:0400bc00c802000076
:020000040000fa
:0400c000c802000072
:020000040000fa
:0400c400c80200006e
:020000040000fa
:0400c800c80200006a
:020000040000fa
:0400cc00c802000066
:020000040000fa
:0400d000c802000062
:020000040000fa
:0400d400c80200005e
:020000040000fa
:0400d800c80200005a
:020000040000fa
:0400dc00c802000056
:020000040000fa
:0400e000c802000052
:020000040000fa
:0400e400c80200004e
:020000040000fa
:0400e800c80200004a
:020000040000fa
:0400ec00c802000046
:020000040000fa
:0400f000c802000042
:020000040000fa
:0400f400c80200003e
:020000040000fa
:0400f800c80200003a
:020000040000fa
:0400fc00c802000036
:020000040000fa
:04010000c802000031
:020000040000fa
:04010400c80200002d
:020000040000fa
:04010800c802000029
:020000040000fa
:04010c00c802000025
:020000040000fa
:04011000c802000021
:020000040000fa
:04011400c80200001d
:020000040000fa
:04011800c802000019
:020000040000fa
:04011c00c802000015
:020000040000fa
:04012000c802000011
:020000040000fa
:04012400c80200000d
:020000040000fa
:04012800c802000009
:020000040000fa
:04012c00c802000005
:020000040000fa
:04013000a803000020
:020000040000fa
:04013400c8020000fd
:020000040000fa
:04020800c802000028
:020000040000fa
:04020c00c802000024
:020000040000fa
:04021000c802000020
:020000040000fa
:04021400c80200001c
:020000040000fa
:04021800c802000018
:020000040000fa
:04021c00c802000014
:020000040000fa
:04022000c802000010
:020000040000fa
:04022400c80200000c
:020000040000fa
:04022800c802000008
:020000040000fa
:04022c00c802000004
:020000040000fa
:04023000c802000000
:020000040000fa
:04023400c8020000fc
:020000040000fa
:04023800c8020000f8
:020000040000fa
:04023c00c8020000f4
:020000040000fa
:04024000c8020000f0
:020000040000fa
:04024400c8020000ec
:020000040000fa
:04024800c8020000e8
:020000040000fa
:04024c00c8020000e4
:020000040000fa
:04025000c8020000e0
:020000040000fa
:04025400c8020000dc
:020000040000fa
:04025800c8020000d8
:020000040000fa
:04025c00c8020000d4
:020000040000fa
:04026000c8020000d0
:020000040000fa
:04026400c8020000cc
:020000040000fa
:04026800c8020000c8
:020000040000fa
:04026c00c8020000c4
:020000040000fa
:04027000c8020000c0
:020000040000fa
:04027400c8020000bc
:020000040000fa
:04027800c8020000b8
:020000040000fa
:04027c00c8020000b4
:020000040000fa
:04028000c8020000b0
:020000040000fa
:04028400c8020000ac
:020000040000fa
:04028800c8020000a8
:020000040000fa
:04028c00c8020000a4
:020000040000fa
:04029000c8020000a0
:020000040000fa
:04029400c80200009c
:020000040000fa
:04029800c802000098
:020000040000fa
:04029c00c802000094
:020000040000fa
:0402a000c802000090
:020000040000fa
:0402a400c80200008c
:020000040000fa
:0402a800c802000088
:020000040000fa
:0402ac00c802000084
:020000040000fa
:0402b000c802000080
:020000040000fa
:0402b400c80200007c
:020000040000fa
:0402b800c802000078
:020000040000fa
:0402bc00c802000074
:020000040000fa
:0402c000c802000070
:020000040000fa
:0402c400c80200006c
:020000040000fa
:0402c800c802000068
:020000040000fa
:0402cc00c802000064
:020000040000fa
:0402d000c802000060
:020000040000fa
:0402d400c80200005c
:020000040000fa
:0402d800c802000058
:020000040000fa
:0402dc00c802000054
:020000040000fa
:0402e000c802000050
:020000040000fa
:0402e400c80200004c
:020000040000fa
:0402e800c802000048
:020000040000fa
:0402ec00c802000044
:020000040000fa
:0402f000c802000040
:020000040000fa
:0402f400c80200003c
:020000040000fa
:0402f800c802000038
:020000040000fa
:0402fc00c802000034
:020000040000fa
:04030000c80200002f
:020000040000fa
:04030400c80200002b
:020000040000fa
:04030800c802000027
:020000040000fa
:04030c00c802000023
:020000040000fa
:04031000c80200001f
:020000040000fa
:04031400c80200001b
:020000040000fa
:04031800c802000017
:020000040000fa
:04031c00c802000013
:020000040000fa
:04032000c80200000f
:020000040000fa
:04032400c80200000b
:020000040000fa
:04032800c802000007
:020000040000fa
:04032c00c802000003
:020000040000fa
:04033000c8020000ff
:020000040000fa
:04033400c8020000fb
:020000040000fa
:100400004f8420000e7f22000e01880000000000b3
:10041000000020000000e000020032000001200087
:1004200020028800140007005b0007000000e000c5
:1004300003003a00209b200001002000020037004a
:100440000000200001002000810f70000100320038
:1004500014000700000020000000e000020032004d
:100460000000020000000000e0090200000000009f
:100470000040da000000fe004440a9000000200017
:100480000000e0000300320000002000a00188000e
:100490004440a800000006008a1f78008b1f7800e7
:1004a0000000060091018800800478000000eb0045
:1004b0001a003700e284440032a0b4009905ba0063
:1004c000e284440032a0b4009906ba00e2844400f9
:1004d00032a0b4000006eb00476fde00fd07b2005b
:1004e000636ce10003003a00ebff07000000eb0043
:1004f0000a003700606ce10004003a00005deb0088
:100500008b05e900fdff3e00040037006168e10053
:10051000010032000086eb000b00070019c7ba008b
:100520001905ba000e04e00003003a000a00e000da
:10053000e0ff3a0000000600fe07b2009e018800be
:100540008a047800f5ff3700395dba008b05e900b1
:100550000c003200295dba008b05e900080032006a
:100560000c00e00003003a00e284440032a0b40032
:10057000f5ff370019ddba008b05e900faff3a00f4
:100580008904e800e184440032a0b40000000600c1
:0c0590000040da000000fe000000050042
:020000040000fa
:10059c000000fa00a0002000801188003222ef0039
:1005ac0020022000c011880097c0a80031e2a800ea
:1005bc003342a800008320006041880000832000a3
:1005cc0050418800808320004041880080832000b7
:1005dc0030418800704180000010a00070418800fc
:1005ec00704180000090a000704188007041800034
:1005fc000080a10070418800704180000000a100c3
:10060c00704188000080fa0000000600809fbe0048
:10061c000000fa0071418000002020000080600082
:10062c000000e0000200320097e0a9001f00370034
:10063c0087e0a90018003700604180001040780066
:10064c000080fb00a0118800604180000000e800e1
:10065c00604188006141800080832000808f5000c1
:10066c0002003a0000832000604188007041800045
:10067c000080a100704188006141800050418000e1
:10068c00808f500004003a00704180000090a00060
:10069c007041880005003700911180000020200077
:1006ac00008060000000e000e3ff32000080fa00f0
:1006bc004f00be0000400600809fbe000000fa0004
:1006cc001800370030418000b11180008140780063
:1006dc0001487800304180000000e800304188007b
:1006ec003141800000842000808f500002003a00cd
:1006fc008083200030418800704180000010a100f0
:10070c00704188003141800040418000808f500052
:10071c0004003a00704180000000a0007041880085
:10072c000400370090118000610060000000e000c0
:10073c00e4ff3a0087c0a9000080fa004f00be0019
:10074c0000400600801f78000000fa009011800025
:10075c00620060000000e000010032003222a900bb
:10076c008c40a9000080fa004f0078000040060081
:10077c000200fa000040eb00004f7800404180007e
:10078c00104f7800404180000000e8004041880094
:10079c004141800000842000808f500002003a000c
:1007ac00808320004041880041418000304180001e
:1007bc00808f500003003a00704180000010a000b0
:1007cc0070418800704180000000a10070418800d9
:1007dc001e4078000080fa00000006000600fa00b7
:1007ec00881f780010079800210798000000eb0084
:1007fc00000f780009003700704180006200600033
:10080c000000e0000a003a001e0090001e044000a8
:10081c00d7ff0700004c78001e0fe8002e00900058
:10082c009e007800808f5000f3ff390001003700e4
:10083c00000000001e0078004f0478000080fa00d1
:10084c00000006000200fa00004f780097e0a900b3
:10085c00504180001e487800504180000000e800a4
:10086c00504188005141800080832000808f5000cf
:10087c0002003a0000832000504188007041800043
:10088c000090a100704188006141800050418000bf
:10089c00808f500003003a00704180000080a0005f
:1008ac007041880097e0a8000080fa000000060064
:1008bc000600fa0010079800210798000000eb00d2
:1008cc00000f78000a0037007141800000102000f2
:1008dc00008060000000e0000a003a001e0090005a
:1008ec001e004000104078001e0fe800d5ff0700e6
:1008fc002e0090009e007800808f5000f2ff39008f
:10090c0001003700000000001e0078000080fa0093
:10091c00000006000200fa000000eb00000f780057
:10092c007141800000102000008060000000e00099
:10093c00010032001e30a000714180000020200018
:10094c00008060000000e000010032001e40a000aa
:10095c0070418000610060000000e0000100320086
:10096c001e00a00070418000620060000000e000ea
:10097c00020032001e20a000010037001e10a00053
:10098c001e0078000080fa00000006000200fa0049
:10099c00000f7800404180009e0040000084200041
:1009ac00808f500008003600404180009e004000bf
:1009bc00008420000000ea000080400081832000b9
:1009cc006140780003003700404180001e00400069
:1009dc00104078000080fa00000006000000fa00c9
:1009ec0070418000610060000000e0000f003a00e0
:1009fc004141800030418000808f5000050036005e
:100a0c004041800080007800304180000080500020
:100a1c0007003700404180008000780030418000a2
:100a2c000080500068004000010037000000eb001f
:100a3c000080fa00000006000000fa0071418000fe
:100a4c0000102000008060000000e0000f003a0061
:100a5c006141800050418000808f500005003600bd
:100a6c006041800080007800504180000080500080
:100a7c000700370060418000800078005041800002
:100a8c000080500068004000010037000000eb00bf
:100a9c000080fa00000006000000fa00704180009f
:100aac000000d100614060000080fb0000f0a70056
:100abc000000ea000000ea004f00de000040780071
:100acc000080fa00000006000000fa00704180006f
:100adc004800de00614060000080fb0000f0a700d1
:100aec000000ea000000ea004f00de000040780041
:100afc000080fa00000006000000fa00901180004f
:100b0c000080fa00000006000000fa00d01320005c
:100b1c00000c8800d0132000100c8800600020000e
:100b2c00200c8800200c800000407800674060009a
:100b3c000080fb00004088008440a9009440a8007d
:100b4c000080fa0000000600801f78000000fa0008
:100b5c0020048000640060000000e000010032000e
:100b6c008440a9000080fa004f0078000040060085
:100b7c000000fa00004080000040780067406000f0
:100b8c000080fb0067006000220c800081ff2f00ba
:100b9c008100610001007000200c88000080fa00c8
:100bac00000006000000fa00210c800080ff2f00de
:100bbc0000806000200c88000080fa000000060015
:100bcc000200fa00000f78009e007800110c8800db
:100bdc000080fa00000006000400fa00000f780004
:100bec00110798009e007800110c88009e00900060
:100bfc00010c88000080fa00000006000400fa00d6
:100c0c00000f7800110798009e007800110c8800e6
:100c1c009e009000010c88000080fa000000060085
:100c2c000400fa00000f7800110798009e0078006d
:100c3c00110c88009e009000010c88000080fa00c6
:100c4c00000006000200fa00000f78009e007800f9
:100c5c00010c88000080fa00000006000200fa0077
:100c6c00000f78009e007800110c88000080fa00bc
:100c7c00000006000000fa00200480004200de00a4
:100c8c00614060000080fb0000f0a7000000ea005b
:100c9c000000ea004f00de00004078000080fa00ff
:100cac00000006000400fa00100798001e009000d7
:100cbc000000e0000a003a00200c80004400de0036
:100ccc00614060000080fb0000f0a7000000ea001b
:100cdc000000ea004f00de00004f780001003700f2
:100cec00000000001e4078000080fa0000000600a2
:100cfc000000fa00f00c2000300c8800f00c2000f2
:100d0c00400c8800e0002000500c8800500c800043
:100d1c0000407800674060000080fb0020408800a5
:100d2c000080fa00000006000000fa002104800098
:100d3c0000042000008060000000e0000100320090
:100d4c0084c0a9000080fa00000006000000fa0030
:100d5c002040800000407800674060000080fb006d
:100d6c0067006000520c800081ff2f008100610041
:100d7c0001007000500c88000080fa000000060092
:100d8c000000fa00510c800080ff2f0000806000f2
:100d9c00500c88000080fa00000006000200fa00e7
:100dac00000f78009e007800410c88000080fa004b
:100dbc00000006000400fa00000f780011079800ec
:100dcc009e007800410c88009e009000310c880039
:100ddc000080fa00000006000400fa00000f780002
:100dec00110798009e007800410c88009e0090002e
:100dfc00310c88000080fa00000006000400fa00a4
:100e0c00000f7800110798009e007800410c8800b4
:100e1c009e009000310c88000080fa000000060053
:100e2c000200fa00000f78009e007800310c880058
:100e3c000080fa00000006000200fa00000f7800a3
:100e4c009e007800410c88000080fa00000006002b
:100e5c000000fa00200480004600de0061406000c3
:100e6c000080fb0000f0a7000000ea000000ea0090
:100e7c004f00de00004078000080fa000000060001
:100e8c000400fa00100798001e0090000000e0001b
:100e9c000a003a00500c80004400de006140600003
:100eac000080fb0000f0a7000000ea000000ea0050
:100ebc004f00de00004f78000100370000000000fa
:100ecc001e4078000080fa00000006000000fa00c6
:100edc0000002200300888000028200060088800ec
:100eec000000280080088800008420008040eb006f
:100efc00014878000080fa00000006000000fa00ab
:100f0c002104800000082000008060000000e00048
:100f1c000900320010842000104078008040e80066
:100f2c0010842000014878000084200011c0b30018
:100f3c000148780084e0a9000080fa000000060057
:100f4c000200fa00000f78009e007800610888000b
:100f5c00008420008040eb00014878000080fa00fb
:100f6c00000006000000fa00600880000080fa0013
:100f7c00000006000200fa00000f78009e007800c6
:100f8c0031088800008420008040eb000148780084
:100f9c000080fa00000006000000fa003008800013
:100fac000080fa00000006000000fa000084200017
:100fbc008040eb000148780011e1a8000080fa00a5
:100fcc00000006000000fa0011e1a9000080fa0000
:100fdc00000006000200fa0000842000104f780088
:100fec001e4078000004e000030032000084200062
:100ffc008040eb00014878001e4078000080fa0029
:10100c00000006000000fa00108420001040780058
:10101c000080fb000080fa00000006000000fa00cf
:10102c00108420008040eb00014878000080fa001a
:10103c00000006000000fa000a21ef00101a200040
:10104c007008880000002800900888002084200088
:10105c008040eb00014878000080fa000000060098
:10106c000000fa00210480000010200000806000c5
:10107c000000e000090032003084200010407800ad
:10108c008040e80030842000014878002084200053
:10109c0011c0b300014878008500a9000080fa0057
:1010ac00000006000200fa00000f78009e00780095
:1010bc0071088800208420008040eb0001487800f3
:1010cc000080fa00000006000000fa0070088000a2
:1010dc000080fa00000006000200fa00000f780001
:1010ec009e00780051088800208420008040eb008e
:1010fc00014878000080fa00000006000000fa00a9
:10110c00500880000080fa00000006000000fa0081
:10111c00208420008040eb000148780013e1a800f7
:10112c000080fa00000006000000fa0013e1a9009c
:10113c000080fa00000006000200fa002084200063
:10114c00104f78001e4078000004e00003003200cd
:10115c00208420008040eb00014878001e4078007d
:10116c000080fa00000006000000fa003084200025
:10117c00104078000080fb000080fa0000000600a0
:10118c000000fa00308420008040eb000148780019
:10119c000080fa00000006000000fa00c422ef00f4
:1011ac00ca22ef00d022ef00d622ef00dc22ef00a3
:1011bc008002200010178800e822ef00f06f2c004e
:1011cc00001688000080eb0030168800e0012f002c
:1011dc0060168800c0ff2f0090168800f03f20009a
:1011ec00c0168800f01d2300f0168800f03c2f007c
:1011fc00201788006820ef006a20ef00c026ef005f
:10120c00c626ef00cc26ef00d226ef00d826ef0042
:10121c00de26ef00e426ef00000c200060198800a9
:10122c000080fa0000000600000f78009e00780095
:10123c0011408800ffff37000000fa00608020009a
:10124c0080077800e0812000000188000080fa000f
:10125c00000006003600f8008020a9000000eb001a
:10126c00f1ff07003600f800f3ff07008040a900eb
:10127c0010002000ecff07003600f8008060a90089
:10128c0020002000e8ff07003600f8008080a9004d
:10129c0030002000e4ff07000000fa00beff07004a
:1012ac001600070007000700b9fc070061ff0700e4
:1012bc0015fe07008efe070004ff07000080fa00f1
:1012cc00000006000000fa000001eb0060042000a2
:1012dc007105200023742000804978008149780032
:1012ec008249780000002300203a88004827ef004c
:1012fc004027ef000080fa00000006000000fa0012
:10130c0021068000f08f2f00008060000080a0007c
:10131c002006880091058000f0ff28000080600006
:10132c0000c0a0009005880091058000f08f2f0070
:10133c00008060000080a0009005880021058000de
:10134c00f08f2f00008060000080a0002005880036
:08135c000080fa000000060009
:020000040000fa
:101364000008000002000000000000000608000061
:10137400200000000000000002080000020000003d
:1013840002000000ffff000040080000020000000f
:10139400000000000408000002000000000000003b
:1013a40042080000020000000000000026080000bf
:0c13b4001a000000000000000000000013
:020000040000fa
:1013c0000000fa00b7ff070001003700000000002e
:1013d000c0fd07000004a2000004e000fbff320093
:0c13e00010c4b3001afd0700f9ff37002d
:020000040000fa
:020000040002f8
:04aff800bff900009d
:020000040000fa
:020000040002f8
:04affc007f3f000093
:00000001FF
